{"abi":[{"type":"constructor","inputs":[{"name":"name_","type":"string","internalType":"string"},{"name":"symbol_","type":"string","internalType":"string"},{"name":"yieldVault_","type":"address","internalType":"contract IERC4626"},{"name":"prizePool_","type":"address","internalType":"contract PrizePool"},{"name":"claimer_","type":"address","internalType":"address"},{"name":"yieldFeeRecipient_","type":"address","internalType":"address"},{"name":"yieldFeePercentage_","type":"uint32","internalType":"uint32"},{"name":"yieldBuffer_","type":"uint256","internalType":"uint256"},{"name":"owner_","type":"address","internalType":"address"}],"stateMutability":"nonpayable"},{"type":"function","name":"DOMAIN_SEPARATOR","inputs":[],"outputs":[{"name":"","type":"bytes32","internalType":"bytes32"}],"stateMutability":"view"},{"type":"function","name":"FEE_PRECISION","inputs":[],"outputs":[{"name":"","type":"uint32","internalType":"uint32"}],"stateMutability":"view"},{"type":"function","name":"HOOK_GAS","inputs":[],"outputs":[{"name":"","type":"uint24","internalType":"uint24"}],"stateMutability":"view"},{"type":"function","name":"HOOK_RETURN_DATA_LIMIT","inputs":[],"outputs":[{"name":"","type":"uint16","internalType":"uint16"}],"stateMutability":"view"},{"type":"function","name":"MAX_YIELD_FEE","inputs":[],"outputs":[{"name":"","type":"uint32","internalType":"uint32"}],"stateMutability":"view"},{"type":"function","name":"allowance","inputs":[{"name":"owner","type":"address","internalType":"address"},{"name":"spender","type":"address","internalType":"address"}],"outputs":[{"name":"","type":"uint256","internalType":"uint256"}],"stateMutability":"view"},{"type":"function","name":"approve","inputs":[{"name":"spender","type":"address","internalType":"address"},{"name":"amount","type":"uint256","internalType":"uint256"}],"outputs":[{"name":"","type":"bool","internalType":"bool"}],"stateMutability":"nonpayable"},{"type":"function","name":"asset","inputs":[],"outputs":[{"name":"","type":"address","internalType":"address"}],"stateMutability":"view"},{"type":"function","name":"availableYieldBalance","inputs":[],"outputs":[{"name":"","type":"uint256","internalType":"uint256"}],"stateMutability":"view"},{"type":"function","name":"balanceOf","inputs":[{"name":"_account","type":"address","internalType":"address"}],"outputs":[{"name":"","type":"uint256","internalType":"uint256"}],"stateMutability":"view"},{"type":"function","name":"claimOwnership","inputs":[],"outputs":[],"stateMutability":"nonpayable"},{"type":"function","name":"claimPrize","inputs":[{"name":"_winner","type":"address","internalType":"address"},{"name":"_tier","type":"uint8","internalType":"uint8"},{"name":"_prizeIndex","type":"uint32","internalType":"uint32"},{"name":"_reward","type":"uint96","internalType":"uint96"},{"name":"_rewardRecipient","type":"address","internalType":"address"}],"outputs":[{"name":"","type":"uint256","internalType":"uint256"}],"stateMutability":"nonpayable"},{"type":"function","name":"claimYieldFeeShares","inputs":[{"name":"_shares","type":"uint256","internalType":"uint256"}],"outputs":[],"stateMutability":"nonpayable"},{"type":"function","name":"claimer","inputs":[],"outputs":[{"name":"","type":"address","internalType":"address"}],"stateMutability":"view"},{"type":"function","name":"convertToAssets","inputs":[{"name":"_shares","type":"uint256","internalType":"uint256"}],"outputs":[{"name":"","type":"uint256","internalType":"uint256"}],"stateMutability":"view"},{"type":"function","name":"convertToShares","inputs":[{"name":"_assets","type":"uint256","internalType":"uint256"}],"outputs":[{"name":"","type":"uint256","internalType":"uint256"}],"stateMutability":"view"},{"type":"function","name":"currentYieldBuffer","inputs":[],"outputs":[{"name":"","type":"uint256","internalType":"uint256"}],"stateMutability":"view"},{"type":"function","name":"decimals","inputs":[],"outputs":[{"name":"","type":"uint8","internalType":"uint8"}],"stateMutability":"view"},{"type":"function","name":"decreaseAllowance","inputs":[{"name":"spender","type":"address","internalType":"address"},{"name":"subtractedValue","type":"uint256","internalType":"uint256"}],"outputs":[{"name":"","type":"bool","internalType":"bool"}],"stateMutability":"nonpayable"},{"type":"function","name":"deposit","inputs":[{"name":"_assets","type":"uint256","internalType":"uint256"},{"name":"_receiver","type":"address","internalType":"address"}],"outputs":[{"name":"","type":"uint256","internalType":"uint256"}],"stateMutability":"nonpayable"},{"type":"function","name":"depositWithPermit","inputs":[{"name":"_assets","type":"uint256","internalType":"uint256"},{"name":"_owner","type":"address","internalType":"address"},{"name":"_deadline","type":"uint256","internalType":"uint256"},{"name":"_v","type":"uint8","internalType":"uint8"},{"name":"_r","type":"bytes32","internalType":"bytes32"},{"name":"_s","type":"bytes32","internalType":"bytes32"}],"outputs":[{"name":"","type":"uint256","internalType":"uint256"}],"stateMutability":"nonpayable"},{"type":"function","name":"eip712Domain","inputs":[],"outputs":[{"name":"fields","type":"bytes1","internalType":"bytes1"},{"name":"name","type":"string","internalType":"string"},{"name":"version","type":"string","internalType":"string"},{"name":"chainId","type":"uint256","internalType":"uint256"},{"name":"verifyingContract","type":"address","internalType":"address"},{"name":"salt","type":"bytes32","internalType":"bytes32"},{"name":"extensions","type":"uint256[]","internalType":"uint256[]"}],"stateMutability":"view"},{"type":"function","name":"getHooks","inputs":[{"name":"account","type":"address","internalType":"address"}],"outputs":[{"name":"","type":"tuple","internalType":"struct PrizeHooks","components":[{"name":"useBeforeClaimPrize","type":"bool","internalType":"bool"},{"name":"useAfterClaimPrize","type":"bool","internalType":"bool"},{"name":"implementation","type":"address","internalType":"contract IPrizeHooks"}]}],"stateMutability":"view"},{"type":"function","name":"increaseAllowance","inputs":[{"name":"spender","type":"address","internalType":"address"},{"name":"addedValue","type":"uint256","internalType":"uint256"}],"outputs":[{"name":"","type":"bool","internalType":"bool"}],"stateMutability":"nonpayable"},{"type":"function","name":"isLiquidationPair","inputs":[{"name":"_tokenOut","type":"address","internalType":"address"},{"name":"_liquidationPair","type":"address","internalType":"address"}],"outputs":[{"name":"","type":"bool","internalType":"bool"}],"stateMutability":"view"},{"type":"function","name":"liquidatableBalanceOf","inputs":[{"name":"_tokenOut","type":"address","internalType":"address"}],"outputs":[{"name":"","type":"uint256","internalType":"uint256"}],"stateMutability":"view"},{"type":"function","name":"liquidationPair","inputs":[],"outputs":[{"name":"","type":"address","internalType":"address"}],"stateMutability":"view"},{"type":"function","name":"maxDeposit","inputs":[{"name":"","type":"address","internalType":"address"}],"outputs":[{"name":"","type":"uint256","internalType":"uint256"}],"stateMutability":"view"},{"type":"function","name":"maxMint","inputs":[{"name":"_owner","type":"address","internalType":"address"}],"outputs":[{"name":"","type":"uint256","internalType":"uint256"}],"stateMutability":"view"},{"type":"function","name":"maxRedeem","inputs":[{"name":"_owner","type":"address","internalType":"address"}],"outputs":[{"name":"","type":"uint256","internalType":"uint256"}],"stateMutability":"view"},{"type":"function","name":"maxWithdraw","inputs":[{"name":"_owner","type":"address","internalType":"address"}],"outputs":[{"name":"","type":"uint256","internalType":"uint256"}],"stateMutability":"view"},{"type":"function","name":"mint","inputs":[{"name":"_shares","type":"uint256","internalType":"uint256"},{"name":"_receiver","type":"address","internalType":"address"}],"outputs":[{"name":"","type":"uint256","internalType":"uint256"}],"stateMutability":"nonpayable"},{"type":"function","name":"name","inputs":[],"outputs":[{"name":"","type":"string","internalType":"string"}],"stateMutability":"view"},{"type":"function","name":"nonces","inputs":[{"name":"owner","type":"address","internalType":"address"}],"outputs":[{"name":"","type":"uint256","internalType":"uint256"}],"stateMutability":"view"},{"type":"function","name":"owner","inputs":[],"outputs":[{"name":"","type":"address","internalType":"address"}],"stateMutability":"view"},{"type":"function","name":"pendingOwner","inputs":[],"outputs":[{"name":"","type":"address","internalType":"address"}],"stateMutability":"view"},{"type":"function","name":"permit","inputs":[{"name":"owner","type":"address","internalType":"address"},{"name":"spender","type":"address","internalType":"address"},{"name":"value","type":"uint256","internalType":"uint256"},{"name":"deadline","type":"uint256","internalType":"uint256"},{"name":"v","type":"uint8","internalType":"uint8"},{"name":"r","type":"bytes32","internalType":"bytes32"},{"name":"s","type":"bytes32","internalType":"bytes32"}],"outputs":[],"stateMutability":"nonpayable"},{"type":"function","name":"previewDeposit","inputs":[{"name":"_assets","type":"uint256","internalType":"uint256"}],"outputs":[{"name":"","type":"uint256","internalType":"uint256"}],"stateMutability":"pure"},{"type":"function","name":"previewMint","inputs":[{"name":"_shares","type":"uint256","internalType":"uint256"}],"outputs":[{"name":"","type":"uint256","internalType":"uint256"}],"stateMutability":"pure"},{"type":"function","name":"previewRedeem","inputs":[{"name":"_shares","type":"uint256","internalType":"uint256"}],"outputs":[{"name":"","type":"uint256","internalType":"uint256"}],"stateMutability":"view"},{"type":"function","name":"previewWithdraw","inputs":[{"name":"_assets","type":"uint256","internalType":"uint256"}],"outputs":[{"name":"","type":"uint256","internalType":"uint256"}],"stateMutability":"view"},{"type":"function","name":"prizePool","inputs":[],"outputs":[{"name":"","type":"address","internalType":"contract PrizePool"}],"stateMutability":"view"},{"type":"function","name":"redeem","inputs":[{"name":"_shares","type":"uint256","internalType":"uint256"},{"name":"_receiver","type":"address","internalType":"address"},{"name":"_owner","type":"address","internalType":"address"},{"name":"_minAssets","type":"uint256","internalType":"uint256"}],"outputs":[{"name":"","type":"uint256","internalType":"uint256"}],"stateMutability":"nonpayable"},{"type":"function","name":"redeem","inputs":[{"name":"_shares","type":"uint256","internalType":"uint256"},{"name":"_receiver","type":"address","internalType":"address"},{"name":"_owner","type":"address","internalType":"address"}],"outputs":[{"name":"","type":"uint256","internalType":"uint256"}],"stateMutability":"nonpayable"},{"type":"function","name":"renounceOwnership","inputs":[],"outputs":[],"stateMutability":"nonpayable"},{"type":"function","name":"setClaimer","inputs":[{"name":"_claimer","type":"address","internalType":"address"}],"outputs":[],"stateMutability":"nonpayable"},{"type":"function","name":"setHooks","inputs":[{"name":"hooks","type":"tuple","internalType":"struct PrizeHooks","components":[{"name":"useBeforeClaimPrize","type":"bool","internalType":"bool"},{"name":"useAfterClaimPrize","type":"bool","internalType":"bool"},{"name":"implementation","type":"address","internalType":"contract IPrizeHooks"}]}],"outputs":[],"stateMutability":"nonpayable"},{"type":"function","name":"setLiquidationPair","inputs":[{"name":"_liquidationPair","type":"address","internalType":"address"}],"outputs":[],"stateMutability":"nonpayable"},{"type":"function","name":"setYieldFeePercentage","inputs":[{"name":"_yieldFeePercentage","type":"uint32","internalType":"uint32"}],"outputs":[],"stateMutability":"nonpayable"},{"type":"function","name":"setYieldFeeRecipient","inputs":[{"name":"_yieldFeeRecipient","type":"address","internalType":"address"}],"outputs":[],"stateMutability":"nonpayable"},{"type":"function","name":"symbol","inputs":[],"outputs":[{"name":"","type":"string","internalType":"string"}],"stateMutability":"view"},{"type":"function","name":"targetOf","inputs":[{"name":"","type":"address","internalType":"address"}],"outputs":[{"name":"","type":"address","internalType":"address"}],"stateMutability":"view"},{"type":"function","name":"totalAssets","inputs":[],"outputs":[{"name":"","type":"uint256","internalType":"uint256"}],"stateMutability":"view"},{"type":"function","name":"totalDebt","inputs":[],"outputs":[{"name":"","type":"uint256","internalType":"uint256"}],"stateMutability":"view"},{"type":"function","name":"totalPreciseAssets","inputs":[],"outputs":[{"name":"","type":"uint256","internalType":"uint256"}],"stateMutability":"view"},{"type":"function","name":"totalSupply","inputs":[],"outputs":[{"name":"","type":"uint256","internalType":"uint256"}],"stateMutability":"view"},{"type":"function","name":"totalYieldBalance","inputs":[],"outputs":[{"name":"","type":"uint256","internalType":"uint256"}],"stateMutability":"view"},{"type":"function","name":"transfer","inputs":[{"name":"to","type":"address","internalType":"address"},{"name":"amount","type":"uint256","internalType":"uint256"}],"outputs":[{"name":"","type":"bool","internalType":"bool"}],"stateMutability":"nonpayable"},{"type":"function","name":"transferFrom","inputs":[{"name":"from","type":"address","internalType":"address"},{"name":"to","type":"address","internalType":"address"},{"name":"amount","type":"uint256","internalType":"uint256"}],"outputs":[{"name":"","type":"bool","internalType":"bool"}],"stateMutability":"nonpayable"},{"type":"function","name":"transferOwnership","inputs":[{"name":"_newOwner","type":"address","internalType":"address"}],"outputs":[],"stateMutability":"nonpayable"},{"type":"function","name":"transferTokensOut","inputs":[{"name":"","type":"address","internalType":"address"},{"name":"_receiver","type":"address","internalType":"address"},{"name":"_tokenOut","type":"address","internalType":"address"},{"name":"_amountOut","type":"uint256","internalType":"uint256"}],"outputs":[{"name":"","type":"bytes","internalType":"bytes"}],"stateMutability":"nonpayable"},{"type":"function","name":"twabController","inputs":[],"outputs":[{"name":"","type":"address","internalType":"contract TwabController"}],"stateMutability":"view"},{"type":"function","name":"verifyTokensIn","inputs":[{"name":"_tokenIn","type":"address","internalType":"address"},{"name":"_amountIn","type":"uint256","internalType":"uint256"},{"name":"","type":"bytes","internalType":"bytes"}],"outputs":[],"stateMutability":"nonpayable"},{"type":"function","name":"withdraw","inputs":[{"name":"_assets","type":"uint256","internalType":"uint256"},{"name":"_receiver","type":"address","internalType":"address"},{"name":"_owner","type":"address","internalType":"address"},{"name":"_maxShares","type":"uint256","internalType":"uint256"}],"outputs":[{"name":"","type":"uint256","internalType":"uint256"}],"stateMutability":"nonpayable"},{"type":"function","name":"withdraw","inputs":[{"name":"_assets","type":"uint256","internalType":"uint256"},{"name":"_receiver","type":"address","internalType":"address"},{"name":"_owner","type":"address","internalType":"address"}],"outputs":[{"name":"","type":"uint256","internalType":"uint256"}],"stateMutability":"nonpayable"},{"type":"function","name":"yieldBuffer","inputs":[],"outputs":[{"name":"","type":"uint256","internalType":"uint256"}],"stateMutability":"view"},{"type":"function","name":"yieldFeeBalance","inputs":[],"outputs":[{"name":"","type":"uint256","internalType":"uint256"}],"stateMutability":"view"},{"type":"function","name":"yieldFeePercentage","inputs":[],"outputs":[{"name":"","type":"uint32","internalType":"uint32"}],"stateMutability":"view"},{"type":"function","name":"yieldFeeRecipient","inputs":[],"outputs":[{"name":"","type":"address","internalType":"address"}],"stateMutability":"view"},{"type":"function","name":"yieldVault","inputs":[],"outputs":[{"name":"","type":"address","internalType":"contract IERC4626"}],"stateMutability":"view"},{"type":"event","name":"Approval","inputs":[{"name":"owner","type":"address","indexed":true,"internalType":"address"},{"name":"spender","type":"address","indexed":true,"internalType":"address"},{"name":"value","type":"uint256","indexed":false,"internalType":"uint256"}],"anonymous":false},{"type":"event","name":"ClaimYieldFeeShares","inputs":[{"name":"recipient","type":"address","indexed":true,"internalType":"address"},{"name":"shares","type":"uint256","indexed":false,"internalType":"uint256"}],"anonymous":false},{"type":"event","name":"ClaimerSet","inputs":[{"name":"claimer","type":"address","indexed":true,"internalType":"address"}],"anonymous":false},{"type":"event","name":"Deposit","inputs":[{"name":"sender","type":"address","indexed":true,"internalType":"address"},{"name":"owner","type":"address","indexed":true,"internalType":"address"},{"name":"assets","type":"uint256","indexed":false,"internalType":"uint256"},{"name":"shares","type":"uint256","indexed":false,"internalType":"uint256"}],"anonymous":false},{"type":"event","name":"EIP712DomainChanged","inputs":[],"anonymous":false},{"type":"event","name":"LiquidationPairSet","inputs":[{"name":"tokenOut","type":"address","indexed":true,"internalType":"address"},{"name":"liquidationPair","type":"address","indexed":true,"internalType":"address"}],"anonymous":false},{"type":"event","name":"OwnershipOffered","inputs":[{"name":"pendingOwner","type":"address","indexed":true,"internalType":"address"}],"anonymous":false},{"type":"event","name":"OwnershipTransferred","inputs":[{"name":"previousOwner","type":"address","indexed":true,"internalType":"address"},{"name":"newOwner","type":"address","indexed":true,"internalType":"address"}],"anonymous":false},{"type":"event","name":"SetHooks","inputs":[{"name":"account","type":"address","indexed":true,"internalType":"address"},{"name":"hooks","type":"tuple","indexed":false,"internalType":"struct PrizeHooks","components":[{"name":"useBeforeClaimPrize","type":"bool","internalType":"bool"},{"name":"useAfterClaimPrize","type":"bool","internalType":"bool"},{"name":"implementation","type":"address","internalType":"contract IPrizeHooks"}]}],"anonymous":false},{"type":"event","name":"Transfer","inputs":[{"name":"from","type":"address","indexed":true,"internalType":"address"},{"name":"to","type":"address","indexed":true,"internalType":"address"},{"name":"value","type":"uint256","indexed":false,"internalType":"uint256"}],"anonymous":false},{"type":"event","name":"TransferYieldOut","inputs":[{"name":"liquidationPair","type":"address","indexed":true,"internalType":"address"},{"name":"tokenOut","type":"address","indexed":true,"internalType":"address"},{"name":"recipient","type":"address","indexed":true,"internalType":"address"},{"name":"amountOut","type":"uint256","indexed":false,"internalType":"uint256"},{"name":"yieldFee","type":"uint256","indexed":false,"internalType":"uint256"}],"anonymous":false},{"type":"event","name":"Withdraw","inputs":[{"name":"sender","type":"address","indexed":true,"internalType":"address"},{"name":"receiver","type":"address","indexed":true,"internalType":"address"},{"name":"owner","type":"address","indexed":true,"internalType":"address"},{"name":"assets","type":"uint256","indexed":false,"internalType":"uint256"},{"name":"shares","type":"uint256","indexed":false,"internalType":"uint256"}],"anonymous":false},{"type":"event","name":"YieldFeePercentageSet","inputs":[{"name":"yieldFeePercentage","type":"uint256","indexed":false,"internalType":"uint256"}],"anonymous":false},{"type":"event","name":"YieldFeeRecipientSet","inputs":[{"name":"yieldFeeRecipient","type":"address","indexed":true,"internalType":"address"}],"anonymous":false},{"type":"error","name":"BurnZeroShares","inputs":[]},{"type":"error","name":"CallerNotClaimer","inputs":[{"name":"caller","type":"address","internalType":"address"},{"name":"claimer","type":"address","internalType":"address"}]},{"type":"error","name":"CallerNotLP","inputs":[{"name":"caller","type":"address","internalType":"address"},{"name":"liquidationPair","type":"address","internalType":"address"}]},{"type":"error","name":"CallerNotYieldFeeRecipient","inputs":[{"name":"caller","type":"address","internalType":"address"},{"name":"yieldFeeRecipient","type":"address","internalType":"address"}]},{"type":"error","name":"ClaimRecipientZeroAddress","inputs":[]},{"type":"error","name":"ClaimerZeroAddress","inputs":[]},{"type":"error","name":"DepositZeroAssets","inputs":[]},{"type":"error","name":"FailedToGetAssetDecimals","inputs":[{"name":"asset","type":"address","internalType":"address"}]},{"type":"error","name":"InvalidShortString","inputs":[]},{"type":"error","name":"LPZeroAddress","inputs":[]},{"type":"error","name":"LiquidationAmountOutZero","inputs":[]},{"type":"error","name":"LiquidationExceedsAvailable","inputs":[{"name":"totalToWithdraw","type":"uint256","internalType":"uint256"},{"name":"availableYield","type":"uint256","internalType":"uint256"}]},{"type":"error","name":"LiquidationTokenInNotPrizeToken","inputs":[{"name":"tokenIn","type":"address","internalType":"address"},{"name":"prizeToken","type":"address","internalType":"address"}]},{"type":"error","name":"LiquidationTokenOutNotSupported","inputs":[{"name":"tokenOut","type":"address","internalType":"address"}]},{"type":"error","name":"LossyDeposit","inputs":[{"name":"totalAssets","type":"uint256","internalType":"uint256"},{"name":"totalSupply","type":"uint256","internalType":"uint256"}]},{"type":"error","name":"MaxSharesExceeded","inputs":[{"name":"shares","type":"uint256","internalType":"uint256"},{"name":"maxShares","type":"uint256","internalType":"uint256"}]},{"type":"error","name":"MinAssetsNotReached","inputs":[{"name":"assets","type":"uint256","internalType":"uint256"},{"name":"minAssets","type":"uint256","internalType":"uint256"}]},{"type":"error","name":"MintLimitExceeded","inputs":[{"name":"excess","type":"uint256","internalType":"uint256"}]},{"type":"error","name":"MintZeroShares","inputs":[]},{"type":"error","name":"OwnerZeroAddress","inputs":[]},{"type":"error","name":"PermitCallerNotOwner","inputs":[{"name":"caller","type":"address","internalType":"address"},{"name":"owner","type":"address","internalType":"address"}]},{"type":"error","name":"PrizePoolZeroAddress","inputs":[]},{"type":"error","name":"ReturnDataOverLimit","inputs":[{"name":"returnDataSize","type":"uint256","internalType":"uint256"},{"name":"hookDataLimit","type":"uint256","internalType":"uint256"}]},{"type":"error","name":"SharesExceedsYieldFeeBalance","inputs":[{"name":"shares","type":"uint256","internalType":"uint256"},{"name":"yieldFeeBalance","type":"uint256","internalType":"uint256"}]},{"type":"error","name":"StringTooLong","inputs":[{"name":"str","type":"string","internalType":"string"}]},{"type":"error","name":"TwabControllerZeroAddress","inputs":[]},{"type":"error","name":"WithdrawZeroAssets","inputs":[]},{"type":"error","name":"YieldFeePercentageExceedsMax","inputs":[{"name":"yieldFeePercentage","type":"uint256","internalType":"uint256"},{"name":"maxYieldFeePercentage","type":"uint256","internalType":"uint256"}]},{"type":"error","name":"YieldVaultZeroAddress","inputs":[]},{"type":"error","name":"ZeroTotalAssets","inputs":[]}],"bytecode":{"object":"0x61022060405234801562000011575f80fd5b50604051620052c1380380620052c183398101604081905262000034916200075f565b8086868b8b8a6001600160a01b031663b0812d7b6040518163ffffffff1660e01b8152600401602060405180830381865afa15801562000076573d5f803e3d5ffd5b505050506040513d601f19601f820116820180604052508101906200009c919062000840565b6040805180820190915260018152603160f81b60208201528390819081856003620000c88382620008ef565b506004620000d78282620008ef565b50620000e9915083905060056200035e565b61012052620000fa8160066200035e565b61014052815160208084019190912060e052815190820120610100524660a0526200018760e05161010051604080517f8b73c3c69bb8fe3d512ecc4cf759cc79239f7b179b0ffacaa9a75d522b39400f60208201529081019290925260608201524660808201523060a08201525f9060c00160405160208183030381529060405280519060200120905090565b60805250503060c052506001600160a01b0381165f03620001bb576040516319b9815760e11b815260040160405180910390fd5b6001600160a01b039081166101605284169150620001ee9050576040516305d872f360e21b815260040160405180910390fd5b6001600160a01b03821661018052620002078162000396565b506200021590508162000407565b506001600160a01b0387166200023e576040516307877e8560e01b815260040160405180910390fd5b6001600160a01b0381166200026657604051630962257960e11b815260040160405180910390fd5b5f876001600160a01b03166338d52e0f6040518163ffffffff1660e01b8152600401602060405180830381865afa158015620002a4573d5f803e3d5ffd5b505050506040513d601f19601f82011682018060405250810190620002ca919062000840565b90505f80620002d98362000458565b915091508115620002f25760ff8116610200526200031b565b60405163f500876960e01b81526001600160a01b03841660048201526024015b60405180910390fd5b6001600160a01b038084166101e0528a166101c0526101a0859052620003418762000537565b6200034c8662000580565b50505050505050505050505062000a48565b5f6020835110156200037d57620003758362000619565b905062000390565b816200038a8482620008ef565b5060ff90505b92915050565b6001600160a01b038116620003be57604051634d9808e160e11b815260040160405180910390fd5b600a80546001600160a01b0319166001600160a01b0383169081179091556040517fa04eca05f1c4f5674beaad80f345070124aa2192abced410b9b227c0c04e755a905f90a250565b600b80546001600160a01b038381166001600160a01b0319831681179093556040519116919082907f8be0079c531659141344cd1fd0a4f28419497f9722a3daafe3b4186f6b6457e0905f90a35050565b60408051600481526024810182526020810180516001600160e01b031663313ce56760e01b17905290515f918291829182916001600160a01b03871691620004a091620009bb565b5f60405180830381855afa9150503d805f8114620004da576040519150601f19603f3d011682016040523d82523d5f602084013e620004df565b606091505b5091509150818015620004f457506020815110155b156200052b575f81806020019051810190620005119190620009d8565b905060ff811162000529576001969095509350505050565b505b505f9485945092505050565b600d80546001600160a01b0319166001600160a01b0383169081179091556040517f5d55a9f17ebec95846f4d400ad862a51f9564a7973f6622d3c99a34feb6a0aec905f90a250565b6335a4e90063ffffffff82161115620005bf57604051637bcc613b60e01b815263ffffffff821660048201526335a4e900602482015260440162000312565b600c805463ffffffff60a01b1916600160a01b63ffffffff8416908102919091179091556040519081527fefb99600b8c2baadc10ee4fe77c625b379acb4c29fbb0b90a5f17652d7de03419060200160405180910390a150565b5f80829050601f8151111562000646578260405163305a27a960e01b8152600401620003129190620009f0565b8051620006538262000a24565b179392505050565b634e487b7160e01b5f52604160045260245ffd5b5f5b838110156200068b57818101518382015260200162000671565b50505f910152565b5f82601f830112620006a3575f80fd5b81516001600160401b0380821115620006c057620006c06200065b565b604051601f8301601f19908116603f01168101908282118183101715620006eb57620006eb6200065b565b8160405283815286602085880101111562000704575f80fd5b620007178460208301602089016200066f565b9695505050505050565b6001600160a01b038116811462000736575f80fd5b50565b8051620007468162000721565b919050565b805163ffffffff8116811462000746575f80fd5b5f805f805f805f805f6101208a8c03121562000779575f80fd5b89516001600160401b038082111562000790575f80fd5b6200079e8d838e0162000693565b9a5060208c0151915080821115620007b4575f80fd5b50620007c38c828d0162000693565b98505060408a0151620007d68162000721565b60608b0151909750620007e98162000721565b9550620007f960808b0162000739565b94506200080960a08b0162000739565b93506200081960c08b016200074b565b925060e08a01519150620008316101008b0162000739565b90509295985092959850929598565b5f6020828403121562000851575f80fd5b81516200085e8162000721565b9392505050565b600181811c908216806200087a57607f821691505b6020821081036200089957634e487b7160e01b5f52602260045260245ffd5b50919050565b601f821115620008ea57805f5260205f20601f840160051c81016020851015620008c65750805b601f840160051c820191505b81811015620008e7575f8155600101620008d2565b50505b505050565b81516001600160401b038111156200090b576200090b6200065b565b62000923816200091c845462000865565b846200089f565b602080601f83116001811462000959575f8415620009415750858301515b5f19600386901b1c1916600185901b178555620009b3565b5f85815260208120601f198616915b82811015620009895788860151825594840194600190910190840162000968565b5085821015620009a757878501515f19600388901b60f8161c191681555b505060018460011b0185555b505050505050565b5f8251620009ce8184602087016200066f565b9190910192915050565b5f60208284031215620009e9575f80fd5b5051919050565b602081525f825180602084015262000a108160408501602087016200066f565b601f01601f19169190910160400192915050565b8051602080830151919081101562000899575f1960209190910360031b1b16919050565b60805160a05160c05160e05161010051610120516101405161016051610180516101a0516101c0516101e051610200516146e862000bd95f395f61053201525f818161057901528181610a2b01528181610d4a0152818161133c0152818161148f01528181611629015281816116ee015281816119ad01528181611cc301528181611d0f015281816120bf0152818161231601528181612bfc01528181612c3b01528181612cbb01528181612f7d015261314701525f818161077a01528181610ab1015281816113cf0152818161151501528181612cdd01528181612d1a01528181612daa01528181613003015281816130b5015261330d01525f818161048b01528181610dcc015281816112e501526126b801525f8181610675015281816106b7015281816110ae01528181611efd0152611fcf01525f81816107b401528181610cd6015281816117ca01528181612783015281816128d301526138ec01525f611b0c01525f611ae101525f612a8a01525f612a6201525f6129bd01525f6129e701525f612a1101526146e85ff3fe608060405234801561000f575f80fd5b5060043610610401575f3560e01c80638da5cb5b11610216578063c8576e611161012a578063de03f408116100b4578063e63a391f11610084578063e63a391f146109db578063edb8eb80146109e6578063ef8b30f7146107e9578063f2fde38b146109f9578063fc7b9c1814610a0c575f80fd5b8063de03f40814610901578063e16777c1146109a0578063e30c3978146109b7578063e4e243ac146109c8575f80fd5b8063d379be23116100fa578063d379be23146108ad578063d4122abf146108c0578063d505accf146108c8578063d905777e146108db578063dd62ed3e146108ee575f80fd5b8063c8576e6114610859578063cdfb58321461086c578063ce96cb771461087f578063d30ae1b414610892575f80fd5b8063a9059cbb116101ab578063b460af941161017b578063b460af94146107fa578063ba0876521461080d578063c63d75b614610820578063c6e6f59214610833578063c78c72c114610846575f80fd5b8063a9059cbb1461079c578063b0812d7b146107af578063b0fcf626146107d6578063b3d7f6b9146107e9575f80fd5b80639f40a7b3116101e65780639f40a7b31461073c578063a318c1a41461074f578063a457c2d714610762578063a7f8a5e214610775575f80fd5b80638da5cb5b1461071a57806394bf804d1461065157806395d89b411461072b5780639a1adf9a14610733575f80fd5b806338d52e0f11610318578063649f2394116102a2578063715018a611610272578063715018a6146106aa578063719ce73e146106b25780637cc99d3f146106d95780637ecebe00146106ec57806384b0196e146106ff575f80fd5b8063649f23941461063e5780636e553f6514610651578063700f04ef1461066457806370a0823114610697575f80fd5b80634244aa9b116102e85780634244aa9b146105f55780634cdad506146105fd5780634e71e0c81461061057806350921b231461061857806363003b161461062b575f80fd5b806338d52e0f1461057757806339509351146105b15780634006522b146105c4578063402d267d146105e2575f80fd5b80631b5719241161039957806325fa66e01161036957806325fa66e0146105035780632895cace14610518578063313ce5671461052b578063353d5a181461055c5780633644e5151461056f575f80fd5b80631b571924146104b55780631caa73cb146104c8578063237fd108146104e857806323b872dd146104f0575f80fd5b80630a28a477116103d45780630a28a4771461046b5780630d1e52551461047e57806313dc6c5d1461048657806318160ddd146104ad575f80fd5b806301e1d1141461040557806306fdde031461042057806307a2d13a14610435578063095ea7b314610448575b5f80fd5b61040d610a14565b6040519081526020015b60405180910390f35b610428610b97565b6040516104179190613eb9565b61040d610443366004613ecb565b610c27565b61045b610456366004613ef6565b610c48565b6040519015158152602001610417565b61040d610479366004613ecb565b610c5f565b61040d610ca6565b61040d7f000000000000000000000000000000000000000000000000000000000000000081565b61040d610cbf565b61045b6104c3366004613f20565b610d47565b6104d36335a4e90081565b60405163ffffffff9091168152602001610417565b61040d610dae565b61045b6104fe366004613f57565b610dfe565b610516610511366004613f95565b610e21565b005b61040d610526366004613fd3565b610ed5565b60405160ff7f0000000000000000000000000000000000000000000000000000000000000000168152602001610417565b61051661056a366004613ecb565b6111ab565b61040d611292565b7f00000000000000000000000000000000000000000000000000000000000000005b6040516001600160a01b039091168152602001610417565b61045b6105bf366004613ef6565b61129b565b6105ce620249f081565b60405162ffffff9091168152602001610417565b61040d6105f0366004613f95565b6112bc565b61040d611478565b61040d61060b366004613ecb565b611554565b610516611561565b61040d610626366004614047565b6115e2565b610516610639366004613f95565b61175e565b600f54610599906001600160a01b031681565b61040d61065f36600461409d565b6117a3565b610599610672366004613f95565b507f000000000000000000000000000000000000000000000000000000000000000090565b61040d6106a5366004613f95565b6117b1565b610516611840565b6105997f000000000000000000000000000000000000000000000000000000000000000081565b6104286106e73660046140c0565b611884565b61040d6106fa366004613f95565b611ab7565b610707611ad4565b604051610417979695949392919061410e565b600b546001600160a01b0316610599565b610428611b5b565b61040d600e5481565b61040d61074a3660046141a5565b611b6a565b61040d61075d3660046141a5565b611bb7565b61045b610770366004613ef6565b611bfc565b6105997f000000000000000000000000000000000000000000000000000000000000000081565b61045b6107aa366004613ef6565b611c76565b6105997f000000000000000000000000000000000000000000000000000000000000000081565b61040d6107e4366004613f95565b611c83565b61040d6107f7366004613ecb565b90565b61040d6108083660046141ca565b611e17565b61040d61081b3660046141ca565b611e31565b61040d61082e366004613f95565b611e4b565b61040d610841366004613ecb565b611e55565b610516610854366004614209565b611e70565b610516610867366004614219565b611ebe565b61051661087a366004613f95565b612049565b61040d61088d366004613f95565b61208b565b61089a608081565b60405161ffff9091168152602001610417565b600a54610599906001600160a01b031681565b61040d612175565b6105166108d636600461429b565b612181565b61040d6108e9366004613f95565b6122e2565b61040d6108fc366004613f20565b6123d7565b61097161090f366004613f95565b60408051606080820183525f80835260208084018290529284018190526001600160a01b03948516815260098352839020835191820184525460ff80821615158352610100820416151592820192909252620100009091049092169082015290565b60408051825115158152602080840151151590820152918101516001600160a01b031690820152606001610417565b600c546104d390600160a01b900463ffffffff1681565b600c546001600160a01b0316610599565b6105166109d6366004614304565b612401565b6104d3633b9aca0081565b600d54610599906001600160a01b031681565b610516610a07366004613f95565b612443565b61040d612529565b6040516370a0823160e01b81523060048201525f907f00000000000000000000000000000000000000000000000000000000000000006001600160a01b0316906370a0823190602401602060405180830381865afa158015610a78573d5f803e3d5ffd5b505050506040513d601f19601f82011682018060405250810190610a9c919061431d565b6040516370a0823160e01b81523060048201527f00000000000000000000000000000000000000000000000000000000000000006001600160a01b0316906307a2d13a9082906370a08231906024015b602060405180830381865afa158015610b07573d5f803e3d5ffd5b505050506040513d601f19601f82011682018060405250810190610b2b919061431d565b6040518263ffffffff1660e01b8152600401610b4991815260200190565b602060405180830381865afa158015610b64573d5f803e3d5ffd5b505050506040513d601f19601f82011682018060405250810190610b88919061431d565b610b929190614348565b905090565b606060038054610ba69061435b565b80601f0160208091040260200160405190810160405280929190818152602001828054610bd29061435b565b8015610c1d5780601f10610bf457610100808354040283529160200191610c1d565b820191905f5260205f20905b815481529060010190602001808311610c0057829003601f168201915b5050505050905090565b5f610c4282610c34610a14565b610c3c612529565b5f612535565b92915050565b5f33610c55818585612557565b5060019392505050565b5f80610c69611478565b9050805f03610c8b5760405163f0bd6f1b60e01b815260040160405180910390fd5b610c9f8382610c98612529565b600161267b565b9392505050565b5f610b92610cb2611478565b610cba612529565b6126a8565b6040516339370aa960e21b81523060048201525f907f00000000000000000000000000000000000000000000000000000000000000006001600160a01b03169063e4dc2aa490602401602060405180830381865afa158015610d23573d5f803e3d5ffd5b505050506040513d601f19601f82011682018060405250810190610b92919061431d565b5f7f00000000000000000000000000000000000000000000000000000000000000006001600160a01b0316836001600160a01b03161480610d9057506001600160a01b03831630145b8015610c9f575050600f546001600160a01b03908116911614919050565b5f80610dc8610dbb611478565b610dc3612529565b6126f1565b90507f0000000000000000000000000000000000000000000000000000000000000000808210610df85792915050565b50919050565b5f33610e0b858285612709565b610e16858585612781565b506001949350505050565b33610e34600b546001600160a01b031690565b6001600160a01b031614610e635760405162461bcd60e51b8152600401610e5a9061438d565b60405180910390fd5b6001600160a01b038116610e8a57604051630ac5b1f760e11b815260040160405180910390fd5b600f80546001600160a01b0319166001600160a01b03831690811790915560405130907fb540015bf51edcbfd9e43df5316486615bf954f7b4c6cc0304eb3757f1601f95905f90a350565b600a545f906001600160a01b03163314610f1357600a54604051637f4b239760e11b8152610e5a9133916001600160a01b03909116906004016143c4565b6001600160a01b0386165f9081526009602052604081205460609060ff161561102e576001600160a01b038881165f81815260096020526040808220549051602481019390935260ff8b16604484015263ffffffff8a1660648401526001600160601b038916608484015287841660a484015290928392610fdc926201000090049091169063b4db727f60e01b9060c4015b60408051601f198184030181529190526020810180516001600160e01b03166001600160e01b03199093169290921790915261286b565b9092509050608081111561100d5760405163756d9e2960e01b81526004810182905260806024820152604401610e5a565b8180602001905181019061102191906143f2565b9094509250611032915050565b8791505b6001600160a01b0382166110595760405163e1c2596f60e01b815260040160405180910390fd5b6040516311e7375f60e21b81526001600160a01b03898116600483015260ff8916602483015263ffffffff8816604483015283811660648301526001600160601b038716608483015285811660a48301525f917f00000000000000000000000000000000000000000000000000000000000000009091169063479cdd7c9060c4016020604051808303815f875af11580156110f6573d5f803e3d5ffd5b505050506040513d601f19601f8201168201806040525081019061111a919061431d565b6001600160a01b038a165f90815260096020526040902054909150610100900460ff161561119f576001600160a01b03808a165f9081526009602052604090205461119c91620100009091041663d44c6da360e01b8b8b8b6111856001600160601b038d16886144b0565b8989604051602401610fa5969594939291906144c3565b50505b98975050505050505050565b600d546001600160a01b031633146111e757600d54604051630e69d0db60e11b8152610e5a9133916001600160a01b03909116906004016143c4565b805f036112075760405163b31accb760e01b815260040160405180910390fd5b600e5481111561123857600e546040516304ed794960e21b8152610e5a918391600401918252602082015260400190565b80600e5f82825461124991906144b0565b90915550611259905033826128d1565b60405181815233907f9b51aebdd88b3f321397bdf9848415ce15dedd1783c775b93b8036c6b0af0f56906020015b60405180910390a250565b5f610b926129b1565b5f33610c558185856112ad83836123d7565b6112b79190614348565b612557565b5f806112c6612529565b90505f806112d2612ada565b91509150811580611316575061130960027f000000000000000000000000000000000000000000000000000000000000000061451e565b6113139084614348565b81105b1561132557505f949350505050565b6040516370a0823160e01b81523060048201525f907f00000000000000000000000000000000000000000000000000000000000000006001600160a01b0316906370a0823190602401602060405180830381865afa158015611389573d5f803e3d5ffd5b505050506040513d601f19601f820116820180604052508101906113ad919061431d565b60405163402d267d60e01b81523060048201529091505f906001600160a01b037f0000000000000000000000000000000000000000000000000000000000000000169063402d267d90602401602060405180830381865afa158015611414573d5f803e3d5ffd5b505050506040513d601f19601f82011682018060405250810190611438919061431d565b905080821061144d57505f9695505050505050565b5f61145786612b4c565b9050828203808210611469578061146b565b815b9998505050505050505050565b6040516370a0823160e01b81523060048201525f907f00000000000000000000000000000000000000000000000000000000000000006001600160a01b0316906370a0823190602401602060405180830381865afa1580156114dc573d5f803e3d5ffd5b505050506040513d601f19601f82011682018060405250810190611500919061431d565b6040516370a0823160e01b81523060048201527f00000000000000000000000000000000000000000000000000000000000000006001600160a01b031690634cdad5069082906370a0823190602401610aec565b5f610c4282610c34611478565b600c546001600160a01b031633146115bb5760405162461bcd60e51b815260206004820152601f60248201527f4f776e61626c652f63616c6c65722d6e6f742d70656e64696e674f776e6572006044820152606401610e5a565b600c546115d0906001600160a01b0316612b5e565b600c80546001600160a01b0319169055565b5f6001600160a01b03861633146116105733866040516358fe888560e01b8152600401610e5a9291906143c4565b604051636eb1769f60e11b815287906001600160a01b037f0000000000000000000000000000000000000000000000000000000000000000169063dd62ed3e90611660908a9030906004016143c4565b602060405180830381865afa15801561167b573d5f803e3d5ffd5b505050506040513d601f19601f8201168201806040525081019061169f919061431d565b146117465760405163d505accf60e01b81526001600160a01b038781166004830152306024830152604482018990526064820187905260ff8616608483015260a4820185905260c482018490527f0000000000000000000000000000000000000000000000000000000000000000169063d505accf9060e4015f604051808303815f87803b15801561172f575f80fd5b505af1158015611741573d5f803e3d5ffd5b505050505b8661175387808380612baf565b979650505050505050565b33611771600b546001600160a01b031690565b6001600160a01b0316146117975760405162461bcd60e51b8152600401610e5a9061438d565b6117a081612ee7565b50565b5f82610c9f33848380612baf565b604051633de222bb60e21b81525f906001600160a01b037f0000000000000000000000000000000000000000000000000000000000000000169063f7888aec9061180190309086906004016143c4565b602060405180830381865afa15801561181c573d5f803e3d5ffd5b505050506040513d601f19601f82011682018060405250810190610c42919061431d565b33611853600b546001600160a01b031690565b6001600160a01b0316146118795760405162461bcd60e51b8152600401610e5a9061438d565b6118825f612b5e565b565b600f546060906001600160a01b031633146118c357600f546040516317140eff60e11b8152610e5a9133916001600160a01b03909116906004016143c4565b815f036118e357604051634750846560e11b815260040160405180910390fd5b5f6118ec612529565b90505f6119006118fa611478565b836126a8565b600c54909150600160a01b900463ffffffff165f8115611954578561192983633b9aca0061453d565b63ffffffff1661193d633b9aca0089614561565b611947919061451e565b61195191906144b0565b90505b8261195f8288614348565b11156119935761196f8187614348565b6040516374281bbb60e11b8152600481019190915260248101849052604401610e5a565b80156119ab5780600e546119a79190614348565b600e555b7f00000000000000000000000000000000000000000000000000000000000000006001600160a01b0316876001600160a01b0316036119fd576119ee8482612f30565b6119f88887612f66565b611a4e565b306001600160a01b03881603611a2a57611a2084611a1b8389614348565b612f30565b6119f888876128d1565b6040516304bc290f60e51b81526001600160a01b0388166004820152602401610e5a565b60408051878152602081018390526001600160a01b03808b1692908a169133917f64d8a6bd56c2c610cd5d2ed87ba4bde3659df2650c7ad8aabde397decf94e07d910160405180910390a460405180602001604052805f8152509450505050505b949350505050565b6001600160a01b0381165f90815260076020526040812054610c42565b5f60608082808083611b077f0000000000000000000000000000000000000000000000000000000000000000600561316e565b611b327f0000000000000000000000000000000000000000000000000000000000000000600661316e565b604080515f80825260208201909252600f60f81b9b939a50919850469750309650945092509050565b606060048054610ba69061435b565b5f80611b7586611554565b905082811015611ba157604051629af28160e41b81526004810182905260248101849052604401610e5a565b611bae3386868985613217565b95945050505050565b5f80611bc286610c5f565b905082811115611bef5760405163654df34d60e01b81526004810182905260248101849052604401610e5a565b611bae338686848a613217565b5f3381611c0982866123d7565b905083811015611c695760405162461bcd60e51b815260206004820152602560248201527f45524332303a2064656372656173656420616c6c6f77616e63652062656c6f77604482015264207a65726f60d81b6064820152608401610e5a565b610e168286868403612557565b5f33610c55818585612781565b5f80611c8d612529565b600c54909150600160a01b900463ffffffff165f306001600160a01b03861603611cc157611cba83612b4c565b9050611dd3565b7f00000000000000000000000000000000000000000000000000000000000000006001600160a01b0316856001600160a01b031603611dc9576040516370a0823160e01b81523060048201527f00000000000000000000000000000000000000000000000000000000000000006001600160a01b0316906370a0823190602401602060405180830381865afa158015611d5c573d5f803e3d5ffd5b505050506040513d601f19601f82011682018060405250810190611d80919061431d565b611d886132f6565b611d929190614348565b90508115611dc4575f611db4633b9aca0084611dad87612b4c565b91906133eb565b905081811015611dc2578091505b505b611dd3565b505f949350505050565b5f611de5611ddf611478565b856126a8565b90505f82821015611df65781611df8565b825b9050611753611e0b85633b9aca006144b0565b8290633b9aca006133eb565b5f80611e2285610c5f565b9050611aaf3385858489613217565b5f80611e3c85611554565b9050611aaf3385858885613217565b5f610c42826112bc565b5f610c4282611e62610a14565b611e6a612529565b5f61267b565b335f9081526009602052604090208190611e8a8282614585565b505060405133907f5eaf51436f308830fc57b00bb6843675b383bce9b2c669e1b9ce60de8bbb9e8e906112879084906145ff565b600f546001600160a01b03163314611efa57600f546040516317140eff60e11b8152610e5a9133916001600160a01b03909116906004016143c4565b5f7f00000000000000000000000000000000000000000000000000000000000000006001600160a01b031663d0ef024a6040518163ffffffff1660e01b8152600401602060405180830381865afa158015611f57573d5f803e3d5ffd5b505050506040513d601f19601f82011682018060405250810190611f7b919061464d565b9050806001600160a01b0316856001600160a01b031614611fb3578481604051630c0760c160e21b8152600401610e5a9291906143c4565b604051630eedfb4560e41b8152306004820152602481018590527f00000000000000000000000000000000000000000000000000000000000000006001600160a01b03169063eedfb450906044016020604051808303815f875af115801561201d573d5f803e3d5ffd5b505050506040513d601f19601f82011682018060405250810190612041919061431d565b505050505050565b3361205c600b546001600160a01b031690565b6001600160a01b0316146120825760405162461bcd60e51b8152600401610e5a9061438d565b6117a0816134d0565b5f805f612096612ada565b91509150816120a857505f9392505050565b6040516370a0823160e01b81523060048201525f907f00000000000000000000000000000000000000000000000000000000000000006001600160a01b0316906370a0823190602401602060405180830381865afa15801561210c573d5f803e3d5ffd5b505050506040513d601f19601f82011682018060405250810190612130919061431d565b6121386132f6565b6121429190614348565b90505f61215a612151876117b1565b84610c3c612529565b9050818110612169578161216b565b805b9695505050505050565b5f610b92610dbb611478565b834211156121d15760405162461bcd60e51b815260206004820152601d60248201527f45524332305065726d69743a206578706972656420646561646c696e650000006044820152606401610e5a565b5f7f6e71edae12b1b97f4d1f60370fef10105fa2faae0126114a169c64845d6126c98888886121ff8c613540565b6040805160208101969096526001600160a01b0394851690860152929091166060840152608083015260a082015260c0810186905260e0016040516020818303038152906040528051906020012090505f61225982613565565b90505f61226882878787613591565b9050896001600160a01b0316816001600160a01b0316146122cb5760405162461bcd60e51b815260206004820152601e60248201527f45524332305065726d69743a20696e76616c6964207369676e617475726500006044820152606401610e5a565b6122d68a8a8a612557565b50505050505050505050565b5f805f6122ed612ada565b91509150816122ff57505f9392505050565b6040516370a0823160e01b81523060048201525f907f00000000000000000000000000000000000000000000000000000000000000006001600160a01b0316906370a0823190602401602060405180830381865afa158015612363573d5f803e3d5ffd5b505050506040513d601f19601f82011682018060405250810190612387919061431d565b61238f6132f6565b6123999190614348565b90505f6123a5866117b1565b905081811115612169575f6123bd8385610c98612529565b9050818110156123cd5780611753565b5095945050505050565b6001600160a01b039182165f90815260016020908152604080832093909416825291909152205490565b33612414600b546001600160a01b031690565b6001600160a01b03161461243a5760405162461bcd60e51b8152600401610e5a9061438d565b6117a0816135ad565b33612456600b546001600160a01b031690565b6001600160a01b03161461247c5760405162461bcd60e51b8152600401610e5a9061438d565b6001600160a01b0381166124e05760405162461bcd60e51b815260206004820152602560248201527f4f776e61626c652f70656e64696e674f776e65722d6e6f742d7a65726f2d6164604482015264647265737360d81b6064820152608401610e5a565b600c80546001600160a01b0319166001600160a01b0383169081179091556040517f239a2ddded15777fa246aed5f7e1a9bc69a39d4eb4a397034d1d85766cca7d4c905f90a250565b5f600e54610b88610cbf565b5f828410612544575083611aaf565b61255085858585613644565b9050611aaf565b6001600160a01b0383166125b95760405162461bcd60e51b8152602060048201526024808201527f45524332303a20617070726f76652066726f6d20746865207a65726f206164646044820152637265737360e01b6064820152608401610e5a565b6001600160a01b03821661261a5760405162461bcd60e51b815260206004820152602260248201527f45524332303a20617070726f766520746f20746865207a65726f206164647265604482015261737360f01b6064820152608401610e5a565b6001600160a01b038381165f8181526001602090815260408083209487168084529482529182902085905590518481527f8c5be1e5ebec7d5bd14f71427d1e84f3dd0314c0f7b2291e5b200ac8c7c3b92591015b60405180910390a3505050565b5f82841061268a575083611aaf565b83156126a15761269c85848685613644565b612550565b505f611aaf565b5f806126b484846126f1565b90507f00000000000000000000000000000000000000000000000000000000000000008082106126e75790039050610c42565b5f92505050610c42565b5f82821061270057505f610c42565b50808203610c42565b5f61271484846123d7565b90505f19811461277b578181101561276e5760405162461bcd60e51b815260206004820152601d60248201527f45524332303a20696e73756666696369656e7420616c6c6f77616e63650000006044820152606401610e5a565b61277b8484848403612557565b50505050565b7f00000000000000000000000000000000000000000000000000000000000000006001600160a01b031663c661667d84846127bb85613693565b6040516001600160e01b031960e086901b1681526001600160a01b0393841660048201529290911660248301526001600160601b031660448201526064015f604051808303815f87803b158015612810575f80fd5b505af1158015612822573d5f803e3d5ffd5b50505050816001600160a01b0316836001600160a01b03167fddf252ad1be2c89b69c2b068fc378daa952ba7f163c4a11628f55a4df523b3ef8360405161266e91815260200190565b60605f806128896001600160a01b038616620249f0836080886136fe565b93503d92509050806128c95760808211156128c15760405163756d9e2960e01b81526004810183905260806024820152604401610e5a565b825183602001fd5b509250929050565b7f00000000000000000000000000000000000000000000000000000000000000006001600160a01b0316631b025a408361290a84613693565b6040516001600160e01b031960e085901b1681526001600160a01b0390921660048301526001600160601b031660248201526044015f604051808303815f87803b158015612956575f80fd5b505af1158015612968573d5f803e3d5ffd5b50506040518381526001600160a01b03851692505f91507fddf252ad1be2c89b69c2b068fc378daa952ba7f163c4a11628f55a4df523b3ef906020015b60405180910390a35050565b5f306001600160a01b037f000000000000000000000000000000000000000000000000000000000000000016148015612a0957507f000000000000000000000000000000000000000000000000000000000000000046145b15612a3357507f000000000000000000000000000000000000000000000000000000000000000090565b610b92604080517f8b73c3c69bb8fe3d512ecc4cf759cc79239f7b179b0ffacaa9a75d522b39400f60208201527f0000000000000000000000000000000000000000000000000000000000000000918101919091527f000000000000000000000000000000000000000000000000000000000000000060608201524660808201523060a08201525f9060c00160405160208183030381529060405280519060200120905090565b5f80306001600160a01b0316634244aa9b6040518163ffffffff1660e01b8152600401602060405180830381865afa925050508015612b36575060408051601f3d908101601f19168201909252612b339181019061431d565b60015b612b4257505f90508091565b6001925090509091565b5f610c42826001600160601b036144b0565b600b80546001600160a01b038381166001600160a01b0319831681179093556040519116919082907f8be0079c531659141344cd1fd0a4f28419497f9722a3daafe3b4186f6b6457e0905f90a35050565b805f03612bcf5760405163b31accb760e01b815260040160405180910390fd5b815f03612bef5760405163f0f4d07b60e01b815260040160405180910390fd5b612c246001600160a01b037f000000000000000000000000000000000000000000000000000000000000000016853085613784565b6040516370a0823160e01b81523060048201525f907f00000000000000000000000000000000000000000000000000000000000000006001600160a01b0316906370a0823190602401602060405180830381865afa158015612c88573d5f803e3d5ffd5b505050506040513d601f19601f82011682018060405250810190612cac919061431d565b9050612d026001600160a01b037f0000000000000000000000000000000000000000000000000000000000000000167f0000000000000000000000000000000000000000000000000000000000000000836137ef565b60405163ef8b30f760e01b8152600481018290525f907f00000000000000000000000000000000000000000000000000000000000000006001600160a01b03169063ef8b30f790602401602060405180830381865afa158015612d67573d5f803e3d5ffd5b505050506040513d601f19601f82011682018060405250810190612d8b919061431d565b6040516394bf804d60e01b8152600481018290523060248201529091507f00000000000000000000000000000000000000000000000000000000000000006001600160a01b0316906394bf804d906044016020604051808303815f875af1158015612df8573d5f803e3d5ffd5b505050506040513d601f19601f82011682018060405250810190612e1c919061431d565b505f612e26612529565b9050612e328185612f30565b612e3c8482614348565b612e44611478565b1015612e7e57612e52611478565b612e5c8583614348565b6040516315c5982d60e11b815260048101929092526024820152604401610e5a565b612e8886856128d1565b856001600160a01b0316876001600160a01b03167fdcbc1c05240f31ff3ad067ef1ee35ce4997762752e3a095284754544f4c709d78787604051612ed6929190918252602082015260400190565b60405180910390a350505050505050565b600d80546001600160a01b0319166001600160a01b0383169081179091556040517f5d55a9f17ebec95846f4d400ad862a51f9564a7973f6622d3c99a34feb6a0aec905f90a250565b5f612f3a83612b4c565b905080821115612f6157604051637e0311c360e11b81528183036004820152602401610e5a565b505050565b6040516370a0823160e01b81523060048201525f907f00000000000000000000000000000000000000000000000000000000000000006001600160a01b0316906370a0823190602401602060405180830381865afa158015612fca573d5f803e3d5ffd5b505050506040513d601f19601f82011682018060405250810190612fee919061431d565b90508082111561312a575f6001600160a01b037f000000000000000000000000000000000000000000000000000000000000000016630a28a47761303284866144b0565b6040518263ffffffff1660e01b815260040161305091815260200190565b602060405180830381865afa15801561306b573d5f803e3d5ffd5b505050506040513d601f19601f8201168201806040525081019061308f919061431d565b604051635d043b2960e11b815260048101829052306024820181905260448201529091507f00000000000000000000000000000000000000000000000000000000000000006001600160a01b03169063ba087652906064016020604051808303815f875af1158015613103573d5f803e3d5ffd5b505050506040513d601f19601f82011682018060405250810190613127919061431d565b50505b6001600160a01b0383163014612f6157612f616001600160a01b037f000000000000000000000000000000000000000000000000000000000000000016848461387d565b606060ff831461318857613181836138ad565b9050610c42565b8180546131949061435b565b80601f01602080910402602001604051908101604052809291908181526020018280546131c09061435b565b801561320b5780601f106131e25761010080835404028352916020019161320b565b820191905f5260205f20905b8154815290600101906020018083116131ee57829003601f168201915b50505050509050610c42565b805f036132375760405163f3c41a2b60e01b815260040160405180910390fd5b815f0361325757604051632f73c6c360e11b815260040160405180910390fd5b826001600160a01b0316856001600160a01b03161461327b5761327b838684612709565b61328583836138ea565b61328f8482612f66565b826001600160a01b0316846001600160a01b0316866001600160a01b03167ffbde797d201c681b91056529119e0b02407c7bb96a4a2c75c01fc9667232c8db84866040516132e7929190918252602082015260400190565b60405180910390a45050505050565b604051636c82bbbf60e11b81523060048201525f907f00000000000000000000000000000000000000000000000000000000000000006001600160a01b031690634cdad50690829063d905777e90602401602060405180830381865afa158015613362573d5f803e3d5ffd5b505050506040513d601f19601f82011682018060405250810190613386919061431d565b6040518263ffffffff1660e01b81526004016133a491815260200190565b602060405180830381865afa9250505080156133dd575060408051601f3d908101601f191682019092526133da9181019061431d565b60015b6133e657505f90565b919050565b5f80805f19858709858702925082811083820303915050805f03613422578382816134185761341861450a565b0492505050610c9f565b8084116134695760405162461bcd60e51b81526020600482015260156024820152744d6174683a206d756c446976206f766572666c6f7760581b6044820152606401610e5a565b5f8486880960026001871981018816978890046003810283188082028403028082028403028082028403028082028403028082028403029081029092039091025f889003889004909101858311909403939093029303949094049190911702949350505050565b6001600160a01b0381166134f757604051634d9808e160e11b815260040160405180910390fd5b600a80546001600160a01b0319166001600160a01b0383169081179091556040517fa04eca05f1c4f5674beaad80f345070124aa2192abced410b9b227c0c04e755a905f90a250565b6001600160a01b0381165f908152600760205260409020805460018101825590610df8565b5f610c426135716129b1565b8360405161190160f01b8152600281019290925260228201526042902090565b5f805f6135a0878787876139c2565b915091506123cd81613a7f565b6335a4e90063ffffffff821611156135ea57604051637bcc613b60e01b815263ffffffff821660048201526335a4e9006024820152604401610e5a565b600c805463ffffffff60a01b1916600160a01b63ffffffff8416908102919091179091556040519081527fefb99600b8c2baadc10ee4fe77c625b379acb4c29fbb0b90a5f17652d7de03419060200160405180910390a150565b5f806136518686866133eb565b9050600183600281111561366757613667614668565b14801561368357505f848061367e5761367e61450a565b868809115b15611bae5761216b600182614348565b5f6001600160601b038211156136fa5760405162461bcd60e51b815260206004820152602660248201527f53616665436173743a2076616c756520646f65736e27742066697420696e203960448201526536206269747360d01b6064820152608401610e5a565b5090565b5f60605f805f8661ffff1667ffffffffffffffff811115613721576137216143de565b6040519080825280601f01601f19166020018201604052801561374b576020820181803683370190505b5090505f808751602089018b8e8ef191503d92508683111561376b578692505b828152825f602083013e90999098509650505050505050565b6040516001600160a01b038085166024830152831660448201526064810182905261277b9085906323b872dd60e01b906084015b60408051601f198184030181529190526020810180516001600160e01b03166001600160e01b031990931692909217909152613bc8565b604080516001600160a01b038416602482015260448082018490528251808303909101815260649091019091526020810180516001600160e01b031663095ea7b360e01b1790526138408482613c9b565b61277b576040516001600160a01b03841660248201525f604482015261387390859063095ea7b360e01b906064016137b8565b61277b8482613bc8565b6040516001600160a01b038316602482015260448101829052612f6190849063a9059cbb60e01b906064016137b8565b60605f6138b983613d38565b6040805160208082528183019092529192505f91906020820181803683375050509182525060208101929092525090565b7f00000000000000000000000000000000000000000000000000000000000000006001600160a01b0316638df2c8e68361392384613693565b6040516001600160e01b031960e085901b1681526001600160a01b0390921660048301526001600160601b031660248201526044015f604051808303815f87803b15801561396f575f80fd5b505af1158015613981573d5f803e3d5ffd5b50506040518381525f92506001600160a01b03851691507fddf252ad1be2c89b69c2b068fc378daa952ba7f163c4a11628f55a4df523b3ef906020016129a5565b5f807f7fffffffffffffffffffffffffffffff5d576e7357a4501ddfe92f46681b20a08311156139f757505f90506003613a76565b604080515f8082526020820180845289905260ff881692820192909252606081018690526080810185905260019060a0016020604051602081039080840390855afa158015613a48573d5f803e3d5ffd5b5050604051601f1901519150506001600160a01b038116613a70575f60019250925050613a76565b91505f90505b94509492505050565b5f816004811115613a9257613a92614668565b03613a9a5750565b6001816004811115613aae57613aae614668565b03613afb5760405162461bcd60e51b815260206004820152601860248201527f45434453413a20696e76616c6964207369676e617475726500000000000000006044820152606401610e5a565b6002816004811115613b0f57613b0f614668565b03613b5c5760405162461bcd60e51b815260206004820152601f60248201527f45434453413a20696e76616c6964207369676e6174757265206c656e677468006044820152606401610e5a565b6003816004811115613b7057613b70614668565b036117a05760405162461bcd60e51b815260206004820152602260248201527f45434453413a20696e76616c6964207369676e6174757265202773272076616c604482015261756560f01b6064820152608401610e5a565b5f613c1c826040518060400160405280602081526020017f5361666545524332303a206c6f772d6c6576656c2063616c6c206661696c6564815250856001600160a01b0316613d5f9092919063ffffffff16565b905080515f1480613c3c575080806020019051810190613c3c919061467c565b612f615760405162461bcd60e51b815260206004820152602a60248201527f5361666545524332303a204552433230206f7065726174696f6e20646964206e6044820152691bdd081cdd58d8d9595960b21b6064820152608401610e5a565b5f805f846001600160a01b031684604051613cb69190614697565b5f604051808303815f865af19150503d805f8114613cef576040519150601f19603f3d011682016040523d82523d5f602084013e613cf4565b606091505b5091509150818015613d1e575080511580613d1e575080806020019051810190613d1e919061467c565b8015611bae5750505050506001600160a01b03163b151590565b5f60ff8216601f811115610c4257604051632cd44ac360e21b815260040160405180910390fd5b6060611aaf84845f85855f80866001600160a01b03168587604051613d849190614697565b5f6040518083038185875af1925050503d805f8114613dbe576040519150601f19603f3d011682016040523d82523d5f602084013e613dc3565b606091505b50915091506117538783838760608315613e3d5782515f03613e36576001600160a01b0385163b613e365760405162461bcd60e51b815260206004820152601d60248201527f416464726573733a2063616c6c20746f206e6f6e2d636f6e74726163740000006044820152606401610e5a565b5081611aaf565b611aaf8383815115613e525781518083602001fd5b8060405162461bcd60e51b8152600401610e5a9190613eb9565b5f5b83811015613e86578181015183820152602001613e6e565b50505f910152565b5f8151808452613ea5816020860160208601613e6c565b601f01601f19169290920160200192915050565b602081525f610c9f6020830184613e8e565b5f60208284031215613edb575f80fd5b5035919050565b6001600160a01b03811681146117a0575f80fd5b5f8060408385031215613f07575f80fd5b8235613f1281613ee2565b946020939093013593505050565b5f8060408385031215613f31575f80fd5b8235613f3c81613ee2565b91506020830135613f4c81613ee2565b809150509250929050565b5f805f60608486031215613f69575f80fd5b8335613f7481613ee2565b92506020840135613f8481613ee2565b929592945050506040919091013590565b5f60208284031215613fa5575f80fd5b8135610c9f81613ee2565b803560ff811681146133e6575f80fd5b803563ffffffff811681146133e6575f80fd5b5f805f805f60a08688031215613fe7575f80fd5b8535613ff281613ee2565b945061400060208701613fb0565b935061400e60408701613fc0565b925060608601356001600160601b0381168114614029575f80fd5b9150608086013561403981613ee2565b809150509295509295909350565b5f805f805f8060c0878903121561405c575f80fd5b86359550602087013561406e81613ee2565b94506040870135935061408360608801613fb0565b92506080870135915060a087013590509295509295509295565b5f80604083850312156140ae575f80fd5b823591506020830135613f4c81613ee2565b5f805f80608085870312156140d3575f80fd5b84356140de81613ee2565b935060208501356140ee81613ee2565b925060408501356140fe81613ee2565b9396929550929360600135925050565b60ff60f81b881681525f602060e0602084015261412e60e084018a613e8e565b8381036040850152614140818a613e8e565b606085018990526001600160a01b038816608086015260a0850187905284810360c0860152855180825260208088019350909101905f5b8181101561419357835183529284019291840191600101614177565b50909c9b505050505050505050505050565b5f805f80608085870312156141b8575f80fd5b8435935060208501356140ee81613ee2565b5f805f606084860312156141dc575f80fd5b8335925060208401356141ee81613ee2565b915060408401356141fe81613ee2565b809150509250925092565b5f60608284031215610df8575f80fd5b5f805f806060858703121561422c575f80fd5b843561423781613ee2565b935060208501359250604085013567ffffffffffffffff8082111561425a575f80fd5b818701915087601f83011261426d575f80fd5b81358181111561427b575f80fd5b88602082850101111561428c575f80fd5b95989497505060200194505050565b5f805f805f805f60e0888a0312156142b1575f80fd5b87356142bc81613ee2565b965060208801356142cc81613ee2565b955060408801359450606088013593506142e860808901613fb0565b925060a0880135915060c0880135905092959891949750929550565b5f60208284031215614314575f80fd5b610c9f82613fc0565b5f6020828403121561432d575f80fd5b5051919050565b634e487b7160e01b5f52601160045260245ffd5b80820180821115610c4257610c42614334565b600181811c9082168061436f57607f821691505b602082108103610df857634e487b7160e01b5f52602260045260245ffd5b60208082526018908201527f4f776e61626c652f63616c6c65722d6e6f742d6f776e65720000000000000000604082015260600190565b6001600160a01b0392831681529116602082015260400190565b634e487b7160e01b5f52604160045260245ffd5b5f8060408385031215614403575f80fd5b825161440e81613ee2565b602084015190925067ffffffffffffffff8082111561442b575f80fd5b818501915085601f83011261443e575f80fd5b815181811115614450576144506143de565b604051601f8201601f19908116603f01168101908382118183101715614478576144786143de565b81604052828152886020848701011115614490575f80fd5b6144a1836020830160208801613e6c565b80955050505050509250929050565b81810381811115610c4257610c42614334565b6001600160a01b03878116825260ff8716602083015263ffffffff86166040830152606082018590528316608082015260c060a082018190525f9061119f90830184613e8e565b634e487b7160e01b5f52601260045260245ffd5b5f8261453857634e487b7160e01b5f52601260045260245ffd5b500490565b63ffffffff82811682821603908082111561455a5761455a614334565b5092915050565b8082028115828204841417610c4257610c42614334565b80151581146117a0575f80fd5b813561459081614578565b815460ff19811691151560ff16918217835560208401356145b081614578565b61ff0090151560081b1661ffff19821683178117845560408501356145d481613ee2565b6001600160b01b0319929092169092179190911760109190911b62010000600160b01b031617905550565b60608101823561460e81614578565b15158252602083013561462081614578565b15156020830152604083013561463581613ee2565b6001600160a01b031660409290920191909152919050565b5f6020828403121561465d575f80fd5b8151610c9f81613ee2565b634e487b7160e01b5f52602160045260245ffd5b5f6020828403121561468c575f80fd5b8151610c9f81614578565b5f82516146a8818460208701613e6c565b919091019291505056fea2646970667358221220190c371685f79b51e704ab25ce74b448cb07be40ca0bd069b0624f5592588a9b64736f6c63430008180033","linkReferences":{}},"methodIdentifiers":{"DOMAIN_SEPARATOR()":"3644e515","FEE_PRECISION()":"e63a391f","HOOK_GAS()":"4006522b","HOOK_RETURN_DATA_LIMIT()":"d30ae1b4","MAX_YIELD_FEE()":"1caa73cb","allowance(address,address)":"dd62ed3e","approve(address,uint256)":"095ea7b3","asset()":"38d52e0f","availableYieldBalance()":"0d1e5255","balanceOf(address)":"70a08231","claimOwnership()":"4e71e0c8","claimPrize(address,uint8,uint32,uint96,address)":"2895cace","claimYieldFeeShares(uint256)":"353d5a18","claimer()":"d379be23","convertToAssets(uint256)":"07a2d13a","convertToShares(uint256)":"c6e6f592","currentYieldBuffer()":"237fd108","decimals()":"313ce567","decreaseAllowance(address,uint256)":"a457c2d7","deposit(uint256,address)":"6e553f65","depositWithPermit(uint256,address,uint256,uint8,bytes32,bytes32)":"50921b23","eip712Domain()":"84b0196e","getHooks(address)":"de03f408","increaseAllowance(address,uint256)":"39509351","isLiquidationPair(address,address)":"1b571924","liquidatableBalanceOf(address)":"b0fcf626","liquidationPair()":"649f2394","maxDeposit(address)":"402d267d","maxMint(address)":"c63d75b6","maxRedeem(address)":"d905777e","maxWithdraw(address)":"ce96cb77","mint(uint256,address)":"94bf804d","name()":"06fdde03","nonces(address)":"7ecebe00","owner()":"8da5cb5b","pendingOwner()":"e30c3978","permit(address,address,uint256,uint256,uint8,bytes32,bytes32)":"d505accf","previewDeposit(uint256)":"ef8b30f7","previewMint(uint256)":"b3d7f6b9","previewRedeem(uint256)":"4cdad506","previewWithdraw(uint256)":"0a28a477","prizePool()":"719ce73e","redeem(uint256,address,address)":"ba087652","redeem(uint256,address,address,uint256)":"9f40a7b3","renounceOwnership()":"715018a6","setClaimer(address)":"cdfb5832","setHooks((bool,bool,address))":"c78c72c1","setLiquidationPair(address)":"25fa66e0","setYieldFeePercentage(uint32)":"e4e243ac","setYieldFeeRecipient(address)":"63003b16","symbol()":"95d89b41","targetOf(address)":"700f04ef","totalAssets()":"01e1d114","totalDebt()":"fc7b9c18","totalPreciseAssets()":"4244aa9b","totalSupply()":"18160ddd","totalYieldBalance()":"d4122abf","transfer(address,uint256)":"a9059cbb","transferFrom(address,address,uint256)":"23b872dd","transferOwnership(address)":"f2fde38b","transferTokensOut(address,address,address,uint256)":"7cc99d3f","twabController()":"b0812d7b","verifyTokensIn(address,uint256,bytes)":"c8576e61","withdraw(uint256,address,address)":"b460af94","withdraw(uint256,address,address,uint256)":"a318c1a4","yieldBuffer()":"13dc6c5d","yieldFeeBalance()":"9a1adf9a","yieldFeePercentage()":"e16777c1","yieldFeeRecipient()":"edb8eb80","yieldVault()":"a7f8a5e2"},"id":155}