{"abi":[{"type":"constructor","inputs":[{"name":"params","type":"tuple","internalType":"struct ConstructorParams","components":[{"name":"prizeToken","type":"address","internalType":"contract IERC20"},{"name":"twabController","type":"address","internalType":"contract TwabController"},{"name":"creator","type":"address","internalType":"address"},{"name":"tierLiquidityUtilizationRate","type":"uint256","internalType":"uint256"},{"name":"drawPeriodSeconds","type":"uint48","internalType":"uint48"},{"name":"firstDrawOpensAt","type":"uint48","internalType":"uint48"},{"name":"grandPrizePeriodDraws","type":"uint24","internalType":"uint24"},{"name":"numberOfTiers","type":"uint8","internalType":"uint8"},{"name":"tierShares","type":"uint8","internalType":"uint8"},{"name":"canaryShares","type":"uint8","internalType":"uint8"},{"name":"reserveShares","type":"uint8","internalType":"uint8"},{"name":"drawTimeout","type":"uint24","internalType":"uint24"}]}],"stateMutability":"nonpayable"},{"type":"function","name":"DONATOR","inputs":[],"outputs":[{"name":"","type":"address","internalType":"address"}],"stateMutability":"view"},{"type":"function","name":"accountedBalance","inputs":[],"outputs":[{"name":"","type":"uint256","internalType":"uint256"}],"stateMutability":"view"},{"type":"function","name":"allocateRewardFromReserve","inputs":[{"name":"_to","type":"address","internalType":"address"},{"name":"_amount","type":"uint96","internalType":"uint96"}],"outputs":[],"stateMutability":"nonpayable"},{"type":"function","name":"awardDraw","inputs":[{"name":"winningRandomNumber_","type":"uint256","internalType":"uint256"}],"outputs":[{"name":"","type":"uint24","internalType":"uint24"}],"stateMutability":"nonpayable"},{"type":"function","name":"canaryShares","inputs":[],"outputs":[{"name":"","type":"uint8","internalType":"uint8"}],"stateMutability":"view"},{"type":"function","name":"claimCount","inputs":[],"outputs":[{"name":"","type":"uint24","internalType":"uint24"}],"stateMutability":"view"},{"type":"function","name":"claimPrize","inputs":[{"name":"_winner","type":"address","internalType":"address"},{"name":"_tier","type":"uint8","internalType":"uint8"},{"name":"_prizeIndex","type":"uint32","internalType":"uint32"},{"name":"_prizeRecipient","type":"address","internalType":"address"},{"name":"_claimReward","type":"uint96","internalType":"uint96"},{"name":"_claimRewardRecipient","type":"address","internalType":"address"}],"outputs":[{"name":"","type":"uint256","internalType":"uint256"}],"stateMutability":"nonpayable"},{"type":"function","name":"computeNextNumberOfTiers","inputs":[{"name":"_claimCount","type":"uint32","internalType":"uint32"}],"outputs":[{"name":"","type":"uint8","internalType":"uint8"}],"stateMutability":"view"},{"type":"function","name":"computeRangeStartDrawIdInclusive","inputs":[{"name":"_endDrawIdInclusive","type":"uint24","internalType":"uint24"},{"name":"_rangeSize","type":"uint24","internalType":"uint24"}],"outputs":[{"name":"","type":"uint24","internalType":"uint24"}],"stateMutability":"pure"},{"type":"function","name":"computeShutdownPortion","inputs":[{"name":"_vault","type":"address","internalType":"address"},{"name":"_account","type":"address","internalType":"address"}],"outputs":[{"name":"","type":"uint256","internalType":"UD60x18"}],"stateMutability":"view"},{"type":"function","name":"computeTotalShares","inputs":[{"name":"_numberOfTiers","type":"uint8","internalType":"uint8"}],"outputs":[{"name":"","type":"uint256","internalType":"uint256"}],"stateMutability":"view"},{"type":"function","name":"contributePrizeTokens","inputs":[{"name":"_prizeVault","type":"address","internalType":"address"},{"name":"_amount","type":"uint256","internalType":"uint256"}],"outputs":[{"name":"","type":"uint256","internalType":"uint256"}],"stateMutability":"nonpayable"},{"type":"function","name":"contributeReserve","inputs":[{"name":"_amount","type":"uint96","internalType":"uint96"}],"outputs":[],"stateMutability":"nonpayable"},{"type":"function","name":"donatePrizeTokens","inputs":[{"name":"_amount","type":"uint256","internalType":"uint256"}],"outputs":[],"stateMutability":"nonpayable"},{"type":"function","name":"drawClosesAt","inputs":[{"name":"drawId","type":"uint24","internalType":"uint24"}],"outputs":[{"name":"","type":"uint48","internalType":"uint48"}],"stateMutability":"view"},{"type":"function","name":"drawManager","inputs":[],"outputs":[{"name":"","type":"address","internalType":"address"}],"stateMutability":"view"},{"type":"function","name":"drawOpensAt","inputs":[{"name":"drawId","type":"uint24","internalType":"uint24"}],"outputs":[{"name":"","type":"uint48","internalType":"uint48"}],"stateMutability":"view"},{"type":"function","name":"drawPeriodSeconds","inputs":[],"outputs":[{"name":"","type":"uint48","internalType":"uint48"}],"stateMutability":"view"},{"type":"function","name":"drawTimeout","inputs":[],"outputs":[{"name":"","type":"uint24","internalType":"uint24"}],"stateMutability":"view"},{"type":"function","name":"drawTimeoutAt","inputs":[],"outputs":[{"name":"","type":"uint256","internalType":"uint256"}],"stateMutability":"view"},{"type":"function","name":"estimateNextNumberOfTiers","inputs":[],"outputs":[{"name":"","type":"uint8","internalType":"uint8"}],"stateMutability":"view"},{"type":"function","name":"estimatedPrizeCount","inputs":[{"name":"numTiers","type":"uint8","internalType":"uint8"}],"outputs":[{"name":"","type":"uint32","internalType":"uint32"}],"stateMutability":"view"},{"type":"function","name":"estimatedPrizeCount","inputs":[],"outputs":[{"name":"","type":"uint32","internalType":"uint32"}],"stateMutability":"view"},{"type":"function","name":"estimatedPrizeCountWithBothCanaries","inputs":[{"name":"numTiers","type":"uint8","internalType":"uint8"}],"outputs":[{"name":"","type":"uint32","internalType":"uint32"}],"stateMutability":"view"},{"type":"function","name":"estimatedPrizeCountWithBothCanaries","inputs":[],"outputs":[{"name":"","type":"uint32","internalType":"uint32"}],"stateMutability":"view"},{"type":"function","name":"firstDrawOpensAt","inputs":[],"outputs":[{"name":"","type":"uint48","internalType":"uint48"}],"stateMutability":"view"},{"type":"function","name":"getContributedBetween","inputs":[{"name":"_vault","type":"address","internalType":"address"},{"name":"_startDrawIdInclusive","type":"uint24","internalType":"uint24"},{"name":"_endDrawIdInclusive","type":"uint24","internalType":"uint24"}],"outputs":[{"name":"","type":"uint256","internalType":"uint256"}],"stateMutability":"view"},{"type":"function","name":"getDonatedBetween","inputs":[{"name":"_startDrawIdInclusive","type":"uint24","internalType":"uint24"},{"name":"_endDrawIdInclusive","type":"uint24","internalType":"uint24"}],"outputs":[{"name":"","type":"uint256","internalType":"uint256"}],"stateMutability":"view"},{"type":"function","name":"getDrawId","inputs":[{"name":"_timestamp","type":"uint256","internalType":"uint256"}],"outputs":[{"name":"","type":"uint24","internalType":"uint24"}],"stateMutability":"view"},{"type":"function","name":"getDrawIdToAward","inputs":[],"outputs":[{"name":"","type":"uint24","internalType":"uint24"}],"stateMutability":"view"},{"type":"function","name":"getLastAwardedDrawId","inputs":[],"outputs":[{"name":"","type":"uint24","internalType":"uint24"}],"stateMutability":"view"},{"type":"function","name":"getOpenDrawId","inputs":[],"outputs":[{"name":"","type":"uint24","internalType":"uint24"}],"stateMutability":"view"},{"type":"function","name":"getShutdownDrawId","inputs":[],"outputs":[{"name":"","type":"uint24","internalType":"uint24"}],"stateMutability":"view"},{"type":"function","name":"getShutdownInfo","inputs":[],"outputs":[{"name":"balance","type":"uint256","internalType":"uint256"},{"name":"observation","type":"tuple","internalType":"struct Observation","components":[{"name":"available","type":"uint96","internalType":"uint96"},{"name":"disbursed","type":"uint160","internalType":"uint160"}]}],"stateMutability":"nonpayable"},{"type":"function","name":"getTierAccrualDurationInDraws","inputs":[{"name":"_tier","type":"uint8","internalType":"uint8"}],"outputs":[{"name":"","type":"uint24","internalType":"uint24"}],"stateMutability":"view"},{"type":"function","name":"getTierOdds","inputs":[{"name":"_tier","type":"uint8","internalType":"uint8"},{"name":"_numTiers","type":"uint8","internalType":"uint8"}],"outputs":[{"name":"","type":"int256","internalType":"SD59x18"}],"stateMutability":"view"},{"type":"function","name":"getTierPrizeCount","inputs":[{"name":"_tier","type":"uint8","internalType":"uint8"}],"outputs":[{"name":"","type":"uint32","internalType":"uint32"}],"stateMutability":"pure"},{"type":"function","name":"getTierPrizeSize","inputs":[{"name":"_tier","type":"uint8","internalType":"uint8"}],"outputs":[{"name":"","type":"uint104","internalType":"uint104"}],"stateMutability":"view"},{"type":"function","name":"getTierRemainingLiquidity","inputs":[{"name":"_tier","type":"uint8","internalType":"uint8"}],"outputs":[{"name":"","type":"uint256","internalType":"uint256"}],"stateMutability":"view"},{"type":"function","name":"getTotalAccumulatorNewestObservation","inputs":[],"outputs":[{"name":"","type":"tuple","internalType":"struct Observation","components":[{"name":"available","type":"uint96","internalType":"uint96"},{"name":"disbursed","type":"uint160","internalType":"uint160"}]}],"stateMutability":"view"},{"type":"function","name":"getTotalContributedBetween","inputs":[{"name":"_startDrawIdInclusive","type":"uint24","internalType":"uint24"},{"name":"_endDrawIdInclusive","type":"uint24","internalType":"uint24"}],"outputs":[{"name":"","type":"uint256","internalType":"uint256"}],"stateMutability":"view"},{"type":"function","name":"getTotalShares","inputs":[],"outputs":[{"name":"","type":"uint256","internalType":"uint256"}],"stateMutability":"view"},{"type":"function","name":"getVaultAccumulatorNewestObservation","inputs":[{"name":"_vault","type":"address","internalType":"address"}],"outputs":[{"name":"","type":"tuple","internalType":"struct Observation","components":[{"name":"available","type":"uint96","internalType":"uint96"},{"name":"disbursed","type":"uint160","internalType":"uint160"}]}],"stateMutability":"view"},{"type":"function","name":"getVaultPortion","inputs":[{"name":"_vault","type":"address","internalType":"address"},{"name":"_startDrawIdInclusive","type":"uint24","internalType":"uint24"},{"name":"_endDrawIdInclusive","type":"uint24","internalType":"uint24"}],"outputs":[{"name":"","type":"int256","internalType":"SD59x18"}],"stateMutability":"view"},{"type":"function","name":"getVaultUserBalanceAndTotalSupplyTwab","inputs":[{"name":"_vault","type":"address","internalType":"address"},{"name":"_user","type":"address","internalType":"address"},{"name":"_startDrawIdInclusive","type":"uint24","internalType":"uint24"},{"name":"_endDrawIdInclusive","type":"uint24","internalType":"uint24"}],"outputs":[{"name":"twab","type":"uint256","internalType":"uint256"},{"name":"twabTotalSupply","type":"uint256","internalType":"uint256"}],"stateMutability":"view"},{"type":"function","name":"getWinningRandomNumber","inputs":[],"outputs":[{"name":"","type":"uint256","internalType":"uint256"}],"stateMutability":"view"},{"type":"function","name":"grandPrizePeriodDraws","inputs":[],"outputs":[{"name":"","type":"uint24","internalType":"uint24"}],"stateMutability":"view"},{"type":"function","name":"isCanaryTier","inputs":[{"name":"_tier","type":"uint8","internalType":"uint8"}],"outputs":[{"name":"","type":"bool","internalType":"bool"}],"stateMutability":"view"},{"type":"function","name":"isDrawFinalized","inputs":[{"name":"drawId","type":"uint24","internalType":"uint24"}],"outputs":[{"name":"","type":"bool","internalType":"bool"}],"stateMutability":"view"},{"type":"function","name":"isShutdown","inputs":[],"outputs":[{"name":"","type":"bool","internalType":"bool"}],"stateMutability":"view"},{"type":"function","name":"isWinner","inputs":[{"name":"_vault","type":"address","internalType":"address"},{"name":"_user","type":"address","internalType":"address"},{"name":"_tier","type":"uint8","internalType":"uint8"},{"name":"_prizeIndex","type":"uint32","internalType":"uint32"}],"outputs":[{"name":"","type":"bool","internalType":"bool"}],"stateMutability":"view"},{"type":"function","name":"lastAwardedDrawAwardedAt","inputs":[],"outputs":[{"name":"","type":"uint48","internalType":"uint48"}],"stateMutability":"view"},{"type":"function","name":"numberOfTiers","inputs":[],"outputs":[{"name":"","type":"uint8","internalType":"uint8"}],"stateMutability":"view"},{"type":"function","name":"pendingReserveContributions","inputs":[],"outputs":[{"name":"","type":"uint256","internalType":"uint256"}],"stateMutability":"view"},{"type":"function","name":"prizeToken","inputs":[],"outputs":[{"name":"","type":"address","internalType":"contract IERC20"}],"stateMutability":"view"},{"type":"function","name":"prizeTokenPerShare","inputs":[],"outputs":[{"name":"","type":"uint128","internalType":"uint128"}],"stateMutability":"view"},{"type":"function","name":"reserve","inputs":[],"outputs":[{"name":"","type":"uint96","internalType":"uint96"}],"stateMutability":"view"},{"type":"function","name":"reserveShares","inputs":[],"outputs":[{"name":"","type":"uint8","internalType":"uint8"}],"stateMutability":"view"},{"type":"function","name":"rewardBalance","inputs":[{"name":"_recipient","type":"address","internalType":"address"}],"outputs":[{"name":"","type":"uint256","internalType":"uint256"}],"stateMutability":"view"},{"type":"function","name":"setDrawManager","inputs":[{"name":"_drawManager","type":"address","internalType":"address"}],"outputs":[],"stateMutability":"nonpayable"},{"type":"function","name":"shutdownAt","inputs":[],"outputs":[{"name":"","type":"uint256","internalType":"uint256"}],"stateMutability":"view"},{"type":"function","name":"shutdownBalanceOf","inputs":[{"name":"_vault","type":"address","internalType":"address"},{"name":"_account","type":"address","internalType":"address"}],"outputs":[{"name":"","type":"uint256","internalType":"uint256"}],"stateMutability":"nonpayable"},{"type":"function","name":"tierLiquidityUtilizationRate","inputs":[],"outputs":[{"name":"","type":"uint256","internalType":"UD60x18"}],"stateMutability":"view"},{"type":"function","name":"tierShares","inputs":[],"outputs":[{"name":"","type":"uint8","internalType":"uint8"}],"stateMutability":"view"},{"type":"function","name":"totalWithdrawn","inputs":[],"outputs":[{"name":"","type":"uint256","internalType":"uint256"}],"stateMutability":"view"},{"type":"function","name":"twabController","inputs":[],"outputs":[{"name":"","type":"address","internalType":"contract TwabController"}],"stateMutability":"view"},{"type":"function","name":"wasClaimed","inputs":[{"name":"_vault","type":"address","internalType":"address"},{"name":"_winner","type":"address","internalType":"address"},{"name":"_tier","type":"uint8","internalType":"uint8"},{"name":"_prizeIndex","type":"uint32","internalType":"uint32"}],"outputs":[{"name":"","type":"bool","internalType":"bool"}],"stateMutability":"view"},{"type":"function","name":"wasClaimed","inputs":[{"name":"_vault","type":"address","internalType":"address"},{"name":"_winner","type":"address","internalType":"address"},{"name":"_drawId","type":"uint24","internalType":"uint24"},{"name":"_tier","type":"uint8","internalType":"uint8"},{"name":"_prizeIndex","type":"uint32","internalType":"uint32"}],"outputs":[{"name":"","type":"bool","internalType":"bool"}],"stateMutability":"view"},{"type":"function","name":"withdrawRewards","inputs":[{"name":"_to","type":"address","internalType":"address"},{"name":"_amount","type":"uint256","internalType":"uint256"}],"outputs":[],"stateMutability":"nonpayable"},{"type":"function","name":"withdrawShutdownBalance","inputs":[{"name":"_vault","type":"address","internalType":"address"},{"name":"_recipient","type":"address","internalType":"address"}],"outputs":[{"name":"","type":"uint256","internalType":"uint256"}],"stateMutability":"nonpayable"},{"type":"event","name":"AllocateRewardFromReserve","inputs":[{"name":"to","type":"address","indexed":true,"internalType":"address"},{"name":"amount","type":"uint256","indexed":false,"internalType":"uint256"}],"anonymous":false},{"type":"event","name":"ClaimedPrize","inputs":[{"name":"vault","type":"address","indexed":true,"internalType":"address"},{"name":"winner","type":"address","indexed":true,"internalType":"address"},{"name":"recipient","type":"address","indexed":true,"internalType":"address"},{"name":"drawId","type":"uint24","indexed":false,"internalType":"uint24"},{"name":"tier","type":"uint8","indexed":false,"internalType":"uint8"},{"name":"prizeIndex","type":"uint32","indexed":false,"internalType":"uint32"},{"name":"payout","type":"uint152","indexed":false,"internalType":"uint152"},{"name":"claimReward","type":"uint96","indexed":false,"internalType":"uint96"},{"name":"claimRewardRecipient","type":"address","indexed":false,"internalType":"address"}],"anonymous":false},{"type":"event","name":"ContributePrizeTokens","inputs":[{"name":"vault","type":"address","indexed":true,"internalType":"address"},{"name":"drawId","type":"uint24","indexed":true,"internalType":"uint24"},{"name":"amount","type":"uint256","indexed":false,"internalType":"uint256"}],"anonymous":false},{"type":"event","name":"ContributedReserve","inputs":[{"name":"user","type":"address","indexed":true,"internalType":"address"},{"name":"amount","type":"uint256","indexed":false,"internalType":"uint256"}],"anonymous":false},{"type":"event","name":"DrawAwarded","inputs":[{"name":"drawId","type":"uint24","indexed":true,"internalType":"uint24"},{"name":"winningRandomNumber","type":"uint256","indexed":false,"internalType":"uint256"},{"name":"lastNumTiers","type":"uint8","indexed":false,"internalType":"uint8"},{"name":"numTiers","type":"uint8","indexed":false,"internalType":"uint8"},{"name":"reserve","type":"uint104","indexed":false,"internalType":"uint104"},{"name":"prizeTokensPerShare","type":"uint128","indexed":false,"internalType":"uint128"},{"name":"drawOpenedAt","type":"uint48","indexed":false,"internalType":"uint48"}],"anonymous":false},{"type":"event","name":"IncreaseClaimRewards","inputs":[{"name":"to","type":"address","indexed":true,"internalType":"address"},{"name":"amount","type":"uint256","indexed":false,"internalType":"uint256"}],"anonymous":false},{"type":"event","name":"ReserveConsumed","inputs":[{"name":"amount","type":"uint256","indexed":false,"internalType":"uint256"}],"anonymous":false},{"type":"event","name":"SetDrawManager","inputs":[{"name":"drawManager","type":"address","indexed":true,"internalType":"address"}],"anonymous":false},{"type":"event","name":"WithdrawRewards","inputs":[{"name":"account","type":"address","indexed":true,"internalType":"address"},{"name":"to","type":"address","indexed":true,"internalType":"address"},{"name":"amount","type":"uint256","indexed":false,"internalType":"uint256"},{"name":"available","type":"uint256","indexed":false,"internalType":"uint256"}],"anonymous":false},{"type":"error","name":"AddToDrawZero","inputs":[]},{"type":"error","name":"AlreadyClaimed","inputs":[{"name":"vault","type":"address","internalType":"address"},{"name":"winner","type":"address","internalType":"address"},{"name":"tier","type":"uint8","internalType":"uint8"},{"name":"prizeIndex","type":"uint32","internalType":"uint32"}]},{"type":"error","name":"AwardingDrawNotClosed","inputs":[{"name":"drawClosesAt","type":"uint48","internalType":"uint48"}]},{"type":"error","name":"CallerNotDrawManager","inputs":[{"name":"caller","type":"address","internalType":"address"},{"name":"drawManager","type":"address","internalType":"address"}]},{"type":"error","name":"ClaimPeriodExpired","inputs":[]},{"type":"error","name":"ContributionGTDeltaBalance","inputs":[{"name":"amount","type":"uint256","internalType":"uint256"},{"name":"available","type":"uint256","internalType":"uint256"}]},{"type":"error","name":"CreatorIsZeroAddress","inputs":[]},{"type":"error","name":"DidNotWin","inputs":[{"name":"vault","type":"address","internalType":"address"},{"name":"winner","type":"address","internalType":"address"},{"name":"tier","type":"uint8","internalType":"uint8"},{"name":"prizeIndex","type":"uint32","internalType":"uint32"}]},{"type":"error","name":"DrawAwarded","inputs":[{"name":"drawId","type":"uint24","internalType":"uint24"},{"name":"newestDrawId","type":"uint24","internalType":"uint24"}]},{"type":"error","name":"DrawManagerAlreadySet","inputs":[]},{"type":"error","name":"DrawTimeoutGTGrandPrizePeriodDraws","inputs":[]},{"type":"error","name":"DrawTimeoutLtMinimum","inputs":[{"name":"drawTimeout","type":"uint24","internalType":"uint24"},{"name":"minimumDrawTimeout","type":"uint24","internalType":"uint24"}]},{"type":"error","name":"FirstDrawOpensInPast","inputs":[]},{"type":"error","name":"GrandPrizePeriodDrawsTooLarge","inputs":[{"name":"grandPrizePeriodDraws","type":"uint24","internalType":"uint24"},{"name":"maxGrandPrizePeriodDraws","type":"uint24","internalType":"uint24"}]},{"type":"error","name":"IncompatibleTwabPeriodLength","inputs":[]},{"type":"error","name":"IncompatibleTwabPeriodOffset","inputs":[]},{"type":"error","name":"InsufficientLiquidity","inputs":[{"name":"requestedLiquidity","type":"uint104","internalType":"uint104"}]},{"type":"error","name":"InsufficientReserve","inputs":[{"name":"amount","type":"uint104","internalType":"uint104"},{"name":"reserve","type":"uint104","internalType":"uint104"}]},{"type":"error","name":"InsufficientRewardsError","inputs":[{"name":"requested","type":"uint256","internalType":"uint256"},{"name":"available","type":"uint256","internalType":"uint256"}]},{"type":"error","name":"InvalidDrawRange","inputs":[{"name":"startDrawId","type":"uint24","internalType":"uint24"},{"name":"endDrawId","type":"uint24","internalType":"uint24"}]},{"type":"error","name":"InvalidPrizeIndex","inputs":[{"name":"invalidPrizeIndex","type":"uint32","internalType":"uint32"},{"name":"prizeCount","type":"uint32","internalType":"uint32"},{"name":"tier","type":"uint8","internalType":"uint8"}]},{"type":"error","name":"InvalidTier","inputs":[{"name":"tier","type":"uint8","internalType":"uint8"},{"name":"numberOfTiers","type":"uint8","internalType":"uint8"}]},{"type":"error","name":"NoDrawsAwarded","inputs":[]},{"type":"error","name":"NumberOfTiersGreaterThanMaximum","inputs":[{"name":"numTiers","type":"uint8","internalType":"uint8"}]},{"type":"error","name":"NumberOfTiersLessThanMinimum","inputs":[{"name":"numTiers","type":"uint8","internalType":"uint8"}]},{"type":"error","name":"OnlyCreator","inputs":[]},{"type":"error","name":"PRBMath_MulDiv18_Overflow","inputs":[{"name":"x","type":"uint256","internalType":"uint256"},{"name":"y","type":"uint256","internalType":"uint256"}]},{"type":"error","name":"PRBMath_MulDiv_Overflow","inputs":[{"name":"x","type":"uint256","internalType":"uint256"},{"name":"y","type":"uint256","internalType":"uint256"},{"name":"denominator","type":"uint256","internalType":"uint256"}]},{"type":"error","name":"PRBMath_SD59x18_Ceil_Overflow","inputs":[{"name":"x","type":"int256","internalType":"SD59x18"}]},{"type":"error","name":"PRBMath_SD59x18_Convert_Overflow","inputs":[{"name":"x","type":"int256","internalType":"int256"}]},{"type":"error","name":"PRBMath_SD59x18_Convert_Underflow","inputs":[{"name":"x","type":"int256","internalType":"int256"}]},{"type":"error","name":"PRBMath_SD59x18_Div_InputTooSmall","inputs":[]},{"type":"error","name":"PRBMath_SD59x18_Div_Overflow","inputs":[{"name":"x","type":"int256","internalType":"SD59x18"},{"name":"y","type":"int256","internalType":"SD59x18"}]},{"type":"error","name":"PRBMath_SD59x18_Exp2_InputTooBig","inputs":[{"name":"x","type":"int256","internalType":"SD59x18"}]},{"type":"error","name":"PRBMath_SD59x18_Log_InputTooSmall","inputs":[{"name":"x","type":"int256","internalType":"SD59x18"}]},{"type":"error","name":"PRBMath_SD59x18_Mul_InputTooSmall","inputs":[]},{"type":"error","name":"PRBMath_SD59x18_Mul_Overflow","inputs":[{"name":"x","type":"int256","internalType":"SD59x18"},{"name":"y","type":"int256","internalType":"SD59x18"}]},{"type":"error","name":"PRBMath_SD59x18_Sqrt_NegativeInput","inputs":[{"name":"x","type":"int256","internalType":"SD59x18"}]},{"type":"error","name":"PRBMath_SD59x18_Sqrt_Overflow","inputs":[{"name":"x","type":"int256","internalType":"SD59x18"}]},{"type":"error","name":"PRBMath_UD60x18_Convert_Overflow","inputs":[{"name":"x","type":"uint256","internalType":"uint256"}]},{"type":"error","name":"PrizeIsZero","inputs":[]},{"type":"error","name":"PrizePoolNotShutdown","inputs":[]},{"type":"error","name":"PrizePoolShutdown","inputs":[]},{"type":"error","name":"RandomNumberIsZero","inputs":[]},{"type":"error","name":"RangeSizeZero","inputs":[]},{"type":"error","name":"RewardRecipientZeroAddress","inputs":[]},{"type":"error","name":"RewardTooLarge","inputs":[{"name":"reward","type":"uint256","internalType":"uint256"},{"name":"maxReward","type":"uint256","internalType":"uint256"}]},{"type":"error","name":"TierLiquidityUtilizationRateCannotBeZero","inputs":[]},{"type":"error","name":"TierLiquidityUtilizationRateGreaterThanOne","inputs":[]},{"type":"error","name":"UpperBoundGtZero","inputs":[]}],"bytecode":{"object":"0x6106a06040523480156300000012575f80fd5b50604051630000cb93380380630000cb938339818101604052810190630000003c91906300002d64565b80606001518160e001518261010001518361012001518461014001518560c00151600460ff168560ff16101563000000af57846040517f0ea0e9f900000000000000000000000000000000000000000000000000000000815260040163000000a691906300002dad565b60405180910390fd5b600b60ff168560ff161115630000010157846040517f4d3abda600000000000000000000000000000000000000000000000000000000815260040163000000f891906300002dad565b60405180910390fd5b670de0b6b3a76400008611156300000145576040517f587c36fd00000000000000000000000000000000000000000000000000000000815260040160405180910390fd5b5f86036300000180576040517f1d01c47d00000000000000000000000000000000000000000000000000000000815260040160405180910390fd5b856105c0818152505084600160106101000a81548160ff021916908360ff1602179055508360ff166105608160ff16815250508260ff166105808160ff16815250508160ff166105a08160ff16815250508062ffffff166105408162ffffff1681525050630000022363000001ff8260020b6300000b9b60201b60201c565b630000021360016300000b9b60201b60201c565b6300000ba460201b90919060201c565b60808181525050670de0b6b3a764000060a08181525050630000025160016003836300000d7160201b60201c565b60c08181525050630000026f60016004836300000d7160201b60201c565b60e08181525050630000028d60026004836300000d7160201b60201c565b610100818152505063000002ac60016005836300000d7160201b60201c565b610120818152505063000002cb60026005836300000d7160201b60201c565b610140818152505063000002ea60036005836300000d7160201b60201c565b6101608181525050630000030960016006836300000d7160201b60201c565b6101808181525050630000032860026006836300000d7160201b60201c565b6101a08181525050630000034760036006836300000d7160201b60201c565b6101c08181525050630000036660046006836300000d7160201b60201c565b6101e08181525050630000038560016007836300000d7160201b60201c565b610200818152505063000003a460026007836300000d7160201b60201c565b610220818152505063000003c360036007836300000d7160201b60201c565b610240818152505063000003e260046007836300000d7160201b60201c565b6102608181525050630000040160056007836300000d7160201b60201c565b6102808181525050630000042060016008836300000d7160201b60201c565b6102a08181525050630000043f60026008836300000d7160201b60201c565b6102c08181525050630000045e60036008836300000d7160201b60201c565b6102e08181525050630000047d60046008836300000d7160201b60201c565b6103008181525050630000049c60056008836300000d7160201b60201c565b610320818152505063000004bb60066008836300000d7160201b60201c565b610340818152505063000004da60016009836300000d7160201b60201c565b610360818152505063000004f960026009836300000d7160201b60201c565b6103808181525050630000051860036009836300000d7160201b60201c565b6103a08181525050630000053760046009836300000d7160201b60201c565b6103c08181525050630000055660056009836300000d7160201b60201c565b6103e08181525050630000057560066009836300000d7160201b60201c565b6104008181525050630000059460076009836300000d7160201b60201c565b610420818152505063000005b060046300000e4460201b60201c565b63ffffffff166104408163ffffffff168152505063000005d860056300000e4460201b60201c565b63ffffffff166104608163ffffffff1681525050630000060060066300000e4460201b60201c565b63ffffffff166104808163ffffffff1681525050630000062860076300000e4460201b60201c565b63ffffffff166104a08163ffffffff1681525050630000065060086300000e4460201b60201c565b63ffffffff166104c08163ffffffff1681525050630000067860096300000e4460201b60201c565b63ffffffff166104e08163ffffffff168152505063000006a0600a6300000e4460201b60201c565b63ffffffff166105008163ffffffff168152505063000006c8600b6300000e4460201b60201c565b63ffffffff166105208163ffffffff1681525050505050505050600262ffffff1681610160015162ffffff16101563000007455780610160015160026040517f5b9c084d000000000000000000000000000000000000000000000000000000008152600401630000073c9291906300002ddd565b60405180910390fd5b8060c0015162ffffff1681610160015162ffffff1611156300000794576040517f5e44714900000000000000000000000000000000000000000000000000000000815260040160405180910390fd5b428160a0015165ffffffffffff16101563000007dc576040517f13ea52ca00000000000000000000000000000000000000000000000000000000815260040160405180910390fd5b61016e61ffff168160c0015162ffffff1610630000084d578060c00151600161016e630000080c91906300002e46565b6040517f21288fed00000000000000000000000000000000000000000000000000000000815260040163000008449291906300002ed2565b60405180910390fd5b5f816020015173ffffffffffffffffffffffffffffffffffffffff16634c08d8e86040518163ffffffff1660e01b8152600401602060405180830381865afa158015630000089d573d5f803e3d5ffd5b505050506040513d601f19601f8201168201806040525081019063000008c591906300002f44565b63ffffffff1690505f826020015173ffffffffffffffffffffffffffffffffffffffff1663e7a891b96040518163ffffffff1660e01b8152600401602060405180830381865afa158015630000091d573d5f803e3d5ffd5b505050506040513d601f19601f82011682018060405250810190630000094591906300002f44565b63ffffffff1690508065ffffffffffff16836080015165ffffffffffff161080630000098c57505f818460800151630000098191906300002fa6565b65ffffffffffff1614155b1563000009c5576040517fb979059600000000000000000000000000000000000000000000000000000000815260040160405180910390fd5b5f81838560a0015163000009db91906300002fe4565b63000009e991906300002fa6565b65ffffffffffff16146300000a2a576040517f2fab655600000000000000000000000000000000000000000000000000000000815260040160405180910390fd5b5f73ffffffffffffffffffffffffffffffffffffffff16836040015173ffffffffffffffffffffffffffffffffffffffff16036300000a95576040517ff0d1a69300000000000000000000000000000000000000000000000000000000815260040160405180910390fd5b826040015173ffffffffffffffffffffffffffffffffffffffff166106808173ffffffffffffffffffffffffffffffffffffffff168152505082610160015162ffffff166106608162ffffff1681525050825f015173ffffffffffffffffffffffffffffffffffffffff166105e08173ffffffffffffffffffffffffffffffffffffffff1681525050826020015173ffffffffffffffffffffffffffffffffffffffff166106008173ffffffffffffffffffffffffffffffffffffffff1681525050826080015165ffffffffffff166106208165ffffffffffff16815250508260a0015165ffffffffffff166106408165ffffffffffff16815250505050506300003516565b5f819050919050565b5f806300000bb9846300000ebb60201b60201c565b90505f6300000bcf846300000ebb60201b60201c565b90507f80000000000000000000000000000000000000000000000000000000000000008214806300000c2057507f800000000000000000000000000000000000000000000000000000000000000081145b156300000c59576040517f9fe2b45000000000000000000000000000000000000000000000000000000000815260040160405180910390fd5b5f805f84126300000c6c57836300000c70565b835f035b91505f83126300000c8357826300000c87565b825f035b90505f6300000ca783670de0b6b3a7640000846300000ec460201b60201c565b90507f7fffffffffffffffffffffffffffffffffffffffffffffffffffffffffffffff8111156300000d165787876040517fd49c26b30000000000000000000000000000000000000000000000000000000081526004016300000d0d9291906300003074565b60405180910390fd5b5f7fffffffffffffffffffffffffffffffffffffffffffffffffffffffffffffffff8587181390506300000d63816300000d5457825f036300000d56565b825b6300000fe660201b60201c565b965050505050505092915050565b5f808360016300000d84919063000030ae565b90506300000e3a6300000deb6300000dde6300000daa845f0b6300000b9b60201b60201c565b6300000dce858a6300000dbf91906300003114565b5f0b6300000b9b60201b60201c565b6300000ba460201b90919060201c565b6300000fef60201b60201c565b6300000e2a6300000e068660020b6300000b9b60201b60201c565b6300000e1a60016300000b9b60201b60201c565b6300000ba460201b90919060201c565b630000110f60201b90919060201c565b9150509392505050565b5f805f5b6300000e6f816300000e628387630000120d60201b60201c565b63000016af60201b60201c565b826300000e7e9190630000317a565b915080806300000e8f9063000031bf565b9150506001846300000ea3919063000031f1565b60ff168160ff16106300000e48578192505050919050565b5f819050919050565b5f805f80198587098587029250828110838203039150505f81036300000f06578382816300000efa576300000ef96300002f79565b5b04925050506300000fdf565b8381106300000f54578585856040517f63a057780000000000000000000000000000000000000000000000000000000081526004016300000f4b939291906300003246565b60405180910390fd5b5f8486880990508281118203915080830392505f6001861901861690505f81870496508185049450600182835f0304019050808402851794505f60028860030218905080880260020381029050808802600203810290508088026002038102905080880260020381029050808802600203810290508088026002038102905080860296505050505050505b9392505050565b5f819050919050565b5f806300001004836300000ebb60201b60201c565b90505f811215630000105157826040517fb9b0f49b000000000000000000000000000000000000000000000000000000008152600401630000104891906300003287565b60405180910390fd5b670de0b6b3a76400007f7fffffffffffffffffffffffffffffffffffffffffffffffffffffffffffffff6300001089919063000032a4565b81131563000010d357826040517f063103bf00000000000000000000000000000000000000000000000000000000815260040163000010ca91906300003287565b60405180910390fd5b5f63000010f1670de0b6b3a76400008302630000170560201b60201c565b90506300001106816300000fe660201b60201c565b92505050919050565b5f806300001124846300000ebb60201b60201c565b90505f630000113a846300000ebb60201b60201c565b90505f8203630000116b575f81146300001156575f6300001160565b670de0b6b3a76400005b925050506300001207565b670de0b6b3a76400008203630000119057670de0b6b3a7640000925050506300001207565b5f810363000011ad57670de0b6b3a7640000925050506300001207565b670de0b6b3a7640000810363000011ca5784925050506300001207565b630000120263000011f563000011e78763000018f060201b60201c565b866300001ac860201b60201c565b6300001c8c60201b60201c565b925050505b92915050565b5f808360ff1603630000122657608051905063000016a9565b60038260ff160363000012535760028360ff1611630000124c5760a051905063000016a9565b6300001693565b60048260ff160363000012805760038360ff161163000012795760a051905063000016a9565b6300001692565b60058260ff160363000012c65760018360ff160363000012a65760c051905063000016a9565b60048360ff161163000012bf5760a051905063000016a9565b6300001691565b60068260ff160363000013265760018360ff160363000012ec5760e051905063000016a9565b60028360ff160363000013065761010051905063000016a9565b60058360ff1611630000131f5760a051905063000016a9565b6300001690565b60078260ff160363000013a15760018360ff1603630000134d5761012051905063000016a9565b60028360ff160363000013675761014051905063000016a9565b60038360ff160363000013815761016051905063000016a9565b60068360ff1611630000139a5760a051905063000016a9565b630000168f565b60088260ff160363000014365760018360ff160363000013c85761018051905063000016a9565b60028360ff160363000013e2576101a051905063000016a9565b60038360ff160363000013fc576101c051905063000016a9565b60048360ff16036300001416576101e051905063000016a9565b60078360ff1611630000142f5760a051905063000016a9565b630000168e565b60098260ff160363000014e55760018360ff1603630000145d5761020051905063000016a9565b60028360ff160363000014775761022051905063000016a9565b60038360ff160363000014915761024051905063000016a9565b60048360ff160363000014ab5761026051905063000016a9565b60058360ff160363000014c55761028051905063000016a9565b60088360ff161163000014de5760a051905063000016a9565b630000168d565b600a8260ff160363000015ae5760018360ff1603630000150c576102a051905063000016a9565b60028360ff16036300001526576102c051905063000016a9565b60038360ff16036300001540576102e051905063000016a9565b60048360ff1603630000155a5761030051905063000016a9565b60058360ff160363000015745761032051905063000016a9565b60068360ff1603630000158e5761034051905063000016a9565b60098360ff161163000015a75760a051905063000016a9565b630000168c565b600b8260ff1603630000168b5760018360ff160363000015d55761036051905063000016a9565b60028360ff160363000015ef5761038051905063000016a9565b60038360ff16036300001609576103a051905063000016a9565b60048360ff16036300001623576103c051905063000016a9565b60058360ff1603630000163d576103e051905063000016a9565b60068360ff160363000016575761040051905063000016a9565b60078360ff160363000016715761042051905063000016a9565b600a8360ff1611630000168a5760a051905063000016a9565b5b5b5b5b5b5b5b5b5b63000016a65f6300000b9b60201b60201c565b90505b92915050565b5f63000016fd63000016f08363000016e063000016d3876300001e0560201b60201c565b6300000b9b60201b60201c565b6300001ac860201b90919060201c565b6300000ebb60201b60201c565b905092915050565b5f8082036300001719575f905063000018eb565b5f829050600191507001000000000000000000000000000000008110630000174a57608081901c9050604082901b91505b680100000000000000008110630000176b57604081901c9050602082901b91505b6401000000008110630000178857602081901c9050601082901b91505b62010000811063000017a357601081901c9050600882901b91505b610100811063000017bd57600881901c9050600482901b91505b6010811063000017d657600481901c9050600282901b91505b6004811063000017e857600182901b91505b600182848163000018005763000017ff6300002f79565b5b048301901c91506001828481630000181f57630000181e6300002f79565b5b048301901c91506001828481630000183e57630000183d6300002f79565b5b048301901c91506001828481630000185d57630000185c6300002f79565b5b048301901c91506001828481630000187c57630000187b6300002f79565b5b048301901c91506001828481630000189b57630000189a6300002f79565b5b048301901c9150600182848163000018ba5763000018b96300002f79565b5b048301901c91505f82848163000018d85763000018d76300002f79565b5b04905080831063000018e8578092505b50505b919050565b5f806300001905836300000ebb60201b60201c565b90505f8113630000195157826040517f059b101b000000000000000000000000000000000000000000000000000000008152600401630000194891906300003287565b60405180910390fd5b5f670de0b6b3a76400008212630000196e576001905063000019ba565b7fffffffffffffffffffffffffffffffffffffffffffffffffffffffffffffffff9050816ec097ce7bc90715b34b9f10000000008163000019b65763000019b56300002f79565b5b0591505b5f63000019ec670de0b6b3a7640000848163000019de5763000019dd6300002f79565b5b056300001e1e60201b60201c565b90505f670de0b6b3a7640000820290505f8285901d9050670de0b6b3a764000081036300001a37576300001a298483026300000fe660201b60201c565b955050505050506300001ac3565b5f671bc16d674ec8000090505f6706f05b59d3b2000090505b5f8113156300001aa157670de0b6b3a7640000838402816300001a7a576300001a796300002f79565b5b0592508183126300001a93578084019350600183901d92505b600181901d90506300001a50565b5084830292506300001aba836300000fe660201b60201c565b96505050505050505b919050565b5f806300001add846300000ebb60201b60201c565b90505f6300001af3846300000ebb60201b60201c565b90507f80000000000000000000000000000000000000000000000000000000000000008214806300001b4457507f800000000000000000000000000000000000000000000000000000000000000081145b156300001b7d576040517fa6070c2500000000000000000000000000000000000000000000000000000000815260040160405180910390fd5b5f805f84126300001b9057836300001b94565b835f035b91505f83126300001ba757826300001bab565b825f035b90505f6300001bc283836300001ec660201b60201c565b90507f7fffffffffffffffffffffffffffffffffffffffffffffffffffffffffffffff8111156300001c315787876040517f120b5b430000000000000000000000000000000000000000000000000000000081526004016300001c289291906300003074565b60405180910390fd5b5f7fffffffffffffffffffffffffffffffffffffffffffffffffffffffffffffffff8587181390506300001c7e816300001c6f57825f036300001c71565b825b6300000fe660201b60201c565b965050505050505092915050565b5f806300001ca1836300000ebb60201b60201c565b90505f8112156300001d5b577ffffffffffffffffffffffffffffffffffffffffffffffffcc22e87f6eb468eeb8112156300001ce2575f9150506300001e00565b6300001d526300001d206300001d136300001d06845f036300000fe660201b60201c565b6300001c8c60201b60201c565b6300000ebb60201b60201c565b6ec097ce7bc90715b34b9f1000000000816300001d44576300001d436300002f79565b5b056300000fe660201b60201c565b91506300001dfe565b680a688906bd8affffff8113156300001daf57826040517f0360d0280000000000000000000000000000000000000000000000000000000081526004016300001da691906300003287565b60405180910390fd5b5f670de0b6b3a7640000604083901b816300001dd2576300001dd16300002f79565b5b0590506300001dfa6300001ded826300001fbb60201b60201c565b6300000fe660201b60201c565b9250505b505b919050565b5f8160046300001e1791906300003491565b9050919050565b5f6fffffffffffffffffffffffffffffffff821160071b82811c925080821791505067ffffffffffffffff821160061b82811c925080821791505063ffffffff821160051b82811c925080821791505061ffff821160041b82811c925080821791505060ff821160031b82811c9250808217915050600f821160021b82811c92508082179150506003821160011b82811c925080821791505060018211808217915050919050565b5f805f80198486098486029250828110838203039150505f81036300001f1057670de0b6b3a764000082816300001f04576300001f036300002f79565b5b04925050506300001fb5565b670de0b6b3a764000081106300001f645784846040517f5173648d0000000000000000000000000000000000000000000000000000000081526004016300001f5b92919063000034e7565b60405180910390fd5b5f670de0b6b3a764000085870990507faccb18165bd6fe31ae1cf318dc5b51eee0e1ba569b88cd74c1773b91fac10669600162040000805f0304018483118403026204000083860304170293505050505b92915050565b5f7780000000000000000000000000000000000000000000000090505f67ff00000000000000831611156300002124575f67800000000000000083161115630000201257604068016a09e667f3bcc9098202901c90505b5f6740000000000000008316111563000020395760406801306fe0a31b7152df8202901c90505b5f6720000000000000008316111563000020605760406801172b83c7d517adce8202901c90505b5f67100000000000000083161115630000208757604068010b5586cf9890f62a8202901c90505b5f6708000000000000008316111563000020ae5760406801059b0d31585743ae8202901c90505b5f6704000000000000008316111563000020d5576040680102c9a3e778060ee78202901c90505b5f6702000000000000008316111563000020fc57604068010163da9fb33356d88202901c90505b5f670100000000000000831611156300002123576040680100b1afa5abcbed618202901c90505b5b5f66ff000000000000831611156300002268575f668000000000000083161115630000215d57604068010058c86da1c09ea28202901c90505b5f66400000000000008316111563000021835760406801002c605e2e8cec508202901c90505b5f66200000000000008316111563000021a9576040680100162f3904051fa18202901c90505b5f66100000000000008316111563000021cf5760406801000b175effdc76ba8202901c90505b5f66080000000000008316111563000021f5576040680100058ba01fb9f96d8202901c90505b5f660400000000000083161115630000221b57604068010002c5cc37da94928202901c90505b5f66020000000000008316111563000022415760406801000162e525ee05478202901c90505b5f660100000000000083161115630000226757604068010000b17255775c048202901c90505b5b5f65ff00000000008316111563000023a3575f6580000000000083161115630000229f5760406801000058b91b5bc9ae8202901c90505b5f654000000000008316111563000022c4576040680100002c5c89d5ec6d8202901c90505b5f652000000000008316111563000022e957604068010000162e43f4f8318202901c90505b5f6510000000000083161115630000230e576040680100000b1721bcfc9a8202901c90505b5f6508000000000083161115630000233357604068010000058b90cf1e6e8202901c90505b5f650400000000008316111563000023585760406801000002c5c863b73f8202901c90505b5f6502000000000083161115630000237d576040680100000162e430e5a28202901c90505b5f650100000000008316111563000023a25760406801000000b1721835518202901c90505b5b5f64ff000000008316111563000024d5575f6480000000008316111563000023d8576040680100000058b90c0b498202901c90505b5f6440000000008316111563000023fc57604068010000002c5c8601cc8202901c90505b5f6420000000008316111563000024205760406801000000162e42fff08202901c90505b5f64100000000083161115630000244457604068010000000b17217fbb8202901c90505b5f6408000000008316111563000024685760406801000000058b90bfce8202901c90505b5f64040000000083161115630000248c576040680100000002c5c85fe38202901c90505b5f6402000000008316111563000024b057604068010000000162e42ff18202901c90505b5f6401000000008316111563000024d4576040680100000000b17217f88202901c90505b5b5f63ff0000008316111563000025fe575f638000000083161115630000250857604068010000000058b90bfc8202901c90505b5f634000000083161115630000252b5760406801000000002c5c85fe8202901c90505b5f632000000083161115630000254e576040680100000000162e42ff8202901c90505b5f63100000008316111563000025715760406801000000000b17217f8202901c90505b5f6308000000831611156300002594576040680100000000058b90c08202901c90505b5f63040000008316111563000025b757604068010000000002c5c8608202901c90505b5f63020000008316111563000025da5760406801000000000162e4308202901c90505b5f63010000008316111563000025fd57604068010000000000b172188202901c90505b5b5f62ff000083161115630000271e575f6280000083161115630000262f5760406801000000000058b90c8202901c90505b5f62400000831611156300002651576040680100000000002c5c868202901c90505b5f6220000083161115630000267357604068010000000000162e438202901c90505b5f62100000831611156300002695576040680100000000000b17218202901c90505b5f620800008316111563000026b757604068010000000000058b918202901c90505b5f620400008316111563000026d95760406801000000000002c5c88202901c90505b5f620200008316111563000026fb576040680100000000000162e48202901c90505b5f6201000083161115630000271d5760406801000000000000b1728202901c90505b5b5f61ff00831611156300002835575f61800083161115630000274d576040680100000000000058b98202901c90505b5f61400083161115630000276e57604068010000000000002c5d8202901c90505b5f61200083161115630000278f5760406801000000000000162e8202901c90505b5f6110008316111563000027b057604068010000000000000b178202901c90505b5f6108008316111563000027d15760406801000000000000058c8202901c90505b5f6104008316111563000027f2576040680100000000000002c68202901c90505b5f610200831611156300002813576040680100000000000001638202901c90505b5f610100831611156300002834576040680100000000000000b18202901c90505b5b5f60ff831611156300002943575f6080831611156300002862576040680100000000000000598202901c90505b5f60408316111563000028825760406801000000000000002c8202901c90505b5f60208316111563000028a2576040680100000000000000168202901c90505b5f60108316111563000028c25760406801000000000000000b8202901c90505b5f60088316111563000028e2576040680100000000000000068202901c90505b5f6004831611156300002902576040680100000000000000038202901c90505b5f6002831611156300002922576040680100000000000000018202901c90505b5f6001831611156300002942576040680100000000000000018202901c90505b5b670de0b6b3a764000081029050604082901c60bf0381901c9050919050565b5f604051905090565b5f80fd5b5f80fd5b5f601f19601f8301169050919050565b7f4e487b71000000000000000000000000000000000000000000000000000000005f52604160045260245ffd5b63000029bd826300002973565b810181811067ffffffffffffffff8211171563000029e25763000029e16300002983565b5b80604052505050565b5f63000029f86300002962565b90506300002a08828263000029b0565b919050565b5f73ffffffffffffffffffffffffffffffffffffffff82169050919050565b5f6300002a3a826300002a0d565b9050919050565b5f6300002a4f826300002a2c565b9050919050565b6300002a63816300002a41565b81146300002a6f575f80fd5b50565b5f815190506300002a84816300002a56565b92915050565b5f6300002a98826300002a2c565b9050919050565b6300002aac816300002a8a565b81146300002ab8575f80fd5b50565b5f815190506300002acd816300002a9f565b92915050565b6300002ae0816300002a2c565b81146300002aec575f80fd5b50565b5f815190506300002b01816300002ad3565b92915050565b5f819050919050565b6300002b1d816300002b07565b81146300002b29575f80fd5b50565b5f815190506300002b3e816300002b10565b92915050565b5f65ffffffffffff82169050919050565b6300002b62816300002b44565b81146300002b6e575f80fd5b50565b5f815190506300002b83816300002b55565b92915050565b5f62ffffff82169050919050565b6300002ba4816300002b89565b81146300002bb0575f80fd5b50565b5f815190506300002bc5816300002b97565b92915050565b5f60ff82169050919050565b6300002be4816300002bcb565b81146300002bf0575f80fd5b50565b5f815190506300002c05816300002bd7565b92915050565b5f61018082840312156300002c27576300002c26630000296f565b5b6300002c3661018063000029eb565b90505f6300002c49848285016300002a72565b5f8301525060206300002c60848285016300002abb565b60208301525060406300002c78848285016300002aef565b60408301525060606300002c90848285016300002b2c565b60608301525060806300002ca8848285016300002b71565b60808301525060a06300002cc0848285016300002b71565b60a08301525060c06300002cd8848285016300002bb3565b60c08301525060e06300002cf0848285016300002bf3565b60e0830152506101006300002d09848285016300002bf3565b610100830152506101206300002d23848285016300002bf3565b610120830152506101406300002d3d848285016300002bf3565b610140830152506101606300002d57848285016300002bb3565b6101608301525092915050565b5f61018082840312156300002d80576300002d7f630000296b565b5b5f6300002d91848285016300002c0b565b91505092915050565b6300002da7816300002bcb565b82525050565b5f6020820190506300002dc45f8301846300002d9a565b92915050565b6300002dd7816300002b89565b82525050565b5f6040820190506300002df45f8301856300002dca565b6300002e0560208301846300002dca565b9392505050565b5f61ffff82169050919050565b7f4e487b71000000000000000000000000000000000000000000000000000000005f52601160045260245ffd5b5f6300002e54826300002e0c565b91506300002e63836300002e0c565b9250828203905061ffff8111156300002e83576300002e826300002e19565b5b92915050565b5f819050919050565b5f6300002eb86300002eb16300002eaa846300002e0c565b6300002e89565b6300002b89565b9050919050565b6300002ecc816300002e92565b82525050565b5f6040820190506300002ee95f8301856300002dca565b6300002efa60208301846300002ebf565b9392505050565b5f63ffffffff82169050919050565b6300002f1d816300002f01565b81146300002f29575f80fd5b50565b5f815190506300002f3e816300002f10565b92915050565b5f602082840312156300002f5f576300002f5e630000296b565b5b5f6300002f70848285016300002f2c565b91505092915050565b7f4e487b71000000000000000000000000000000000000000000000000000000005f52601260045260245ffd5b5f6300002fb4826300002b44565b91506300002fc3836300002b44565b9250826300002fd9576300002fd86300002f79565b5b828206905092915050565b5f6300002ff2826300002b44565b91506300003001836300002b44565b9250828203905065ffffffffffff81111563000030255763000030246300002e19565b5b92915050565b5f819050919050565b5f630000305a6300003053630000304c84630000302b565b6300002e89565b630000302b565b9050919050565b630000306e816300003034565b82525050565b5f604082019050630000308b5f8301856300003061565b630000309c60208301846300003061565b9392505050565b5f815f0b9050919050565b5f63000030bc8263000030a3565b915063000030cb8363000030a3565b92508282039050607f81137fffffffffffffffffffffffffffffffffffffffffffffffffffffffffffffff8082121715630000310e57630000310d6300002e19565b5b92915050565b5f63000031228263000030a3565b915063000031318363000030a3565b925082820190507fffffffffffffffffffffffffffffffffffffffffffffffffffffffffffffff808112607f8213171563000031745763000031736300002e19565b5b92915050565b5f6300003188826300002f01565b91506300003197836300002f01565b9250828201905063ffffffff81111563000031b95763000031b86300002e19565b5b92915050565b5f63000031cd826300002bcb565b915060ff820363000031e65763000031e56300002e19565b5b600182019050919050565b5f63000031ff826300002bcb565b9150630000320e836300002bcb565b9250828203905060ff811115630000322d57630000322c6300002e19565b5b92915050565b6300003240816300002b07565b82525050565b5f606082019050630000325d5f8301866300003233565b630000326e60208301856300003233565b630000327f60408301846300003233565b949350505050565b5f602082019050630000329e5f8301846300003061565b92915050565b5f63000032b282630000302b565b915063000032c183630000302b565b92508263000032d75763000032d66300002f79565b5b60015f0383147f80000000000000000000000000000000000000000000000000000000000000008314161563000033155763000033146300002e19565b5b828205905092915050565b5f8160011c9050919050565b5f808291508390505b600185111563000033855780860481111563000033595763000033586300002e19565b5b6001851615630000336a5780820291505b8081029050630000337c856300003320565b94506300003335565b94509492505050565b5f8263000033a15760019050630000348a565b8163000033b2575f9050630000348a565b816001811463000033ce576002811463000033da576300003417565b6001915050630000348a565b60ff84111563000033f25763000033f16300002e19565b5b8360020a915084821115630000340f57630000340e6300002e19565b5b50630000348a565b5060208310610133831016604e8410600b841016171563000034565782820a905083811115630000344f57630000344e6300002e19565b5b630000348a565b63000034678484846001630000332c565b9250905081840481111563000034845763000034836300002e19565b5b81810290505b9392505050565b5f630000349f826300002b07565b915063000034ae836300002bcb565b925063000034df7fffffffffffffffffffffffffffffffffffffffffffffffffffffffffffffffff8484630000338e565b905092915050565b5f60408201905063000034fe5f8301856300003233565b630000350f60208301846300003233565b9392505050565b60805160a05160c05160e05161010051610120516101405161016051610180516101a0516101c0516101e05161020051610220516102405161026051610280516102a0516102c0516102e05161030051610320516103405161036051610380516103a0516103c0516103e05161040051610420516104405161046051610480516104a0516104c0516104e05161050051610520516105405161056051610580516105a0516105c0516105e051610600516106205161064051610660516106805161936063000038335f395f611d3001525f8181610ea70152611caa01525f818161269201528181612e8801528181612f3e015261357f01525f81816126c601528181612e4b0152818161354e015281816137e401526141ea01525f81816120100152818161239b0152818161243b0152612c6401525f8181611c02015281816125e40152818161272d015281816131b4015281816132680152818161349a015261421801525f8181610ef30152616c3b01525f81816120d20152818161213f0152615cb901525f81816121110152818161235d0152615eb201525f8181612163015281816121bc0152615e8c01525f8181612d6b015281816135ce015281816141c6015261441101525f8181612b28015261554f01525f8181612af5015261551101525f8181612ac201526154d301525f8181612a8f015261549501525f8181612a5c015261545701525f8181612a29015261541901525f81816129f601526153db01525f6129c301525f61415001525f61411d01525f6140ea01525f6140b701525f61408401525f61405101525f61401e01525f613fa801525f613f7501525f613f4201525f613f0f01525f613edc01525f613ea901525f613e3301525f613e0001525f613dcd01525f613d9a01525f613d6701525f613cf101525f613cbe01525f613c8b01525f613c5801525f613be201525f613baf01525f613b7c01525f613b0601525f613ad301525f613a5d01525f81816139d701528181613a1a01528181613a9001528181613b3901528181613c1501528181613d2401528181613e6601528181613fdb015261418301525f61399901526193605ff3fe608060405234801561000f575f80fd5b5060043610610410575f3560e01c80638cd8b2f61161021e578063c052b56e1161012e578063e4ff7a89116100b6578063eedfb45011610085578063eedfb45014610d90578063f8632be414610dc0578063face493214610dde578063fc8a081014610e0e578063fe77315114610e3e57610410565b8063e4ff7a8914610cf4578063e631674a14610d24578063e8196f6314610d54578063ed88b77f14610d7257610410565b8063d0ef024a116100fd578063d0ef024a14610c3c578063d5002f2e14610c5a578063d6ef7af014610c78578063dd1ecaec14610c94578063e37a854814610cc457610410565b8063c052b56e14610ba0578063cd3293de14610bbe578063cefa233814610bdc578063cf7b0df814610c0c57610410565b8063a84037b6116101b1578063b0812d7b11610180578063b0812d7b14610ad4578063b31b69e014610af2578063b7b02fc814610b22578063bcb0091014610b52578063bf86d69014610b8257610410565b8063a84037b614610a38578063aa7e4f8914610a68578063aa8de0ea14610a98578063aff78fbb14610ab657610410565b8063948231fb116101ed578063948231fb146109ad578063980bfca9146109cb578063a1270e2e146109ea578063a55b9c3514610a1a57610410565b80638cd8b2f6146109275780638da4d3c9146109435780639199687a1461096157806393b725391461099157610410565b80634b319713116103245780636067e20f116102ac5780636e27a2e51161027b5780636e27a2e51461086c578063771de8a71461088a578063790e3d47146108ba5780637d3fba05146108d857806380fffbd9146108f657610410565b80636067e20f146107d057806360df8caa146107ee57806364909dbd1461081e57806367b40cf71461083c57610410565b806355203645116102f35780635520364514610716578063559a692014610734578063571d0223146107645780635758e7051461079457806358c7aa0f146107b257610410565b80634b3197131461067c5780634e0dd7821461069a5780634f051a72146106b6578063543c7445146106e657610410565b80632f695cc9116103a757806345e167781161037657806345e16778146105c2578063479cdd7c146105f2578063494219961461062257806349d1059b146106405780634a767a4e1461065e57610410565b80632f695cc9146105385780633f0192eb14610556578063447d41b51461058657806345226642146105a457610410565b806313c846ee116103e357806313c846ee146104b05780631d522f1a146104ce578063269fdac8146104ec5780632b2261e31461051c57610410565b806302abcc1e146104145780630937eb54146104445780630aa955881461046257806310501d0414610480575b5f80fd5b61042e60048036038101906104299190617693565b610e6e565b60405161043b91906176e9565b60405180910390f35b61044c610e8d565b60405161045991906176e9565b60405180910390f35b61046a610ea5565b6040516104779190617711565b60405180910390f35b61049a6004803603810190610495919061772a565b610ec9565b6040516104a7919061776f565b60405180910390f35b6104b8610ef1565b6040516104c591906177c1565b60405180910390f35b6104d6610f15565b6040516104e39190617819565b60405180910390f35b610506600480360381019061050191906178cb565b610f1b565b604051610513919061776f565b60405180910390f35b61053660048036038101906105319190617970565b611005565b005b610540611370565b60405161054d9190617711565b60405180910390f35b610570600480360381019061056b91906179ae565b611386565b60405161057d9190617a37565b60405180910390f35b61058e611435565b60405161059b9190617711565b60405180910390f35b6105ac61146d565b6040516105b99190617a5f565b60405180910390f35b6105dc60048036038101906105d79190617a78565b611491565b6040516105e99190617a5f565b60405180910390f35b61060c60048036038101906106079190617aa3565b611531565b60405161061991906176e9565b60405180910390f35b61062a611c6b565b6040516106379190617711565b60405180910390f35b610648611c83565b6040516106559190617b56565b60405180910390f35b610666611ca4565b60405161067391906176e9565b60405180910390f35b610684611cf7565b60405161069191906176e9565b60405180910390f35b6106b460048036038101906106af9190617b6f565b611d2e565b005b6106d060048036038101906106cb9190617693565b611ebf565b6040516106dd91906176e9565b60405180910390f35b61070060048036038101906106fb9190617693565b611f1b565b60405161070d9190617711565b60405180910390f35b61071e611f98565b60405161072b91906176e9565b60405180910390f35b61074e60048036038101906107499190617b6f565b611fa1565b60405161075b9190617be5565b60405180910390f35b61077e60048036038101906107799190617bfe565b611ff5565b60405161078b9190617c38565b60405180910390f35b61079c612006565b6040516107a991906176e9565b60405180910390f35b6107ba6120d0565b6040516107c79190617a5f565b60405180910390f35b6107d86120f4565b6040516107e59190617c71565b60405180910390f35b61080860048036038101906108039190617bfe565b61210c565b60405161081591906176e9565b60405180910390f35b6108266121ba565b6040516108339190617a5f565b60405180910390f35b61085660048036038101906108519190617b6f565b6121de565b60405161086391906176e9565b60405180910390f35b610874612224565b6040516108819190617a5f565b60405180910390f35b6108a4600480360381019061089f9190617bfe565b612237565b6040516108b19190617c38565b60405180910390f35b6108c2612293565b6040516108cf91906176e9565b60405180910390f35b6108e061235b565b6040516108ed9190617a5f565b60405180910390f35b610910600480360381019061090b9190617c8a565b61237f565b60405161091e929190617cee565b60405180910390f35b610941600480360381019061093c9190617d15565b6124e2565b005b61094b61267a565b6040516109589190617711565b60405180910390f35b61097b60048036038101906109769190617d6a565b61268e565b6040516109889190617711565b60405180910390f35b6109ab60048036038101906109a69190617d6a565b612725565b005b6109b5612782565b6040516109c29190617819565b60405180910390f35b6109d36127a7565b6040516109e1929190617d95565b60405180910390f35b610a0460048036038101906109ff9190617bfe565b6129b5565b604051610a119190617c38565b60405180910390f35b610a22612b57565b604051610a2f9190617be5565b60405180910390f35b610a526004803603810190610a4d91906179ae565b612b6e565b604051610a5f91906176e9565b60405180910390f35b610a826004803603810190610a7d9190617bfe565b612bc9565b604051610a8f919061776f565b60405180910390f35b610aa0612bf6565b604051610aad9190617c38565b60405180910390f35b610abe612c14565b604051610acb9190617711565b60405180910390f35b610adc612c62565b604051610ae99190617e0e565b60405180910390f35b610b0c6004803603810190610b0791906178cb565b612c86565b604051610b19919061776f565b60405180910390f35b610b3c6004803603810190610b37919061772a565b612e48565b604051610b499190617c71565b60405180910390f35b610b6c6004803603810190610b679190617bfe565b612eb8565b604051610b7991906176e9565b60405180910390f35b610b8a612f2b565b604051610b97919061776f565b60405180910390f35b610ba8612f3c565b604051610bb59190617c71565b60405180910390f35b610bc6612f60565b604051610bd39190617e36565b60405180910390f35b610bf66004803603810190610bf19190617e4f565b612f80565b604051610c03919061776f565b60405180910390f35b610c266004803603810190610c219190617ec6565b61305a565b604051610c3391906176e9565b60405180910390f35b610c44613266565b604051610c519190617f24565b60405180910390f35b610c6261328a565b604051610c6f91906176e9565b60405180910390f35b610c926004803603810190610c8d9190617f3d565b6132a8565b005b610cae6004803603810190610ca9919061772a565b61354b565b604051610cbb9190617c71565b60405180910390f35b610cde6004803603810190610cd99190617ec6565b6135af565b604051610ceb91906177c1565b60405180910390f35b610d0e6004803603810190610d099190617d6a565b61369d565b604051610d1b9190617711565b60405180910390f35b610d3e6004803603810190610d399190617f7b565b61398c565b604051610d4b9190617a37565b60405180910390f35b610d5c6141c4565b604051610d699190617711565b60405180910390f35b610d7a6141e8565b604051610d879190617c71565b60405180910390f35b610daa6004803603810190610da59190617f3d565b61420c565b604051610db791906176e9565b60405180910390f35b610dc86143d4565b604051610dd59190617c38565b60405180910390f35b610df86004803603810190610df39190617bfe565b6143f2565b604051610e059190617711565b60405180910390f35b610e286004803603810190610e239190617bfe565b61443c565b604051610e359190617fe0565b60405180910390f35b610e586004803603810190610e539190617ec6565b61447c565b604051610e6591906176e9565b60405180910390f35b5f610e85838360066147c79092919063ffffffff16565b905092915050565b5f610ea0610e9b6006614f1a565b614fe0565b905090565b7f000000000000000000000000000000000000000000000000000000000000000081565b5f610edf600183610eda9190618026565b61354b565b65ffffffffffff164210159050919050565b7f000000000000000000000000000000000000000000000000000000000000000081565b61f2ee81565b5f60045f8673ffffffffffffffffffffffffffffffffffffffff1673ffffffffffffffffffffffffffffffffffffffff1681526020019081526020015f205f8573ffffffffffffffffffffffffffffffffffffffff1673ffffffffffffffffffffffffffffffffffffffff1681526020019081526020015f205f600160119054906101000a900462ffffff1662ffffff1662ffffff1681526020019081526020015f205f8460ff1660ff1681526020019081526020015f205f8363ffffffff1663ffffffff1681526020019081526020015f205f9054906101000a900460ff169050949350505050565b602e5f9054906101000a900473ffffffffffffffffffffffffffffffffffffffff1673ffffffffffffffffffffffffffffffffffffffff163373ffffffffffffffffffffffffffffffffffffffff16146110b95733602e5f9054906101000a900473ffffffffffffffffffffffffffffffffffffffff166040517f11fb34630000000000000000000000000000000000000000000000000000000081526004016110b092919061805c565b60405180910390fd5b6110c1612f2b565b156110f8576040517fbee46da500000000000000000000000000000000000000000000000000000000815260040160405180910390fd5b5f73ffffffffffffffffffffffffffffffffffffffff168273ffffffffffffffffffffffffffffffffffffffff160361115d576040517fd19e51fc00000000000000000000000000000000000000000000000000000000815260040160405180910390fd5b60025f9054906101000a90046bffffffffffffffffffffffff166bffffffffffffffffffffffff16816bffffffffffffffffffffffff1611156111f2578060025f9054906101000a90046bffffffffffffffffffffffff166040517f46b156b00000000000000000000000000000000000000000000000000000000081526004016111e99291906180b3565b60405180910390fd5b8060025f8282829054906101000a90046bffffffffffffffffffffffff160392506101000a8154816bffffffffffffffffffffffff02191690836bffffffffffffffffffffffff160217905550806bffffffffffffffffffffffff1660055f8473ffffffffffffffffffffffffffffffffffffffff1673ffffffffffffffffffffffffffffffffffffffff1681526020019081526020015f205f82825461129991906180da565b925050819055506112ec816bffffffffffffffffffffffff16602f60139054906101000a90046cffffffffffffffffffffffffff166112d8919061810d565b6cffffffffffffffffffffffffff1661508d565b602f60136101000a8154816cffffffffffffffffffffffffff02191690836cffffffffffffffffffffffffff1602179055508173ffffffffffffffffffffffffffffffffffffffff167fecb1c952c58fd78de1639daecf690934ce9017bbd60ceaf3355f80ee8d24e73782604051611364919061817d565b60405180910390a25050565b5f61138161137c612006565b61268e565b905090565b5f61f2ee73ffffffffffffffffffffffffffffffffffffffff168473ffffffffffffffffffffffffffffffffffffffff16036113cc576113c55f6150e8565b905061142e565b5f806113d98686866150f1565b915091505f81036113f6576113ed5f6150e8565b9250505061142e565b61142961140a611405836151cd565b6150e8565b61141b611416856151cd565b6150e8565b61523990919063ffffffff16565b925050505b9392505050565b5f8061143f611370565b90505f61144b4261268e565b90508162ffffff168162ffffff16116114645780611466565b815b9250505090565b5f61148c602f5f9054906101000a900462ffffff1662ffffff16611491565b905090565b5f80600160119054906101000a900462ffffff1662ffffff1614611519575f6114b9836153c8565b90505f600160109054906101000a900460ff1690508060ff168260ff1611156114f0576001816114e99190618196565b915061150f565b8060ff168260ff16101561150e5760018161150b91906181ca565b91505b5b819250505061152c565b600160109054906101000a900460ff1690505b919050565b5f80600160119054906101000a900462ffffff16905061155081610ec9565b15611587576040517f2253b77900000000000000000000000000000000000000000000000000000000815260040160405180910390fd5b5f73ffffffffffffffffffffffffffffffffffffffff168373ffffffffffffffffffffffffffffffffffffffff161480156115cf57505f846bffffffffffffffffffffffff16115b15611606576040517fd19e51fc00000000000000000000000000000000000000000000000000000000815260040160405180910390fd5b5f600160109054906101000a900460ff1690505f6116248983615596565b905080602001516cffffffffffffffffffffffffff16866bffffffffffffffffffffffff161115611692578581602001516040517f93382c1200000000000000000000000000000000000000000000000000000000815260040161168992919061822e565b60405180910390fd5b5f81602001516cffffffffffffffffffffffffff16036116de576040517f31d7a46d00000000000000000000000000000000000000000000000000000000815260040160405180910390fd5b6116ea338b8b8b612c86565b61173157338a8a8a6040517fe064c0a20000000000000000000000000000000000000000000000000000000081526004016117289493929190618255565b60405180910390fd5b60045f3373ffffffffffffffffffffffffffffffffffffffff1673ffffffffffffffffffffffffffffffffffffffff1681526020019081526020015f205f8b73ffffffffffffffffffffffffffffffffffffffff1673ffffffffffffffffffffffffffffffffffffffff1681526020019081526020015f205f8462ffffff1662ffffff1681526020019081526020015f205f8a60ff1660ff1681526020019081526020015f205f8963ffffffff1663ffffffff1681526020019081526020015f205f9054906101000a900460ff161561184757338a8a8a6040517fdb39358c00000000000000000000000000000000000000000000000000000000815260040161183e9493929190618255565b60405180910390fd5b600160045f3373ffffffffffffffffffffffffffffffffffffffff1673ffffffffffffffffffffffffffffffffffffffff1681526020019081526020015f205f8c73ffffffffffffffffffffffffffffffffffffffff1673ffffffffffffffffffffffffffffffffffffffff1681526020019081526020015f205f8562ffffff1662ffffff1681526020019081526020015f205f8b60ff1660ff1681526020019081526020015f205f8a63ffffffff1663ffffffff1681526020019081526020015f205f6101000a81548160ff02191690831515021790555061192f818a836020015161570c565b5f80876bffffffffffffffffffffffff1614611a1f578573ffffffffffffffffffffffffffffffffffffffff167feeb4ea63ac93d08466c88060e80ed42f0641debf45e931025fbb35faf5f2ad1a8860405161198b919061817d565b60405180910390a2866bffffffffffffffffffffffff1660055f8873ffffffffffffffffffffffffffffffffffffffff1673ffffffffffffffffffffffffffffffffffffffff1681526020019081526020015f205f8282546119ed91906180da565b92505081905550866bffffffffffffffffffffffff168260200151036cffffffffffffffffffffffffff169050611a36565b81602001516cffffffffffffffffffffffffff1690505b602f5f81819054906101000a900462ffffff1680929190611a5690618298565b91906101000a81548162ffffff021916908362ffffff16021790555050611ab781602f60039054906101000a90046fffffffffffffffffffffffffffffffff166fffffffffffffffffffffffffffffffff16611ab291906180da565b615ad0565b602f60036101000a8154816fffffffffffffffffffffffffffffffff02191690836fffffffffffffffffffffffffffffffff160217905550611b3b876bffffffffffffffffffffffff16602f60139054906101000a90046cffffffffffffffffffffffffff16611b27919061810d565b6cffffffffffffffffffffffffff1661508d565b602f60136101000a8154816cffffffffffffffffffffffffff02191690836cffffffffffffffffffffffffff1602179055508773ffffffffffffffffffffffffffffffffffffffff168b73ffffffffffffffffffffffffffffffffffffffff163373ffffffffffffffffffffffffffffffffffffffff167f81d4e3306aa30f56dc9c3949abd8c27539b445f9ef380425f39f3f7114888e4f878e8e878e8e604051611beb969594939291906182ef565b60405180910390a45f811115611c4757611c4688827f000000000000000000000000000000000000000000000000000000000000000073ffffffffffffffffffffffffffffffffffffffff16615b2e9092919063ffffffff16565b5b81602001516cffffffffffffffffffffffffff169450505050509695505050505050565b5f600160119054906101000a900462ffffff16905090565b60015f9054906101000a90046fffffffffffffffffffffffffffffffff1681565b5f611cea7f0000000000000000000000000000000000000000000000000000000000000000600160119054906101000a900462ffffff16611ce59190618026565b61354b565b65ffffffffffff16905090565b5f602f60039054906101000a90046fffffffffffffffffffffffffffffffff166fffffffffffffffffffffffffffffffff16905090565b7f000000000000000000000000000000000000000000000000000000000000000073ffffffffffffffffffffffffffffffffffffffff163373ffffffffffffffffffffffffffffffffffffffff1614611db3576040517f47bc7cc800000000000000000000000000000000000000000000000000000000815260040160405180910390fd5b5f73ffffffffffffffffffffffffffffffffffffffff16602e5f9054906101000a900473ffffffffffffffffffffffffffffffffffffffff1673ffffffffffffffffffffffffffffffffffffffff1614611e39576040517ff113e20d00000000000000000000000000000000000000000000000000000000815260040160405180910390fd5b80602e5f6101000a81548173ffffffffffffffffffffffffffffffffffffffff021916908373ffffffffffffffffffffffffffffffffffffffff1602179055508073ffffffffffffffffffffffffffffffffffffffff167f358e588c5cd5d2bb706322d2e830055eeabb50b8db83d24061f87aff7dd0852660405160405180910390a250565b5f611f13838360035f61f2ee73ffffffffffffffffffffffffffffffffffffffff1673ffffffffffffffffffffffffffffffffffffffff1681526020019081526020015f206147c79092919063ffffffff16565b905092915050565b5f808262ffffff1614611f60578262ffffff168262ffffff1611611f565760018284611f47919061834e565b611f519190618026565b611f59565b60015b9050611f92565b6040517fb948ace100000000000000000000000000000000000000000000000000000000815260040160405180910390fd5b92915050565b5f602d54905090565b611fa96175d7565b611fee60035f8473ffffffffffffffffffffffffffffffffffffffff1673ffffffffffffffffffffffffffffffffffffffff1681526020019081526020015f20614f1a565b9050919050565b5f611fff82615bb4565b9050919050565b5f806120a56120a07f000000000000000000000000000000000000000000000000000000000000000073ffffffffffffffffffffffffffffffffffffffff1663495b77466040518163ffffffff1660e01b8152600401602060405180830381865afa158015612077573d5f803e3d5ffd5b505050506040513d601f19601f8201168201806040525081019061209b9190618398565b61268e565b612e48565b65ffffffffffff1690505f6120b8611ca4565b90508181106120c757816120c9565b805b9250505090565b7f000000000000000000000000000000000000000000000000000000000000000081565b600160149054906101000a900465ffffffffffff1681565b5f60027f000000000000000000000000000000000000000000000000000000000000000060ff1661213d91906183c3565b7f000000000000000000000000000000000000000000000000000000000000000060ff167f000000000000000000000000000000000000000000000000000000000000000060ff1660028561219291906181ca565b60ff1661219f91906183c3565b6121a991906180da565b6121b391906180da565b9050919050565b7f000000000000000000000000000000000000000000000000000000000000000081565b5f60055f8373ffffffffffffffffffffffffffffffffffffffff1673ffffffffffffffffffffffffffffffffffffffff1681526020019081526020015f20549050919050565b600160109054906101000a900460ff1681565b5f600460ff168260ff16101580156122565750600b60ff168260ff1611155b1561228a5761227060018361226b91906181ca565b615bb4565b612279836129b5565b6122839190618404565b905061228e565b5f90505b919050565b5f80600160109054906101000a900460ff1690505f600160119054906101000a900462ffffff1690505f612332835f8462ffffff16146122f0576122eb602f5f9054906101000a900462ffffff1662ffffff16611491565b6122f2565b845b60015f9054906101000a90046fffffffffffffffffffffffffffffffff1661232d6001876123209190618026565b612328612c14565b610e6e565b615bc9565b506bffffffffffffffffffffffff169050806cffffffffffffffffffffffffff16935050505090565b7f000000000000000000000000000000000000000000000000000000000000000081565b5f805f61238b85612e48565b90505f6123978561354b565b90507f000000000000000000000000000000000000000000000000000000000000000073ffffffffffffffffffffffffffffffffffffffff1663bb35799a898985856040518563ffffffff1660e01b81526004016123f8949392919061846b565b602060405180830381865afa158015612413573d5f803e3d5ffd5b505050506040513d601f19601f820116820180604052508101906124379190618398565b93507f000000000000000000000000000000000000000000000000000000000000000073ffffffffffffffffffffffffffffffffffffffff1663e7d7b2258984846040518463ffffffff1660e01b8152600401612496939291906184ae565b602060405180830381865afa1580156124b1573d5f803e3d5ffd5b505050506040513d601f19601f820116820180604052508101906124d59190618398565b9250505094509492505050565b6124ea612f2b565b15612521576040517fbee46da500000000000000000000000000000000000000000000000000000000815260040160405180910390fd5b8060025f8282829054906101000a90046bffffffffffffffffffffffff1661254991906184e3565b92506101000a8154816bffffffffffffffffffffffff02191690836bffffffffffffffffffffffff16021790555080602e60148282829054906101000a90046bffffffffffffffffffffffff166125a091906184e3565b92506101000a8154816bffffffffffffffffffffffff02191690836bffffffffffffffffffffffff1602179055506126293330836bffffffffffffffffffffffff167f000000000000000000000000000000000000000000000000000000000000000073ffffffffffffffffffffffffffffffffffffffff16615d0e909392919063ffffffff16565b3373ffffffffffffffffffffffffffffffffffffffff167f1d0cc8799b7a2ca858861054abd7190041668c65caaae12953b2b3ca09ac2c2d8260405161266f919061817d565b60405180910390a250565b602f5f9054906101000a900462ffffff1681565b5f807f000000000000000000000000000000000000000000000000000000000000000090508065ffffffffffff16831061271a5760017f000000000000000000000000000000000000000000000000000000000000000065ffffffffffff168265ffffffffffff16856127019190618522565b61270b9190618582565b6127159190618026565b61271d565b60015b915050919050565b6127723330837f000000000000000000000000000000000000000000000000000000000000000073ffffffffffffffffffffffffffffffffffffffff16615d0e909392919063ffffffff16565b61277e61f2ee8261420c565b5050565b602e5f9054906101000a900473ffffffffffffffffffffffffffffffffffffffff1681565b5f6127b06175d7565b6127b8612f2b565b156129b1575f60305f015f9054906101000a90046bffffffffffffffffffffffff166bffffffffffffffffffffffff1660305f01600c9054906101000a900473ffffffffffffffffffffffffffffffffffffffff1661281791906185b2565b73ffffffffffffffffffffffffffffffffffffffff160361290a5761283c6006614f1a565b90508060305f820151815f015f6101000a8154816bffffffffffffffffffffffff02191690836bffffffffffffffffffffffff1602179055506020820151815f01600c6101000a81548173ffffffffffffffffffffffffffffffffffffffff021916908373ffffffffffffffffffffffffffffffffffffffff160217905550905050602f60139054906101000a90046cffffffffffffffffffffffffff166cffffffffffffffffffffffffff166128f282614fe0565b6128fc9190618522565b9150816031819055506129b0565b60306040518060400160405290815f82015f9054906101000a90046bffffffffffffffffffffffff166bffffffffffffffffffffffff166bffffffffffffffffffffffff1681526020015f8201600c9054906101000a900473ffffffffffffffffffffffffffffffffffffffff1673ffffffffffffffffffffffffffffffffffffffff1673ffffffffffffffffffffffffffffffffffffffff1681525050905060315491505b5b9091565b5f60048260ff16036129e9577f00000000000000000000000000000000000000000000000000000000000000009050612b52565b60058260ff1603612a1c577f00000000000000000000000000000000000000000000000000000000000000009050612b52565b60068260ff1603612a4f577f00000000000000000000000000000000000000000000000000000000000000009050612b52565b60078260ff1603612a82577f00000000000000000000000000000000000000000000000000000000000000009050612b52565b60088260ff1603612ab5577f00000000000000000000000000000000000000000000000000000000000000009050612b52565b60098260ff1603612ae8577f00000000000000000000000000000000000000000000000000000000000000009050612b52565b600a8260ff1603612b1b577f00000000000000000000000000000000000000000000000000000000000000009050612b52565b600b8260ff1603612b4e577f00000000000000000000000000000000000000000000000000000000000000009050612b52565b5f90505b919050565b612b5f6175d7565b612b696006614f1a565b905090565b5f612bc0838360035f8873ffffffffffffffffffffffffffffffffffffffff1673ffffffffffffffffffffffffffffffffffffffff1681526020019081526020015f206147c79092919063ffffffff16565b90509392505050565b5f6002600160109054906101000a900460ff16612be691906181ca565b60ff168260ff1610159050919050565b5f612c0f600160109054906101000a900460ff16612237565b905090565b5f80612c1e611435565b905060018060119054906101000a900462ffffff1682612c3e919061834e565b62ffffff1611612c4e5780612c5c565b600181612c5b919061834e565b5b91505090565b7f000000000000000000000000000000000000000000000000000000000000000081565b5f80600160119054906101000a900462ffffff1690505f8162ffffff1603612cda576040517fbd7210dd00000000000000000000000000000000000000000000000000000000815260040160405180910390fd5b600160109054906101000a900460ff1660ff168460ff1610612d445783600160109054906101000a900460ff166040517f14560a90000000000000000000000000000000000000000000000000000000008152600401612d3b9291906185f9565b60405180910390fd5b5f612d5e85600160109054906101000a900460ff1661398c565b90505f612d9483612d8f847f0000000000000000000000000000000000000000000000000000000000000000615d97565b611f1b565b90505f612da087615bb4565b90508063ffffffff168663ffffffff1610612df6578581886040517fdae230d1000000000000000000000000000000000000000000000000000000008152600401612ded93929190618620565b60405180910390fd5b5f612e07858b8b8b8b602d54615deb565b90505f612e158b8588611386565b90505f80612e258d8d888b61237f565b91509150612e36848383868b615e2b565b98505050505050505050949350505050565b5f7f0000000000000000000000000000000000000000000000000000000000000000600183612e77919061834e565b62ffffff16612e869190618655565b7f0000000000000000000000000000000000000000000000000000000000000000612eb19190618691565b9050919050565b5f80600160109054906101000a900460ff169050612ed68382615e5d565b15612f2157612f19612ee88483615596565b6040015160015f9054906101000a90046fffffffffffffffffffffffffffffffff16612f148685615e6f565b615ede565b915050612f26565b5f9150505b919050565b5f612f34612006565b421015905090565b7f000000000000000000000000000000000000000000000000000000000000000081565b5f60025f9054906101000a90046bffffffffffffffffffffffff16905090565b5f60045f8773ffffffffffffffffffffffffffffffffffffffff1673ffffffffffffffffffffffffffffffffffffffff1681526020019081526020015f205f8673ffffffffffffffffffffffffffffffffffffffff1673ffffffffffffffffffffffffffffffffffffffff1681526020019081526020015f205f8562ffffff1662ffffff1681526020019081526020015f205f8460ff1660ff1681526020019081526020015f205f8363ffffffff1663ffffffff1681526020019081526020015f205f9054906101000a900460ff16905095945050505050565b5f613063612f2b565b613099576040517ff84b2b3300000000000000000000000000000000000000000000000000000000815260040160405180910390fd5b5f6130a4843361447c565b90506130b06006614f1a565b60325f8673ffffffffffffffffffffffffffffffffffffffff1673ffffffffffffffffffffffffffffffffffffffff1681526020019081526020015f205f3373ffffffffffffffffffffffffffffffffffffffff1673ffffffffffffffffffffffffffffffffffffffff1681526020019081526020015f205f820151815f015f6101000a8154816bffffffffffffffffffffffff02191690836bffffffffffffffffffffffff1602179055506020820151815f01600c6101000a81548173ffffffffffffffffffffffffffffffffffffffff021916908373ffffffffffffffffffffffffffffffffffffffff1602179055509050505f81111561325c576131f883827f000000000000000000000000000000000000000000000000000000000000000073ffffffffffffffffffffffffffffffffffffffff16615b2e9092919063ffffffff16565b80602f60038282829054906101000a90046fffffffffffffffffffffffffffffffff1661322591906186ca565b92506101000a8154816fffffffffffffffffffffffffffffffff02191690836fffffffffffffffffffffffffffffffff1602179055505b8091505092915050565b7f000000000000000000000000000000000000000000000000000000000000000081565b5f6132a3600160109054906101000a900460ff1661210c565b905090565b5f60055f3373ffffffffffffffffffffffffffffffffffffffff1673ffffffffffffffffffffffffffffffffffffffff1681526020019081526020015f20549050808211156133305781816040517fd4f51f7c000000000000000000000000000000000000000000000000000000008152600401613327929190617cee565b60405180910390fd5b81810360055f3373ffffffffffffffffffffffffffffffffffffffff1673ffffffffffffffffffffffffffffffffffffffff1681526020019081526020015f20819055506133b882602f60039054906101000a90046fffffffffffffffffffffffffffffffff166fffffffffffffffffffffffffffffffff166133b391906180da565b615ad0565b602f60036101000a8154816fffffffffffffffffffffffffffffffff02191690836fffffffffffffffffffffffffffffffff16021790555061342e82602f60139054906101000a90046cffffffffffffffffffffffffff166cffffffffffffffffffffffffff166134299190618522565b61508d565b602f60136101000a8154816cffffffffffffffffffffffffff02191690836cffffffffffffffffffffffffff1602179055503073ffffffffffffffffffffffffffffffffffffffff168373ffffffffffffffffffffffffffffffffffffffff16146134df576134de83837f000000000000000000000000000000000000000000000000000000000000000073ffffffffffffffffffffffffffffffffffffffff16615b2e9092919063ffffffff16565b5b8273ffffffffffffffffffffffffffffffffffffffff163373ffffffffffffffffffffffffffffffffffffffff167ff4e9e956ba4b65051e84982c3ade043c89890cdbc452e9e446afe09cd4db40c8848460405161353e929190617cee565b60405180910390a3505050565b5f7f00000000000000000000000000000000000000000000000000000000000000008262ffffff1661357d9190618655565b7f00000000000000000000000000000000000000000000000000000000000000006135a89190618691565b9050919050565b5f8060016135bb611370565b6135c5919061834e565b90505f6135f2827f0000000000000000000000000000000000000000000000000000000000000000611f1b565b90505f806136018784866150f1565b915091505f806136138989878961237f565b915091505f81148061362457505f83145b15613637575f9650505050505050613697565b61368e61364382615f4c565b61368061364f85615f4c565b61367261365b88615f4c565b6136648a615f4c565b615fd790919063ffffffff16565b61600b90919063ffffffff16565b615fd790919063ffffffff16565b96505050505050505b92915050565b5f602e5f9054906101000a900473ffffffffffffffffffffffffffffffffffffffff1673ffffffffffffffffffffffffffffffffffffffff163373ffffffffffffffffffffffffffffffffffffffff16146137525733602e5f9054906101000a900473ffffffffffffffffffffffffffffffffffffffff166040517f11fb346300000000000000000000000000000000000000000000000000000000815260040161374992919061805c565b60405180910390fd5b61375a612f2b565b15613791576040517fbee46da500000000000000000000000000000000000000000000000000000000815260040160405180910390fd5b5f82036137ca576040517f9f15fa7400000000000000000000000000000000000000000000000000000000815260040160405180910390fd5b5f6137d3612c14565b90505f6137df82612e48565b90505f7f00000000000000000000000000000000000000000000000000000000000000008261380e9190618691565b90508065ffffffffffff1642101561385d57806040517ffb8a1cf00000000000000000000000000000000000000000000000000000000081526004016138549190617c71565b60405180910390fd5b5f600160119054906101000a900462ffffff1690505f602f5f9054906101000a900462ffffff1662ffffff1690505f600160109054906101000a900460ff1690505f8190506138ab83611491565b90506138cd87826138c86001886138c29190618026565b8b610e6e565b616036565b88602d819055505f8363ffffffff1614613900575f602f5f6101000a81548162ffffff021916908362ffffff1602179055505b8662ffffff167f60785c409db91938793d3f74013b06843f82ea0588265495b262b016fe5323ae8a848460025f9054906101000a90046bffffffffffffffffffffffff1660015f9054906101000a90046fffffffffffffffffffffffffffffffff168c6040516139759695949392919061870d565b60405180910390a286975050505050505050919050565b5f808360ff16036139bf577f000000000000000000000000000000000000000000000000000000000000000090506141be565b60038260ff1603613a025760028360ff16116139fd577f000000000000000000000000000000000000000000000000000000000000000090506141be565b6141b2565b60048260ff1603613a455760038360ff1611613a40577f000000000000000000000000000000000000000000000000000000000000000090506141be565b6141b1565b60058260ff1603613abb5760018360ff1603613a83577f000000000000000000000000000000000000000000000000000000000000000090506141be565b60048360ff1611613ab6577f000000000000000000000000000000000000000000000000000000000000000090506141be565b6141b0565b60068260ff1603613b645760018360ff1603613af9577f000000000000000000000000000000000000000000000000000000000000000090506141be565b60028360ff1603613b2c577f000000000000000000000000000000000000000000000000000000000000000090506141be565b60058360ff1611613b5f577f000000000000000000000000000000000000000000000000000000000000000090506141be565b6141af565b60078260ff1603613c405760018360ff1603613ba2577f000000000000000000000000000000000000000000000000000000000000000090506141be565b60028360ff1603613bd5577f000000000000000000000000000000000000000000000000000000000000000090506141be565b60038360ff1603613c08577f000000000000000000000000000000000000000000000000000000000000000090506141be565b60068360ff1611613c3b577f000000000000000000000000000000000000000000000000000000000000000090506141be565b6141ae565b60088260ff1603613d4f5760018360ff1603613c7e577f000000000000000000000000000000000000000000000000000000000000000090506141be565b60028360ff1603613cb1577f000000000000000000000000000000000000000000000000000000000000000090506141be565b60038360ff1603613ce4577f000000000000000000000000000000000000000000000000000000000000000090506141be565b60048360ff1603613d17577f000000000000000000000000000000000000000000000000000000000000000090506141be565b60078360ff1611613d4a577f000000000000000000000000000000000000000000000000000000000000000090506141be565b6141ad565b60098260ff1603613e915760018360ff1603613d8d577f000000000000000000000000000000000000000000000000000000000000000090506141be565b60028360ff1603613dc0577f000000000000000000000000000000000000000000000000000000000000000090506141be565b60038360ff1603613df3577f000000000000000000000000000000000000000000000000000000000000000090506141be565b60048360ff1603613e26577f000000000000000000000000000000000000000000000000000000000000000090506141be565b60058360ff1603613e59577f000000000000000000000000000000000000000000000000000000000000000090506141be565b60088360ff1611613e8c577f000000000000000000000000000000000000000000000000000000000000000090506141be565b6141ac565b600a8260ff16036140065760018360ff1603613ecf577f000000000000000000000000000000000000000000000000000000000000000090506141be565b60028360ff1603613f02577f000000000000000000000000000000000000000000000000000000000000000090506141be565b60038360ff1603613f35577f000000000000000000000000000000000000000000000000000000000000000090506141be565b60048360ff1603613f68577f000000000000000000000000000000000000000000000000000000000000000090506141be565b60058360ff1603613f9b577f000000000000000000000000000000000000000000000000000000000000000090506141be565b60068360ff1603613fce577f000000000000000000000000000000000000000000000000000000000000000090506141be565b60098360ff1611614001577f000000000000000000000000000000000000000000000000000000000000000090506141be565b6141ab565b600b8260ff16036141aa5760018360ff1603614044577f000000000000000000000000000000000000000000000000000000000000000090506141be565b60028360ff1603614077577f000000000000000000000000000000000000000000000000000000000000000090506141be565b60038360ff16036140aa577f000000000000000000000000000000000000000000000000000000000000000090506141be565b60048360ff16036140dd577f000000000000000000000000000000000000000000000000000000000000000090506141be565b60058360ff1603614110577f000000000000000000000000000000000000000000000000000000000000000090506141be565b60068360ff1603614143577f000000000000000000000000000000000000000000000000000000000000000090506141be565b60078360ff1603614176577f000000000000000000000000000000000000000000000000000000000000000090506141be565b600a8360ff16116141a9577f000000000000000000000000000000000000000000000000000000000000000090506141be565b5b5b5b5b5b5b5b5b5b6141bb5f6150e8565b90505b92915050565b7f000000000000000000000000000000000000000000000000000000000000000081565b7f000000000000000000000000000000000000000000000000000000000000000081565b5f80614216610e8d565b7f000000000000000000000000000000000000000000000000000000000000000073ffffffffffffffffffffffffffffffffffffffff166370a08231306040518263ffffffff1660e01b815260040161426f9190617819565b602060405180830381865afa15801561428a573d5f803e3d5ffd5b505050506040513d601f19601f820116820180604052508101906142ae9190618398565b6142b89190618522565b9050828110156143015782816040517f96908d600000000000000000000000000000000000000000000000000000000081526004016142f8929190617cee565b60405180910390fd5b5f61430a611435565b905061435d848260035f8973ffffffffffffffffffffffffffffffffffffffff1673ffffffffffffffffffffffffffffffffffffffff1681526020019081526020015f206162ef9092919063ffffffff16565b50614374848260066162ef9092919063ffffffff16565b508062ffffff168573ffffffffffffffffffffffffffffffffffffffff167f5003852720160444a61076ba7bfd246c7fbe2529223dfefc1386c8459dc80cd4866040516143c191906176e9565b60405180910390a3819250505092915050565b5f6143ed600160109054906101000a900460ff166129b5565b905090565b5f61443561440f83600160109054906101000a900460ff1661398c565b7f0000000000000000000000000000000000000000000000000000000000000000615d97565b9050919050565b5f80600160109054906101000a900460ff16905061445a8382615e5d565b15614472576144698382615596565b60200151614474565b5f5b915050919050565b5f614485612f2b565b614491575f90506147c1565b5f60325f8573ffffffffffffffffffffffffffffffffffffffff1673ffffffffffffffffffffffffffffffffffffffff1681526020019081526020015f205f8473ffffffffffffffffffffffffffffffffffffffff1673ffffffffffffffffffffffffffffffffffffffff1681526020019081526020015f206040518060400160405290815f82015f9054906101000a90046bffffffffffffffffffffffff166bffffffffffffffffffffffff166bffffffffffffffffffffffff1681526020015f8201600c9054906101000a900473ffffffffffffffffffffffffffffffffffffffff1673ffffffffffffffffffffffffffffffffffffffff1673ffffffffffffffffffffffffffffffffffffffff168152505090505f805f8360200151845f01516bffffffffffffffffffffffff166145cc91906185b2565b73ffffffffffffffffffffffffffffffffffffffff1603614685576145ef6127a7565b809450819250505061460186866135af565b91508160335f8873ffffffffffffffffffffffffffffffffffffffff1673ffffffffffffffffffffffffffffffffffffffff1681526020019081526020015f205f8773ffffffffffffffffffffffffffffffffffffffff1673ffffffffffffffffffffffffffffffffffffffff1681526020019081526020015f2081905550614701565b60335f8773ffffffffffffffffffffffffffffffffffffffff1673ffffffffffffffffffffffffffffffffffffffff1681526020019081526020015f205f8673ffffffffffffffffffffffffffffffffffffffff1673ffffffffffffffffffffffffffffffffffffffff1681526020019081526020015f205491505b5f61470b8361688c565b0361471b575f93505050506147c1565b5f6147266006614f1a565b90508360200151845f01516bffffffffffffffffffffffff1661474991906185b2565b8160200151825f01516bffffffffffffffffffffffff1661476a91906185b2565b614774919061876c565b73ffffffffffffffffffffffffffffffffffffffff168261479591906180da565b91506147ba6147b5846147a785615f4c565b61600b90919063ffffffff16565b616895565b9450505050505b92915050565b5f8162ffffff168362ffffff1611156148195782826040517f147b8d850000000000000000000000000000000000000000000000000000000081526004016148109291906187b3565b60405180910390fd5b5f845f016040518060400160405290815f82015f9054906101000a900461ffff1661ffff1661ffff1681526020015f820160029054906101000a900461ffff1661ffff1661ffff168152505090505f816020015161ffff160361487f575f915050614f13565b5f6148a0825f015161ffff16836020015161ffff1661016e61ffff166168b1565b90505f6148bc835f015161ffff16846020015161ffff166168e1565b90505f876001018361ffff1661016e81106148da576148d96187da565b5b600a91828204019190066003029054906101000a900462ffffff1690505f886001018361ffff1661016e8110614913576149126187da565b5b600a91828204019190066003029054906101000a900462ffffff1690508162ffffff168762ffffff16108061495157508062ffffff168862ffffff16115b15614963575f95505050505050614f13565b61496b6175d7565b8262ffffff168962ffffff1611158061498c57506001866020015161ffff16145b15614a4c57896026015f8462ffffff1681526020019081526020015f206040518060400160405290815f82015f9054906101000a90046bffffffffffffffffffffffff166bffffffffffffffffffffffff166bffffffffffffffffffffffff1681526020015f8201600c9054906101000a900473ffffffffffffffffffffffffffffffffffffffff1673ffffffffffffffffffffffffffffffffffffffff1673ffffffffffffffffffffffffffffffffffffffff16815250509050614c13565b896026015f8a62ffffff1681526020019081526020015f206040518060400160405290815f82015f9054906101000a90046bffffffffffffffffffffffff166bffffffffffffffffffffffff166bffffffffffffffffffffffff1681526020015f8201600c9054906101000a900473ffffffffffffffffffffffffffffffffffffffff1673ffffffffffffffffffffffffffffffffffffffff1673ffffffffffffffffffffffffffffffffffffffff168152505090505f815f01516bffffffffffffffffffffffff16148015614b3b57505f816020015173ffffffffffffffffffffffffffffffffffffffff16145b15614c12575f614b558b60010187878a602001518e61691b565b93505050508a6026015f8262ffffff1681526020019081526020015f206040518060400160405290815f82015f9054906101000a90046bffffffffffffffffffffffff166bffffffffffffffffffffffff166bffffffffffffffffffffffff1681526020015f8201600c9054906101000a900473ffffffffffffffffffffffffffffffffffffffff1673ffffffffffffffffffffffffffffffffffffffff1673ffffffffffffffffffffffffffffffffffffffff16815250509150505b5b614c1b6175d7565b8262ffffff168962ffffff16101580614c3c57506001876020015161ffff16145b15614cfc578a6026015f8462ffffff1681526020019081526020015f206040518060400160405290815f82015f9054906101000a90046bffffffffffffffffffffffff166bffffffffffffffffffffffff166bffffffffffffffffffffffff1681526020015f8201600c9054906101000a900473ffffffffffffffffffffffffffffffffffffffff1673ffffffffffffffffffffffffffffffffffffffff1673ffffffffffffffffffffffffffffffffffffffff16815250509050614ec3565b8a6026015f8a62ffffff1681526020019081526020015f206040518060400160405290815f82015f9054906101000a90046bffffffffffffffffffffffff166bffffffffffffffffffffffff166bffffffffffffffffffffffff1681526020015f8201600c9054906101000a900473ffffffffffffffffffffffffffffffffffffffff1673ffffffffffffffffffffffffffffffffffffffff1673ffffffffffffffffffffffffffffffffffffffff168152505090505f815f01516bffffffffffffffffffffffff16148015614deb57505f816020015173ffffffffffffffffffffffffffffffffffffffff16145b15614ec2575f614e058c60010188888b602001518e61691b565b50509150508b6026015f8262ffffff1681526020019081526020015f206040518060400160405290815f82015f9054906101000a90046bffffffffffffffffffffffff166bffffffffffffffffffffffff166bffffffffffffffffffffffff1681526020015f8201600c9054906101000a900473ffffffffffffffffffffffffffffffffffffffff1673ffffffffffffffffffffffffffffffffffffffff1673ffffffffffffffffffffffffffffffffffffffff16815250509150505b5b81602001518160200151825f01516bffffffffffffffffffffffff16614ee991906185b2565b614ef3919061876c565b73ffffffffffffffffffffffffffffffffffffffff169750505050505050505b9392505050565b614f226175d7565b816026015f614f3084616a7a565b81526020019081526020015f206040518060400160405290815f82015f9054906101000a90046bffffffffffffffffffffffff166bffffffffffffffffffffffff166bffffffffffffffffffffffff1681526020015f8201600c9054906101000a900473ffffffffffffffffffffffffffffffffffffffff1673ffffffffffffffffffffffffffffffffffffffff1673ffffffffffffffffffffffffffffffffffffffff16815250509050919050565b5f602f60039054906101000a90046fffffffffffffffffffffffffffffffff166fffffffffffffffffffffffffffffffff16602e60149054906101000a90046bffffffffffffffffffffffff166bffffffffffffffffffffffff168360200151845f01516bffffffffffffffffffffffff1661505c91906185b2565b73ffffffffffffffffffffffffffffffffffffffff1661507c91906180da565b6150869190618522565b9050919050565b5f6cffffffffffffffffffffffffff80168211156150e0576040517f08c379a00000000000000000000000000000000000000000000000000000000081526004016150d790618887565b60405180910390fd5b819050919050565b5f819050919050565b5f805f61510a858560066147c79092919063ffffffff16565b90505f615160868660035f61f2ee73ffffffffffffffffffffffffffffffffffffffff1673ffffffffffffffffffffffffffffffffffffffff1681526020019081526020015f206147c79092919063ffffffff16565b9050808261516e9190618522565b92506151c1868660035f8b73ffffffffffffffffffffffffffffffffffffffff1673ffffffffffffffffffffffffffffffffffffffff1681526020019081526020015f206147c79092919063ffffffff16565b93505050935093915050565b5f7f7fffffffffffffffffffffffffffffffffffffffffffffffffffffffffffffff821115615231576040517f08c379a000000000000000000000000000000000000000000000000000000000815260040161522890618915565b60405180910390fd5b819050919050565b5f8061524484616ade565b90505f61525084616ade565b90507f800000000000000000000000000000000000000000000000000000000000000082148061529f57507f800000000000000000000000000000000000000000000000000000000000000081145b156152d6576040517f9fe2b45000000000000000000000000000000000000000000000000000000000815260040160405180910390fd5b5f805f84126152e557836152e9565b835f035b91505f83126152f857826152fc565b825f035b90505f61531283670de0b6b3a764000084616ae7565b90507f7fffffffffffffffffffffffffffffffffffffffffffffffffffffffffffffff81111561537b5787876040517fd49c26b3000000000000000000000000000000000000000000000000000000008152600401615372929190618933565b60405180910390fd5b5f7fffffffffffffffffffffffffffffffffffffffffffffffffffffffffffffffff8587181390506153ba816153b357825f036153b5565b825b616bf9565b965050505050505092915050565b5f806002836153d7919061895a565b90507f000000000000000000000000000000000000000000000000000000000000000063ffffffff168163ffffffff161015615417576004915050615591565b7f000000000000000000000000000000000000000000000000000000000000000063ffffffff168163ffffffff161015615455576005915050615591565b7f000000000000000000000000000000000000000000000000000000000000000063ffffffff168163ffffffff161015615493576006915050615591565b7f000000000000000000000000000000000000000000000000000000000000000063ffffffff168163ffffffff1610156154d1576007915050615591565b7f000000000000000000000000000000000000000000000000000000000000000063ffffffff168163ffffffff16101561550f576008915050615591565b7f000000000000000000000000000000000000000000000000000000000000000063ffffffff168163ffffffff16101561554d576009915050615591565b7f000000000000000000000000000000000000000000000000000000000000000063ffffffff168163ffffffff16101561558b57600a915050615591565b600b9150505b919050565b61559e617613565b5f805f8560ff1660ff1681526020019081526020015f206040518060600160405290815f82015f9054906101000a900462ffffff1662ffffff1662ffffff1681526020015f820160039054906101000a90046cffffffffffffffffffffffffff166cffffffffffffffffffffffffff166cffffffffffffffffffffffffff1681526020015f820160109054906101000a90046fffffffffffffffffffffffffffffffff166fffffffffffffffffffffffffffffffff166fffffffffffffffffffffffffffffffff168152505090505f600160119054906101000a900462ffffff1690508062ffffff16825f015162ffffff16146157015780825f019062ffffff16908162ffffff16815250506156d78585846040015160015f9054906101000a90046fffffffffffffffffffffffffffffffff16616c02565b82602001906cffffffffffffffffffffffffff1690816cffffffffffffffffffffffffff16815250505b819250505092915050565b5f61572683600160109054906101000a900460ff16615e6f565b90505f61575d615758866040015160015f9054906101000a90046fffffffffffffffffffffffffffffffff1685615ede565b61508d565b9050806cffffffffffffffffffffffffff16836cffffffffffffffffffffffffff1611156158fc575f6157a982856157959190618996565b6cffffffffffffffffffffffffff16616cbe565b905060025f9054906101000a90046bffffffffffffffffffffffff166bffffffffffffffffffffffff16816bffffffffffffffffffffffff16111561582557836040517f37891a7e00000000000000000000000000000000000000000000000000000000815260040161581c9190617fe0565b60405180910390fd5b8060025f8282829054906101000a90046bffffffffffffffffffffffff160392506101000a8154816bffffffffffffffffffffffff02191690836bffffffffffffffffffffffff1602179055507f01b0c36286a79b0a18a8ac370c284b84f47d521151940da35082feb5aace3fea816040516158a1919061817d565b60405180910390a160015f9054906101000a90046fffffffffffffffffffffffffffffffff1686604001906fffffffffffffffffffffffffffffffff1690816fffffffffffffffffffffffffffffffff168152505050615a17565b5f8260ff168461590c91906189d6565b90505f808260ff161461592a57818461592591906181ca565b61592c565b5f5b90505f8160ff161115615993578060ff1660025f8282829054906101000a90046bffffffffffffffffffffffff1661596491906184e3565b92506101000a8154816bffffffffffffffffffffffff02191690836bffffffffffffffffffffffff1602179055505b8360ff166159bd8260ff16876cffffffffffffffffffffffffff166159b891906180da565b61508d565b6159c79190618a06565b6cffffffffffffffffffffffffff16876040018181516159e791906186ca565b9150906fffffffffffffffffffffffffffffffff1690816fffffffffffffffffffffffffffffffff168152505050505b845f808660ff1660ff1681526020019081526020015f205f820151815f015f6101000a81548162ffffff021916908362ffffff1602179055506020820151815f0160036101000a8154816cffffffffffffffffffffffffff02191690836cffffffffffffffffffffffffff1602179055506040820151815f0160106101000a8154816fffffffffffffffffffffffffffffffff02191690836fffffffffffffffffffffffffffffffff1602179055509050505050505050565b5f6fffffffffffffffffffffffffffffffff8016821115615b26576040517f08c379a0000000000000000000000000000000000000000000000000000000008152600401615b1d90618aa6565b60405180910390fd5b819050919050565b615baf8363a9059cbb60e01b8484604051602401615b4d929190618ac4565b604051602081830303815290604052907bffffffffffffffffffffffffffffffffffffffffffffffffffffffff19166020820180517bffffffffffffffffffffffffffffffffffffffffffffffffffffffff8381831617835250505050616d18565b505050565b5f816004615bc29190618c1a565b9050919050565b5f805f80615bd78888616dde565b90505f8890505f8290505b8160ff168160ff161015615c5257615c385f808360ff1660ff1681526020019081526020015f205f0160109054906101000a90046fffffffffffffffffffffffffffffffff1689615c33848e615e6f565b615ede565b84615c4391906180da565b93508080600101915050615be2565b5050505f8185615c6291906180da565b90505f615c6e8861210c565b90505f8183615c7d9190618582565b9050615ca581896fffffffffffffffffffffffffffffffff16615ca091906180da565b615ad0565b9450615cff8282615cb691906183c3565b847f000000000000000000000000000000000000000000000000000000000000000060ff1684615ce691906183c3565b615cf091906180da565b615cfa9190618522565b616cbe565b95505050505094509492505050565b615d91846323b872dd60e01b858585604051602401615d2f93929190618c64565b604051602081830303815290604052907bffffffffffffffffffffffffffffffffffffffffffffffffffffffff19166020820180517bffffffffffffffffffffffffffffffffffffffffffffffffffffffff8381831617835250505050616d18565b50505050565b5f80615dcc615dc7615dc286615db4670de0b6b3a76400006150e8565b61523990919063ffffffff16565b616e08565b616ed0565b90508262ffffff168111615de05780615de2565b825b91505092915050565b5f868686868686604051602001615e0796959493929190618c99565b604051602081830303815290604052805190602001205f1c90509695505050505050565b5f808403615e3b575f9050615e54565b615e46858484616eec565b615e508786616f2b565b1090505b95945050505050565b5f8160ff168360ff1610905092915050565b5f80600383615e7e91906181ca565b60ff168460ff1611615eb0577f0000000000000000000000000000000000000000000000000000000000000000615ed2565b7f00000000000000000000000000000000000000000000000000000000000000005b90508091505092915050565b5f80836fffffffffffffffffffffffffffffffff16856fffffffffffffffffffffffffffffffff161015615f3d578260ff168585615f1c9190618cf8565b6fffffffffffffffffffffffffffffffff16615f3891906183c3565b615f3f565b5f5b9050809150509392505050565b5f670de0b6b3a76400007fffffffffffffffffffffffffffffffffffffffffffffffffffffffffffffffff615f819190618582565b821115615fc557816040517f1cd951a7000000000000000000000000000000000000000000000000000000008152600401615fbc91906176e9565b60405180910390fd5b670de0b6b3a764000082029050919050565b5f616003615ffe615fe78561688c565b670de0b6b3a7640000615ff98661688c565b616ae7565b617005565b905092915050565b5f61602e61602961601b8561688c565b6160248561688c565b61700e565b617005565b905092915050565b600460ff168260ff16101561608257816040517f0ea0e9f90000000000000000000000000000000000000000000000000000000081526004016160799190617a5f565b60405180910390fd5b5f600160109054906101000a900460ff1690505f60015f9054906101000a90046fffffffffffffffffffffffffffffffff1690505f806160c484878588615bc9565b915091505f6160d38588616dde565b90505f8790505f8290505b8160ff168160ff1610156161f65760405180606001604052808b62ffffff16815260200161610e838c8a89616c02565b6cffffffffffffffffffffffffff168152602001876fffffffffffffffffffffffffffffffff168152505f808360ff1660ff1681526020019081526020015f205f820151815f015f6101000a81548162ffffff021916908362ffffff1602179055506020820151815f0160036101000a8154816cffffffffffffffffffffffffff02191690836cffffffffffffffffffffffffff1602179055506040820151815f0160106101000a8154816fffffffffffffffffffffffffffffffff02191690836fffffffffffffffffffffffffffffffff16021790555090505080806001019150506160de565b508260015f6101000a8154816fffffffffffffffffffffffffffffffff02191690836fffffffffffffffffffffffffffffffff16021790555087600160106101000a81548160ff021916908360ff16021790555088600160116101000a81548162ffffff021916908362ffffff16021790555042600160146101000a81548165ffffffffffff021916908365ffffffffffff1602179055508360025f8282829054906101000a90046bffffffffffffffffffffffff166162b691906184e3565b92506101000a8154816bffffffffffffffffffffffff02191690836bffffffffffffffffffffffff160217905550505050505050505050565b5f808262ffffff160361632e576040517f1136607d00000000000000000000000000000000000000000000000000000000815260040160405180910390fd5b5f845f016040518060400160405290815f82015f9054906101000a900461ffff1661ffff1661ffff1681526020015f820160029054906101000a900461ffff1661ffff1661ffff168152505090505f85600101616398835f015161ffff1661016e61ffff166168e1565b61016e81106163aa576163a96187da565b5b600a91828204019190066003029054906101000a900462ffffff1690508062ffffff168462ffffff1610156164185783816040517fe90edcd200000000000000000000000000000000000000000000000000000000815260040161640f9291906187b3565b60405180910390fd5b5f8660260190505f815f8462ffffff1681526020019081526020015f206040518060400160405290815f82015f9054906101000a90046bffffffffffffffffffffffff166bffffffffffffffffffffffff166bffffffffffffffffffffffff1681526020015f8201600c9054906101000a900473ffffffffffffffffffffffffffffffffffffffff1673ffffffffffffffffffffffffffffffffffffffff1673ffffffffffffffffffffffffffffffffffffffff168152505090508262ffffff168662ffffff161461678a575f8460200151905061016e61ffff16856020015161ffff1610156165165760018161650f9190618d48565b90506165aa565b825f8a600101875f015161ffff1661016e8110616536576165356187da565b5b600a91828204019190066003029054906101000a900462ffffff1662ffffff1681526020019081526020015f205f8082015f6101000a8154906bffffffffffffffffffffffff02191690555f8201600c6101000a81549073ffffffffffffffffffffffffffffffffffffffff021916905550505b8689600101865f015161ffff1661016e81106165c9576165c86187da565b5b600a91828204019190066003026101000a81548162ffffff021916908362ffffff16021790555060405180604001604052806166048a616cbe565b6bffffffffffffffffffffffff168152602001616656845f01516bffffffffffffffffffffffff16856020015161663b91906185b2565b73ffffffffffffffffffffffffffffffffffffffff166170f3565b73ffffffffffffffffffffffffffffffffffffffff16815250835f8962ffffff1681526020019081526020015f205f820151815f015f6101000a8154816bffffffffffffffffffffffff02191690836bffffffffffffffffffffffff1602179055506020820151815f01600c6101000a81548173ffffffffffffffffffffffffffffffffffffffff021916908373ffffffffffffffffffffffffffffffffffffffff1602179055509050506040518060400160405280616723875f015161ffff1661016e61ffff16617155565b61ffff1681526020018261ffff16815250895f015f820151815f015f6101000a81548161ffff021916908361ffff1602179055506020820151815f0160026101000a81548161ffff021916908361ffff160217905550905050600195505050505050616885565b60405180604001604052806167ba89845f01516bffffffffffffffffffffffff166167b591906180da565b616cbe565b6bffffffffffffffffffffffff168152602001826020015173ffffffffffffffffffffffffffffffffffffffff16815250825f8562ffffff1681526020019081526020015f205f820151815f015f6101000a8154816bffffffffffffffffffffffff02191690836bffffffffffffffffffffffff1602179055506020820151815f01600c6101000a81548173ffffffffffffffffffffffffffffffffffffffff021916908373ffffffffffffffffffffffffffffffffffffffff1602179055509050505f9450505050505b9392505050565b5f819050919050565b5f670de0b6b3a7640000826168aa9190618582565b9050919050565b5f818310156168c2575f90506168da565b6168d782856168d191906180da565b83617174565b90505b9392505050565b5f8082036168f1575f9050616915565b6169126001838561690291906180da565b61690c9190618522565b83617174565b90505b92915050565b5f805f805f8890505f8161ffff168961ffff16106169395788616952565b600188836169479190618d48565b6169519190618d7d565b5b90505f5b600115616a6b576002828461696b9190618d48565b6169759190618db2565b90506169898161ffff168a61ffff16617174565b96508b8761ffff1661016e81106169a3576169a26187da565b5b600a91828204019190066003029054906101000a900462ffffff1695506169d28161ffff168a61ffff16617155565b94508b8561ffff1661016e81106169ec576169eb6187da565b5b600a91828204019190066003029054906101000a900462ffffff1693505f8862ffffff168762ffffff1611159050808015616a3157508462ffffff168962ffffff1611155b15616a3c5750616a6b565b80616a5557600182616a4e9190618d7d565b9250616a65565b600182616a629190618d48565b93505b50616956565b50505095509550955095915050565b5f81600101616aa5835f015f015f9054906101000a900461ffff1661ffff1661016e61ffff166168e1565b61016e8110616ab757616ab66187da565b5b600a91828204019190066003029054906101000a900462ffffff1662ffffff169050919050565b5f819050919050565b5f805f80198587098587029250828110838203039150505f8103616b1f57838281616b1557616b14618555565b5b0492505050616bf2565b838110616b67578585856040517f63a05778000000000000000000000000000000000000000000000000000000008152600401616b5e93929190618de2565b60405180910390fd5b5f8486880990508281118203915080830392505f6001861901861690505f81870496508185049450600182835f0304019050808402851794505f60028860030218905080880260020381029050808802600203810290508088026002038102905080880260020381029050808802600203810290508088026002038102905080860296505050505050505b9392505050565b5f819050919050565b5f80616c0d86615bb4565b90505f616c248585616c1f8a8a615e6f565b615ede565b90505f616c84616c7f616c3685615f4c565b616c717f0000000000000000000000000000000000000000000000000000000000000000616c6387615f4c565b61600b90919063ffffffff16565b615fd790919063ffffffff16565b616895565b90506cffffffffffffffffffffffffff80168111616ca25780616cb1565b6cffffffffffffffffffffffffff5b9350505050949350505050565b5f6bffffffffffffffffffffffff8016821115616d10576040517f08c379a0000000000000000000000000000000000000000000000000000000008152600401616d0790618e87565b60405180910390fd5b819050919050565b5f616d79826040518060400160405280602081526020017f5361666545524332303a206c6f772d6c6576656c2063616c6c206661696c65648152508573ffffffffffffffffffffffffffffffffffffffff166171899092919063ffffffff16565b90505f81511480616d9a575080806020019051810190616d999190618ecf565b5b616dd9576040517f08c379a0000000000000000000000000000000000000000000000000000000008152600401616dd090618f6a565b60405180910390fd5b505050565b5f60028360ff168360ff1611616df45782616df6565b835b616e0091906181ca565b905092915050565b5f80616e1383616ade565b90507f7ffffffffffffffffffffffffffffffffffffffffffffffff5023c9904400000811315616e7a57826040517f742fb98c000000000000000000000000000000000000000000000000000000008152600401616e719190617a37565b60405180910390fd5b5f670de0b6b3a764000082616e8f9190618f88565b90505f8103616ea057839250616ec9565b5f81830390505f831315616ebc57670de0b6b3a7640000810190505b616ec581616bf9565b9350505b5050919050565b5f670de0b6b3a764000082616ee59190618fb8565b9050919050565b5f616f22616f1d84616f0f85616f01896171a0565b6172a390919063ffffffff16565b6172a390919063ffffffff16565b616ed0565b90509392505050565b5f808203616f65576040517fd1d533f100000000000000000000000000000000000000000000000000000000815260040160405180910390fd5b5f826001847fffffffffffffffffffffffffffffffffffffffffffffffffffffffffffffffff616f959190618522565b616f9f91906180da565b616fa99190619020565b90505f8490505b600115616fef5781811015616fef5780604051602001616fd09190619070565b604051602081830303815290604052805190602001205f1c9050616fb0565b8381616ffb9190619020565b9250505092915050565b5f819050919050565b5f805f80198486098486029250828110838203039150505f810361704e57670de0b6b3a7640000828161704457617043618555565b5b04925050506170ed565b670de0b6b3a7640000811061709c5784846040517f5173648d000000000000000000000000000000000000000000000000000000008152600401617093929190617cee565b60405180910390fd5b5f670de0b6b3a764000085870990507faccb18165bd6fe31ae1cf318dc5b51eee0e1ba569b88cd74c1773b91fac10669600162040000805f0304018483118403026204000083860304170293505050505b92915050565b5f73ffffffffffffffffffffffffffffffffffffffff801682111561714d576040517f08c379a0000000000000000000000000000000000000000000000000000000008152600401617144906190fa565b60405180910390fd5b819050919050565b5f61716c60018461716691906180da565b83617174565b905092915050565b5f81836171819190619020565b905092915050565b606061719784845f85617429565b90509392505050565b5f670de0b6b3a76400007f80000000000000000000000000000000000000000000000000000000000000006171d59190618fb8565b82121561721957816040517f99474eeb0000000000000000000000000000000000000000000000000000000081526004016172109190619127565b60405180910390fd5b670de0b6b3a76400007f7fffffffffffffffffffffffffffffffffffffffffffffffffffffffffffffff61724d9190618fb8565b82131561729157816040517f9d5810910000000000000000000000000000000000000000000000000000000081526004016172889190619127565b60405180910390fd5b670de0b6b3a764000082029050919050565b5f806172ae84616ade565b90505f6172ba84616ade565b90507f800000000000000000000000000000000000000000000000000000000000000082148061730957507f800000000000000000000000000000000000000000000000000000000000000081145b15617340576040517fa6070c2500000000000000000000000000000000000000000000000000000000815260040160405180910390fd5b5f805f841261734f5783617353565b835f035b91505f83126173625782617366565b825f035b90505f617373838361700e565b90507f7fffffffffffffffffffffffffffffffffffffffffffffffffffffffffffffff8111156173dc5787876040517f120b5b430000000000000000000000000000000000000000000000000000000081526004016173d3929190618933565b60405180910390fd5b5f7fffffffffffffffffffffffffffffffffffffffffffffffffffffffffffffffff85871813905061741b8161741457825f03617416565b825b616bf9565b965050505050505092915050565b60608247101561746e576040517f08c379a0000000000000000000000000000000000000000000000000000000008152600401617465906191b0565b60405180910390fd5b5f808673ffffffffffffffffffffffffffffffffffffffff168587604051617496919061923a565b5f6040518083038185875af1925050503d805f81146174d0576040519150601f19603f3d011682016040523d82523d5f602084013e6174d5565b606091505b50915091506174e6878383876174f2565b92505050949350505050565b60608315617553575f83510361754b5761750b85617566565b61754a576040517f08c379a00000000000000000000000000000000000000000000000000000000081526004016175419061929a565b60405180910390fd5b5b82905061755e565b61755d8383617588565b5b949350505050565b5f808273ffffffffffffffffffffffffffffffffffffffff163b119050919050565b5f8251111561759a5781518083602001fd5b806040517f08c379a00000000000000000000000000000000000000000000000000000000081526004016175ce919061930a565b60405180910390fd5b60405180604001604052805f6bffffffffffffffffffffffff1681526020015f73ffffffffffffffffffffffffffffffffffffffff1681525090565b60405180606001604052805f62ffffff1681526020015f6cffffffffffffffffffffffffff1681526020015f6fffffffffffffffffffffffffffffffff1681525090565b5f80fd5b5f62ffffff82169050919050565b6176728161765b565b811461767c575f80fd5b50565b5f8135905061768d81617669565b92915050565b5f80604083850312156176a9576176a8617657565b5b5f6176b68582860161767f565b92505060206176c78582860161767f565b9150509250929050565b5f819050919050565b6176e3816176d1565b82525050565b5f6020820190506176fc5f8301846176da565b92915050565b61770b8161765b565b82525050565b5f6020820190506177245f830184617702565b92915050565b5f6020828403121561773f5761773e617657565b5b5f61774c8482850161767f565b91505092915050565b5f8115159050919050565b61776981617755565b82525050565b5f6020820190506177825f830184617760565b92915050565b5f819050919050565b5f6177ab6177a66177a1846176d1565b617788565b6176d1565b9050919050565b6177bb81617791565b82525050565b5f6020820190506177d45f8301846177b2565b92915050565b5f73ffffffffffffffffffffffffffffffffffffffff82169050919050565b5f617803826177da565b9050919050565b617813816177f9565b82525050565b5f60208201905061782c5f83018461780a565b92915050565b61783b816177f9565b8114617845575f80fd5b50565b5f8135905061785681617832565b92915050565b5f60ff82169050919050565b6178718161785c565b811461787b575f80fd5b50565b5f8135905061788c81617868565b92915050565b5f63ffffffff82169050919050565b6178aa81617892565b81146178b4575f80fd5b50565b5f813590506178c5816178a1565b92915050565b5f805f80608085870312156178e3576178e2617657565b5b5f6178f087828801617848565b945050602061790187828801617848565b93505060406179128782880161787e565b9250506060617923878288016178b7565b91505092959194509250565b5f6bffffffffffffffffffffffff82169050919050565b61794f8161792f565b8114617959575f80fd5b50565b5f8135905061796a81617946565b92915050565b5f806040838503121561798657617985617657565b5b5f61799385828601617848565b92505060206179a48582860161795c565b9150509250929050565b5f805f606084860312156179c5576179c4617657565b5b5f6179d286828701617848565b93505060206179e38682870161767f565b92505060406179f48682870161767f565b9150509250925092565b5f819050919050565b5f617a21617a1c617a17846179fe565b617788565b6179fe565b9050919050565b617a3181617a07565b82525050565b5f602082019050617a4a5f830184617a28565b92915050565b617a598161785c565b82525050565b5f602082019050617a725f830184617a50565b92915050565b5f60208284031215617a8d57617a8c617657565b5b5f617a9a848285016178b7565b91505092915050565b5f805f805f8060c08789031215617abd57617abc617657565b5b5f617aca89828a01617848565b9650506020617adb89828a0161787e565b9550506040617aec89828a016178b7565b9450506060617afd89828a01617848565b9350506080617b0e89828a0161795c565b92505060a0617b1f89828a01617848565b9150509295509295509295565b5f6fffffffffffffffffffffffffffffffff82169050919050565b617b5081617b2c565b82525050565b5f602082019050617b695f830184617b47565b92915050565b5f60208284031215617b8457617b83617657565b5b5f617b9184828501617848565b91505092915050565b617ba38161792f565b82525050565b617bb2816177da565b82525050565b604082015f820151617bcc5f850182617b9a565b506020820151617bdf6020850182617ba9565b50505050565b5f604082019050617bf85f830184617bb8565b92915050565b5f60208284031215617c1357617c12617657565b5b5f617c208482850161787e565b91505092915050565b617c3281617892565b82525050565b5f602082019050617c4b5f830184617c29565b92915050565b5f65ffffffffffff82169050919050565b617c6b81617c51565b82525050565b5f602082019050617c845f830184617c62565b92915050565b5f805f8060808587031215617ca257617ca1617657565b5b5f617caf87828801617848565b9450506020617cc087828801617848565b9350506040617cd18782880161767f565b9250506060617ce28782880161767f565b91505092959194509250565b5f604082019050617d015f8301856176da565b617d0e60208301846176da565b9392505050565b5f60208284031215617d2a57617d29617657565b5b5f617d378482850161795c565b91505092915050565b617d49816176d1565b8114617d53575f80fd5b50565b5f81359050617d6481617d40565b92915050565b5f60208284031215617d7f57617d7e617657565b5b5f617d8c84828501617d56565b91505092915050565b5f606082019050617da85f8301856176da565b617db56020830184617bb8565b9392505050565b5f617dd6617dd1617dcc846177da565b617788565b6177da565b9050919050565b5f617de782617dbc565b9050919050565b5f617df882617ddd565b9050919050565b617e0881617dee565b82525050565b5f602082019050617e215f830184617dff565b92915050565b617e308161792f565b82525050565b5f602082019050617e495f830184617e27565b92915050565b5f805f805f60a08688031215617e6857617e67617657565b5b5f617e7588828901617848565b9550506020617e8688828901617848565b9450506040617e978882890161767f565b9350506060617ea88882890161787e565b9250506080617eb9888289016178b7565b9150509295509295909350565b5f8060408385031215617edc57617edb617657565b5b5f617ee985828601617848565b9250506020617efa85828601617848565b9150509250929050565b5f617f0e82617ddd565b9050919050565b617f1e81617f04565b82525050565b5f602082019050617f375f830184617f15565b92915050565b5f8060408385031215617f5357617f52617657565b5b5f617f6085828601617848565b9250506020617f7185828601617d56565b9150509250929050565b5f8060408385031215617f9157617f90617657565b5b5f617f9e8582860161787e565b9250506020617faf8582860161787e565b9150509250929050565b5f6cffffffffffffffffffffffffff82169050919050565b617fda81617fb9565b82525050565b5f602082019050617ff35f830184617fd1565b92915050565b7f4e487b71000000000000000000000000000000000000000000000000000000005f52601160045260245ffd5b5f6180308261765b565b915061803b8361765b565b9250828201905062ffffff81111561805657618055617ff9565b5b92915050565b5f60408201905061806f5f83018561780a565b61807c602083018461780a565b9392505050565b5f61809d6180986180938461792f565b617788565b617fb9565b9050919050565b6180ad81618083565b82525050565b5f6040820190506180c65f8301856180a4565b6180d360208301846180a4565b9392505050565b5f6180e4826176d1565b91506180ef836176d1565b925082820190508082111561810757618106617ff9565b5b92915050565b5f61811782617fb9565b915061812283617fb9565b925082820190506cffffffffffffffffffffffffff81111561814757618146617ff9565b5b92915050565b5f61816761816261815d8461792f565b617788565b6176d1565b9050919050565b6181778161814d565b82525050565b5f6020820190506181905f83018461816e565b92915050565b5f6181a08261785c565b91506181ab8361785c565b9250828201905060ff8111156181c4576181c3617ff9565b5b92915050565b5f6181d48261785c565b91506181df8361785c565b9250828203905060ff8111156181f8576181f7617ff9565b5b92915050565b5f61821861821361820e84617fb9565b617788565b6176d1565b9050919050565b618228816181fe565b82525050565b5f6040820190506182415f83018561816e565b61824e602083018461821f565b9392505050565b5f6080820190506182685f83018761780a565b618275602083018661780a565b6182826040830185617a50565b61828f6060830184617c29565b95945050505050565b5f6182a28261765b565b915062ffffff82036182b7576182b6617ff9565b5b600182019050919050565b5f72ffffffffffffffffffffffffffffffffffffff82169050919050565b6182e9816182c2565b82525050565b5f60c0820190506183025f830189617702565b61830f6020830188617a50565b61831c6040830187617c29565b61832960608301866182e0565b6183366080830185617e27565b61834360a083018461780a565b979650505050505050565b5f6183588261765b565b91506183638361765b565b9250828203905062ffffff81111561837e5761837d617ff9565b5b92915050565b5f8151905061839281617d40565b92915050565b5f602082840312156183ad576183ac617657565b5b5f6183ba84828501618384565b91505092915050565b5f6183cd826176d1565b91506183d8836176d1565b92508282026183e6816176d1565b915082820484148315176183fd576183fc617ff9565b5b5092915050565b5f61840e82617892565b915061841983617892565b9250828201905063ffffffff81111561843557618434617ff9565b5b92915050565b5f61845561845061844b84617c51565b617788565b6176d1565b9050919050565b6184658161843b565b82525050565b5f60808201905061847e5f83018761780a565b61848b602083018661780a565b618498604083018561845c565b6184a5606083018461845c565b95945050505050565b5f6060820190506184c15f83018661780a565b6184ce602083018561845c565b6184db604083018461845c565b949350505050565b5f6184ed8261792f565b91506184f88361792f565b925082820190506bffffffffffffffffffffffff81111561851c5761851b617ff9565b5b92915050565b5f61852c826176d1565b9150618537836176d1565b925082820390508181111561854f5761854e617ff9565b5b92915050565b7f4e487b71000000000000000000000000000000000000000000000000000000005f52601260045260245ffd5b5f61858c826176d1565b9150618597836176d1565b9250826185a7576185a6618555565b5b828204905092915050565b5f6185bc826177da565b91506185c7836177da565b9250828201905073ffffffffffffffffffffffffffffffffffffffff8111156185f3576185f2617ff9565b5b92915050565b5f60408201905061860c5f830185617a50565b6186196020830184617a50565b9392505050565b5f6060820190506186335f830186617c29565b6186406020830185617c29565b61864d6040830184617a50565b949350505050565b5f61865f82617c51565b915061866a83617c51565b925082820261867881617c51565b915080821461868a57618689617ff9565b5b5092915050565b5f61869b82617c51565b91506186a683617c51565b9250828201905065ffffffffffff8111156186c4576186c3617ff9565b5b92915050565b5f6186d482617b2c565b91506186df83617b2c565b925082820190506fffffffffffffffffffffffffffffffff81111561870757618706617ff9565b5b92915050565b5f60c0820190506187205f8301896176da565b61872d6020830188617a50565b61873a6040830187617a50565b61874760608301866180a4565b6187546080830185617b47565b61876160a0830184617c62565b979650505050505050565b5f618776826177da565b9150618781836177da565b9250828203905073ffffffffffffffffffffffffffffffffffffffff8111156187ad576187ac617ff9565b5b92915050565b5f6040820190506187c65f830185617702565b6187d36020830184617702565b9392505050565b7f4e487b71000000000000000000000000000000000000000000000000000000005f52603260045260245ffd5b5f82825260208201905092915050565b7f53616665436173743a2076616c756520646f65736e27742066697420696e20315f8201527f3034206269747300000000000000000000000000000000000000000000000000602082015250565b5f618871602783618807565b915061887c82618817565b604082019050919050565b5f6020820190508181035f83015261889e81618865565b9050919050565b7f53616665436173743a2076616c756520646f65736e27742066697420696e20615f8201527f6e20696e74323536000000000000000000000000000000000000000000000000602082015250565b5f6188ff602883618807565b915061890a826188a5565b604082019050919050565b5f6020820190508181035f83015261892c816188f3565b9050919050565b5f6040820190506189465f830185617a28565b6189536020830184617a28565b9392505050565b5f61896482617892565b915061896f83617892565b925082820261897d81617892565b915080821461898f5761898e617ff9565b5b5092915050565b5f6189a082617fb9565b91506189ab83617fb9565b925082820390506cffffffffffffffffffffffffff8111156189d0576189cf617ff9565b5b92915050565b5f6189e082617fb9565b91506189eb83617fb9565b9250826189fb576189fa618555565b5b828206905092915050565b5f618a1082617fb9565b9150618a1b83617fb9565b925082618a2b57618a2a618555565b5b828204905092915050565b7f53616665436173743a2076616c756520646f65736e27742066697420696e20315f8201527f3238206269747300000000000000000000000000000000000000000000000000602082015250565b5f618a90602783618807565b9150618a9b82618a36565b604082019050919050565b5f6020820190508181035f830152618abd81618a84565b9050919050565b5f604082019050618ad75f83018561780a565b618ae460208301846176da565b9392505050565b5f8160011c9050919050565b5f808291508390505b6001851115618b4057808604811115618b1c57618b1b617ff9565b5b6001851615618b2b5780820291505b8081029050618b3985618aeb565b9450618b00565b94509492505050565b5f82618b585760019050618c13565b81618b65575f9050618c13565b8160018114618b7b5760028114618b8557618bb4565b6001915050618c13565b60ff841115618b9757618b96617ff9565b5b8360020a915084821115618bae57618bad617ff9565b5b50618c13565b5060208310610133831016604e8410600b8410161715618be95782820a905083811115618be457618be3617ff9565b5b618c13565b618bf68484846001618af7565b92509050818404811115618c0d57618c0c617ff9565b5b81810290505b9392505050565b5f618c24826176d1565b9150618c2f8361785c565b9250618c5c7fffffffffffffffffffffffffffffffffffffffffffffffffffffffffffffffff8484618b49565b905092915050565b5f606082019050618c775f83018661780a565b618c84602083018561780a565b618c9160408301846176da565b949350505050565b5f60c082019050618cac5f830189617702565b618cb9602083018861780a565b618cc6604083018761780a565b618cd36060830186617a50565b618ce06080830185617c29565b618ced60a08301846176da565b979650505050505050565b5f618d0282617b2c565b9150618d0d83617b2c565b925082820390506fffffffffffffffffffffffffffffffff811115618d3557618d34617ff9565b5b92915050565b5f61ffff82169050919050565b5f618d5282618d3b565b9150618d5d83618d3b565b9250828201905061ffff811115618d7757618d76617ff9565b5b92915050565b5f618d8782618d3b565b9150618d9283618d3b565b9250828203905061ffff811115618dac57618dab617ff9565b5b92915050565b5f618dbc82618d3b565b9150618dc783618d3b565b925082618dd757618dd6618555565b5b828204905092915050565b5f606082019050618df55f8301866176da565b618e0260208301856176da565b618e0f60408301846176da565b949350505050565b7f53616665436173743a2076616c756520646f65736e27742066697420696e20395f8201527f3620626974730000000000000000000000000000000000000000000000000000602082015250565b5f618e71602683618807565b9150618e7c82618e17565b604082019050919050565b5f6020820190508181035f830152618e9e81618e65565b9050919050565b618eae81617755565b8114618eb8575f80fd5b50565b5f81519050618ec981618ea5565b92915050565b5f60208284031215618ee457618ee3617657565b5b5f618ef184828501618ebb565b91505092915050565b7f5361666545524332303a204552433230206f7065726174696f6e20646964206e5f8201527f6f74207375636365656400000000000000000000000000000000000000000000602082015250565b5f618f54602a83618807565b9150618f5f82618efa565b604082019050919050565b5f6020820190508181035f830152618f8181618f48565b9050919050565b5f618f92826179fe565b9150618f9d836179fe565b925082618fad57618fac618555565b5b828207905092915050565b5f618fc2826179fe565b9150618fcd836179fe565b925082618fdd57618fdc618555565b5b60015f0383147f80000000000000000000000000000000000000000000000000000000000000008314161561901557619014617ff9565b5b828205905092915050565b5f61902a826176d1565b9150619035836176d1565b92508261904557619044618555565b5b828206905092915050565b5f819050919050565b61906a619065826176d1565b619050565b82525050565b5f61907b8284619059565b60208201915081905092915050565b7f53616665436173743a2076616c756520646f65736e27742066697420696e20315f8201527f3630206269747300000000000000000000000000000000000000000000000000602082015250565b5f6190e4602783618807565b91506190ef8261908a565b604082019050919050565b5f6020820190508181035f830152619111816190d8565b9050919050565b619121816179fe565b82525050565b5f60208201905061913a5f830184619118565b92915050565b7f416464726573733a20696e73756666696369656e742062616c616e636520666f5f8201527f722063616c6c0000000000000000000000000000000000000000000000000000602082015250565b5f61919a602683618807565b91506191a582619140565b604082019050919050565b5f6020820190508181035f8301526191c78161918e565b9050919050565b5f81519050919050565b5f81905092915050565b5f5b838110156191ff5780820151818401526020810190506191e4565b5f8484015250505050565b5f619214826191ce565b61921e81856191d8565b935061922e8185602086016191e2565b80840191505092915050565b5f619245828461920a565b915081905092915050565b7f416464726573733a2063616c6c20746f206e6f6e2d636f6e74726163740000005f82015250565b5f619284601d83618807565b915061928f82619250565b602082019050919050565b5f6020820190508181035f8301526192b181619278565b9050919050565b5f81519050919050565b5f601f19601f8301169050919050565b5f6192dc826192b8565b6192e68185618807565b93506192f68185602086016191e2565b6192ff816192c2565b840191505092915050565b5f6020820190508181035f83015261932281846192d2565b90509291505056fea2646970667358221220c80d51bdd3e7017c7835533e0cc32f3d002d6764861a8199069750b2321e610c64736f6c63430008180033","linkReferences":{}},"methodIdentifiers":{"DONATOR()":"1d522f1a","accountedBalance()":"0937eb54","allocateRewardFromReserve(address,uint96)":"2b2261e3","awardDraw(uint256)":"e4ff7a89","canaryShares()":"7d3fba05","claimCount()":"8da4d3c9","claimPrize(address,uint8,uint32,address,uint96,address)":"479cdd7c","computeNextNumberOfTiers(uint32)":"45e16778","computeRangeStartDrawIdInclusive(uint24,uint24)":"543c7445","computeShutdownPortion(address,address)":"e37a8548","computeTotalShares(uint8)":"60df8caa","contributePrizeTokens(address,uint256)":"eedfb450","contributeReserve(uint96)":"8cd8b2f6","donatePrizeTokens(uint256)":"93b72539","drawClosesAt(uint24)":"dd1ecaec","drawManager()":"948231fb","drawOpensAt(uint24)":"b7b02fc8","drawPeriodSeconds()":"ed88b77f","drawTimeout()":"0aa95588","drawTimeoutAt()":"4a767a4e","estimateNextNumberOfTiers()":"45226642","estimatedPrizeCount()":"f8632be4","estimatedPrizeCount(uint8)":"a1270e2e","estimatedPrizeCountWithBothCanaries()":"aa8de0ea","estimatedPrizeCountWithBothCanaries(uint8)":"771de8a7","firstDrawOpensAt()":"c052b56e","getContributedBetween(address,uint24,uint24)":"a84037b6","getDonatedBetween(uint24,uint24)":"4f051a72","getDrawId(uint256)":"9199687a","getDrawIdToAward()":"aff78fbb","getLastAwardedDrawId()":"49421996","getOpenDrawId()":"447d41b5","getShutdownDrawId()":"2f695cc9","getShutdownInfo()":"980bfca9","getTierAccrualDurationInDraws(uint8)":"face4932","getTierOdds(uint8,uint8)":"e631674a","getTierPrizeCount(uint8)":"571d0223","getTierPrizeSize(uint8)":"fc8a0810","getTierRemainingLiquidity(uint8)":"bcb00910","getTotalAccumulatorNewestObservation()":"a55b9c35","getTotalContributedBetween(uint24,uint24)":"02abcc1e","getTotalShares()":"d5002f2e","getVaultAccumulatorNewestObservation(address)":"559a6920","getVaultPortion(address,uint24,uint24)":"3f0192eb","getVaultUserBalanceAndTotalSupplyTwab(address,address,uint24,uint24)":"80fffbd9","getWinningRandomNumber()":"55203645","grandPrizePeriodDraws()":"e8196f63","isCanaryTier(uint8)":"aa7e4f89","isDrawFinalized(uint24)":"10501d04","isShutdown()":"bf86d690","isWinner(address,address,uint8,uint32)":"b31b69e0","lastAwardedDrawAwardedAt()":"6067e20f","numberOfTiers()":"6e27a2e5","pendingReserveContributions()":"790e3d47","prizeToken()":"d0ef024a","prizeTokenPerShare()":"49d1059b","reserve()":"cd3293de","reserveShares()":"58c7aa0f","rewardBalance(address)":"67b40cf7","setDrawManager(address)":"4e0dd782","shutdownAt()":"5758e705","shutdownBalanceOf(address,address)":"fe773151","tierLiquidityUtilizationRate()":"13c846ee","tierShares()":"64909dbd","totalWithdrawn()":"4b319713","twabController()":"b0812d7b","wasClaimed(address,address,uint24,uint8,uint32)":"cefa2338","wasClaimed(address,address,uint8,uint32)":"269fdac8","withdrawRewards(address,uint256)":"d6ef7af0","withdrawShutdownBalance(address,address)":"cf7b0df8"},"id":116}