{
  "abi": [
    {
      "type": "constructor",
      "inputs": [
        {
          "name": "name_",
          "type": "string",
          "internalType": "string"
        },
        {
          "name": "symbol_",
          "type": "string",
          "internalType": "string"
        },
        {
          "name": "yieldVault_",
          "type": "address",
          "internalType": "contract IERC4626"
        },
        {
          "name": "prizePool_",
          "type": "address",
          "internalType": "contract PrizePool"
        },
        {
          "name": "claimer_",
          "type": "address",
          "internalType": "address"
        },
        {
          "name": "yieldFeeRecipient_",
          "type": "address",
          "internalType": "address"
        },
        {
          "name": "yieldFeePercentage_",
          "type": "uint32",
          "internalType": "uint32"
        },
        {
          "name": "yieldBuffer_",
          "type": "uint256",
          "internalType": "uint256"
        },
        {
          "name": "owner_",
          "type": "address",
          "internalType": "address"
        }
      ],
      "stateMutability": "nonpayable"
    },
    {
      "type": "function",
      "name": "DOMAIN_SEPARATOR",
      "inputs": [],
      "outputs": [
        {
          "name": "",
          "type": "bytes32",
          "internalType": "bytes32"
        }
      ],
      "stateMutability": "view"
    },
    {
      "type": "function",
      "name": "FEE_PRECISION",
      "inputs": [],
      "outputs": [
        {
          "name": "",
          "type": "uint32",
          "internalType": "uint32"
        }
      ],
      "stateMutability": "view"
    },
    {
      "type": "function",
      "name": "HOOK_GAS",
      "inputs": [],
      "outputs": [
        {
          "name": "",
          "type": "uint24",
          "internalType": "uint24"
        }
      ],
      "stateMutability": "view"
    },
    {
      "type": "function",
      "name": "HOOK_RETURN_DATA_LIMIT",
      "inputs": [],
      "outputs": [
        {
          "name": "",
          "type": "uint16",
          "internalType": "uint16"
        }
      ],
      "stateMutability": "view"
    },
    {
      "type": "function",
      "name": "MAX_YIELD_FEE",
      "inputs": [],
      "outputs": [
        {
          "name": "",
          "type": "uint32",
          "internalType": "uint32"
        }
      ],
      "stateMutability": "view"
    },
    {
      "type": "function",
      "name": "allowance",
      "inputs": [
        {
          "name": "owner",
          "type": "address",
          "internalType": "address"
        },
        {
          "name": "spender",
          "type": "address",
          "internalType": "address"
        }
      ],
      "outputs": [
        {
          "name": "",
          "type": "uint256",
          "internalType": "uint256"
        }
      ],
      "stateMutability": "view"
    },
    {
      "type": "function",
      "name": "approve",
      "inputs": [
        {
          "name": "spender",
          "type": "address",
          "internalType": "address"
        },
        {
          "name": "amount",
          "type": "uint256",
          "internalType": "uint256"
        }
      ],
      "outputs": [
        {
          "name": "",
          "type": "bool",
          "internalType": "bool"
        }
      ],
      "stateMutability": "nonpayable"
    },
    {
      "type": "function",
      "name": "asset",
      "inputs": [],
      "outputs": [
        {
          "name": "",
          "type": "address",
          "internalType": "address"
        }
      ],
      "stateMutability": "view"
    },
    {
      "type": "function",
      "name": "availableYieldBalance",
      "inputs": [],
      "outputs": [
        {
          "name": "",
          "type": "uint256",
          "internalType": "uint256"
        }
      ],
      "stateMutability": "view"
    },
    {
      "type": "function",
      "name": "balanceOf",
      "inputs": [
        {
          "name": "_account",
          "type": "address",
          "internalType": "address"
        }
      ],
      "outputs": [
        {
          "name": "",
          "type": "uint256",
          "internalType": "uint256"
        }
      ],
      "stateMutability": "view"
    },
    {
      "type": "function",
      "name": "claimOwnership",
      "inputs": [],
      "outputs": [],
      "stateMutability": "nonpayable"
    },
    {
      "type": "function",
      "name": "claimPrize",
      "inputs": [
        {
          "name": "_winner",
          "type": "address",
          "internalType": "address"
        },
        {
          "name": "_tier",
          "type": "uint8",
          "internalType": "uint8"
        },
        {
          "name": "_prizeIndex",
          "type": "uint32",
          "internalType": "uint32"
        },
        {
          "name": "_reward",
          "type": "uint96",
          "internalType": "uint96"
        },
        {
          "name": "_rewardRecipient",
          "type": "address",
          "internalType": "address"
        }
      ],
      "outputs": [
        {
          "name": "",
          "type": "uint256",
          "internalType": "uint256"
        }
      ],
      "stateMutability": "nonpayable"
    },
    {
      "type": "function",
      "name": "claimYieldFeeShares",
      "inputs": [
        {
          "name": "_shares",
          "type": "uint256",
          "internalType": "uint256"
        }
      ],
      "outputs": [],
      "stateMutability": "nonpayable"
    },
    {
      "type": "function",
      "name": "claimer",
      "inputs": [],
      "outputs": [
        {
          "name": "",
          "type": "address",
          "internalType": "address"
        }
      ],
      "stateMutability": "view"
    },
    {
      "type": "function",
      "name": "convertToAssets",
      "inputs": [
        {
          "name": "_shares",
          "type": "uint256",
          "internalType": "uint256"
        }
      ],
      "outputs": [
        {
          "name": "",
          "type": "uint256",
          "internalType": "uint256"
        }
      ],
      "stateMutability": "view"
    },
    {
      "type": "function",
      "name": "convertToShares",
      "inputs": [
        {
          "name": "_assets",
          "type": "uint256",
          "internalType": "uint256"
        }
      ],
      "outputs": [
        {
          "name": "",
          "type": "uint256",
          "internalType": "uint256"
        }
      ],
      "stateMutability": "view"
    },
    {
      "type": "function",
      "name": "currentYieldBuffer",
      "inputs": [],
      "outputs": [
        {
          "name": "",
          "type": "uint256",
          "internalType": "uint256"
        }
      ],
      "stateMutability": "view"
    },
    {
      "type": "function",
      "name": "decimals",
      "inputs": [],
      "outputs": [
        {
          "name": "",
          "type": "uint8",
          "internalType": "uint8"
        }
      ],
      "stateMutability": "view"
    },
    {
      "type": "function",
      "name": "decreaseAllowance",
      "inputs": [
        {
          "name": "spender",
          "type": "address",
          "internalType": "address"
        },
        {
          "name": "subtractedValue",
          "type": "uint256",
          "internalType": "uint256"
        }
      ],
      "outputs": [
        {
          "name": "",
          "type": "bool",
          "internalType": "bool"
        }
      ],
      "stateMutability": "nonpayable"
    },
    {
      "type": "function",
      "name": "deposit",
      "inputs": [
        {
          "name": "_assets",
          "type": "uint256",
          "internalType": "uint256"
        },
        {
          "name": "_receiver",
          "type": "address",
          "internalType": "address"
        }
      ],
      "outputs": [
        {
          "name": "",
          "type": "uint256",
          "internalType": "uint256"
        }
      ],
      "stateMutability": "nonpayable"
    },
    {
      "type": "function",
      "name": "depositWithPermit",
      "inputs": [
        {
          "name": "_assets",
          "type": "uint256",
          "internalType": "uint256"
        },
        {
          "name": "_owner",
          "type": "address",
          "internalType": "address"
        },
        {
          "name": "_deadline",
          "type": "uint256",
          "internalType": "uint256"
        },
        {
          "name": "_v",
          "type": "uint8",
          "internalType": "uint8"
        },
        {
          "name": "_r",
          "type": "bytes32",
          "internalType": "bytes32"
        },
        {
          "name": "_s",
          "type": "bytes32",
          "internalType": "bytes32"
        }
      ],
      "outputs": [
        {
          "name": "",
          "type": "uint256",
          "internalType": "uint256"
        }
      ],
      "stateMutability": "nonpayable"
    },
    {
      "type": "function",
      "name": "eip712Domain",
      "inputs": [],
      "outputs": [
        {
          "name": "fields",
          "type": "bytes1",
          "internalType": "bytes1"
        },
        {
          "name": "name",
          "type": "string",
          "internalType": "string"
        },
        {
          "name": "version",
          "type": "string",
          "internalType": "string"
        },
        {
          "name": "chainId",
          "type": "uint256",
          "internalType": "uint256"
        },
        {
          "name": "verifyingContract",
          "type": "address",
          "internalType": "address"
        },
        {
          "name": "salt",
          "type": "bytes32",
          "internalType": "bytes32"
        },
        {
          "name": "extensions",
          "type": "uint256[]",
          "internalType": "uint256[]"
        }
      ],
      "stateMutability": "view"
    },
    {
      "type": "function",
      "name": "getHooks",
      "inputs": [
        {
          "name": "account",
          "type": "address",
          "internalType": "address"
        }
      ],
      "outputs": [
        {
          "name": "",
          "type": "tuple",
          "internalType": "struct PrizeHooks",
          "components": [
            {
              "name": "useBeforeClaimPrize",
              "type": "bool",
              "internalType": "bool"
            },
            {
              "name": "useAfterClaimPrize",
              "type": "bool",
              "internalType": "bool"
            },
            {
              "name": "implementation",
              "type": "address",
              "internalType": "contract IPrizeHooks"
            }
          ]
        }
      ],
      "stateMutability": "view"
    },
    {
      "type": "function",
      "name": "increaseAllowance",
      "inputs": [
        {
          "name": "spender",
          "type": "address",
          "internalType": "address"
        },
        {
          "name": "addedValue",
          "type": "uint256",
          "internalType": "uint256"
        }
      ],
      "outputs": [
        {
          "name": "",
          "type": "bool",
          "internalType": "bool"
        }
      ],
      "stateMutability": "nonpayable"
    },
    {
      "type": "function",
      "name": "isLiquidationPair",
      "inputs": [
        {
          "name": "_tokenOut",
          "type": "address",
          "internalType": "address"
        },
        {
          "name": "_liquidationPair",
          "type": "address",
          "internalType": "address"
        }
      ],
      "outputs": [
        {
          "name": "",
          "type": "bool",
          "internalType": "bool"
        }
      ],
      "stateMutability": "view"
    },
    {
      "type": "function",
      "name": "liquidatableBalanceOf",
      "inputs": [
        {
          "name": "_tokenOut",
          "type": "address",
          "internalType": "address"
        }
      ],
      "outputs": [
        {
          "name": "",
          "type": "uint256",
          "internalType": "uint256"
        }
      ],
      "stateMutability": "view"
    },
    {
      "type": "function",
      "name": "liquidationPair",
      "inputs": [],
      "outputs": [
        {
          "name": "",
          "type": "address",
          "internalType": "address"
        }
      ],
      "stateMutability": "view"
    },
    {
      "type": "function",
      "name": "maxDeposit",
      "inputs": [
        {
          "name": "",
          "type": "address",
          "internalType": "address"
        }
      ],
      "outputs": [
        {
          "name": "",
          "type": "uint256",
          "internalType": "uint256"
        }
      ],
      "stateMutability": "view"
    },
    {
      "type": "function",
      "name": "maxMint",
      "inputs": [
        {
          "name": "_owner",
          "type": "address",
          "internalType": "address"
        }
      ],
      "outputs": [
        {
          "name": "",
          "type": "uint256",
          "internalType": "uint256"
        }
      ],
      "stateMutability": "view"
    },
    {
      "type": "function",
      "name": "maxRedeem",
      "inputs": [
        {
          "name": "_owner",
          "type": "address",
          "internalType": "address"
        }
      ],
      "outputs": [
        {
          "name": "",
          "type": "uint256",
          "internalType": "uint256"
        }
      ],
      "stateMutability": "view"
    },
    {
      "type": "function",
      "name": "maxWithdraw",
      "inputs": [
        {
          "name": "_owner",
          "type": "address",
          "internalType": "address"
        }
      ],
      "outputs": [
        {
          "name": "",
          "type": "uint256",
          "internalType": "uint256"
        }
      ],
      "stateMutability": "view"
    },
    {
      "type": "function",
      "name": "mint",
      "inputs": [
        {
          "name": "_shares",
          "type": "uint256",
          "internalType": "uint256"
        },
        {
          "name": "_receiver",
          "type": "address",
          "internalType": "address"
        }
      ],
      "outputs": [
        {
          "name": "",
          "type": "uint256",
          "internalType": "uint256"
        }
      ],
      "stateMutability": "nonpayable"
    },
    {
      "type": "function",
      "name": "name",
      "inputs": [],
      "outputs": [
        {
          "name": "",
          "type": "string",
          "internalType": "string"
        }
      ],
      "stateMutability": "view"
    },
    {
      "type": "function",
      "name": "nonces",
      "inputs": [
        {
          "name": "owner",
          "type": "address",
          "internalType": "address"
        }
      ],
      "outputs": [
        {
          "name": "",
          "type": "uint256",
          "internalType": "uint256"
        }
      ],
      "stateMutability": "view"
    },
    {
      "type": "function",
      "name": "owner",
      "inputs": [],
      "outputs": [
        {
          "name": "",
          "type": "address",
          "internalType": "address"
        }
      ],
      "stateMutability": "view"
    },
    {
      "type": "function",
      "name": "pendingOwner",
      "inputs": [],
      "outputs": [
        {
          "name": "",
          "type": "address",
          "internalType": "address"
        }
      ],
      "stateMutability": "view"
    },
    {
      "type": "function",
      "name": "permit",
      "inputs": [
        {
          "name": "owner",
          "type": "address",
          "internalType": "address"
        },
        {
          "name": "spender",
          "type": "address",
          "internalType": "address"
        },
        {
          "name": "value",
          "type": "uint256",
          "internalType": "uint256"
        },
        {
          "name": "deadline",
          "type": "uint256",
          "internalType": "uint256"
        },
        {
          "name": "v",
          "type": "uint8",
          "internalType": "uint8"
        },
        {
          "name": "r",
          "type": "bytes32",
          "internalType": "bytes32"
        },
        {
          "name": "s",
          "type": "bytes32",
          "internalType": "bytes32"
        }
      ],
      "outputs": [],
      "stateMutability": "nonpayable"
    },
    {
      "type": "function",
      "name": "previewDeposit",
      "inputs": [
        {
          "name": "_assets",
          "type": "uint256",
          "internalType": "uint256"
        }
      ],
      "outputs": [
        {
          "name": "",
          "type": "uint256",
          "internalType": "uint256"
        }
      ],
      "stateMutability": "pure"
    },
    {
      "type": "function",
      "name": "previewMint",
      "inputs": [
        {
          "name": "_shares",
          "type": "uint256",
          "internalType": "uint256"
        }
      ],
      "outputs": [
        {
          "name": "",
          "type": "uint256",
          "internalType": "uint256"
        }
      ],
      "stateMutability": "pure"
    },
    {
      "type": "function",
      "name": "previewRedeem",
      "inputs": [
        {
          "name": "_shares",
          "type": "uint256",
          "internalType": "uint256"
        }
      ],
      "outputs": [
        {
          "name": "",
          "type": "uint256",
          "internalType": "uint256"
        }
      ],
      "stateMutability": "view"
    },
    {
      "type": "function",
      "name": "previewWithdraw",
      "inputs": [
        {
          "name": "_assets",
          "type": "uint256",
          "internalType": "uint256"
        }
      ],
      "outputs": [
        {
          "name": "",
          "type": "uint256",
          "internalType": "uint256"
        }
      ],
      "stateMutability": "view"
    },
    {
      "type": "function",
      "name": "prizePool",
      "inputs": [],
      "outputs": [
        {
          "name": "",
          "type": "address",
          "internalType": "contract PrizePool"
        }
      ],
      "stateMutability": "view"
    },
    {
      "type": "function",
      "name": "redeem",
      "inputs": [
        {
          "name": "_shares",
          "type": "uint256",
          "internalType": "uint256"
        },
        {
          "name": "_receiver",
          "type": "address",
          "internalType": "address"
        },
        {
          "name": "_owner",
          "type": "address",
          "internalType": "address"
        },
        {
          "name": "_minAssets",
          "type": "uint256",
          "internalType": "uint256"
        }
      ],
      "outputs": [
        {
          "name": "",
          "type": "uint256",
          "internalType": "uint256"
        }
      ],
      "stateMutability": "nonpayable"
    },
    {
      "type": "function",
      "name": "redeem",
      "inputs": [
        {
          "name": "_shares",
          "type": "uint256",
          "internalType": "uint256"
        },
        {
          "name": "_receiver",
          "type": "address",
          "internalType": "address"
        },
        {
          "name": "_owner",
          "type": "address",
          "internalType": "address"
        }
      ],
      "outputs": [
        {
          "name": "",
          "type": "uint256",
          "internalType": "uint256"
        }
      ],
      "stateMutability": "nonpayable"
    },
    {
      "type": "function",
      "name": "renounceOwnership",
      "inputs": [],
      "outputs": [],
      "stateMutability": "nonpayable"
    },
    {
      "type": "function",
      "name": "setClaimer",
      "inputs": [
        {
          "name": "_claimer",
          "type": "address",
          "internalType": "address"
        }
      ],
      "outputs": [],
      "stateMutability": "nonpayable"
    },
    {
      "type": "function",
      "name": "setHooks",
      "inputs": [
        {
          "name": "hooks",
          "type": "tuple",
          "internalType": "struct PrizeHooks",
          "components": [
            {
              "name": "useBeforeClaimPrize",
              "type": "bool",
              "internalType": "bool"
            },
            {
              "name": "useAfterClaimPrize",
              "type": "bool",
              "internalType": "bool"
            },
            {
              "name": "implementation",
              "type": "address",
              "internalType": "contract IPrizeHooks"
            }
          ]
        }
      ],
      "outputs": [],
      "stateMutability": "nonpayable"
    },
    {
      "type": "function",
      "name": "setLiquidationPair",
      "inputs": [
        {
          "name": "_liquidationPair",
          "type": "address",
          "internalType": "address"
        }
      ],
      "outputs": [],
      "stateMutability": "nonpayable"
    },
    {
      "type": "function",
      "name": "setYieldFeePercentage",
      "inputs": [
        {
          "name": "_yieldFeePercentage",
          "type": "uint32",
          "internalType": "uint32"
        }
      ],
      "outputs": [],
      "stateMutability": "nonpayable"
    },
    {
      "type": "function",
      "name": "setYieldFeeRecipient",
      "inputs": [
        {
          "name": "_yieldFeeRecipient",
          "type": "address",
          "internalType": "address"
        }
      ],
      "outputs": [],
      "stateMutability": "nonpayable"
    },
    {
      "type": "function",
      "name": "symbol",
      "inputs": [],
      "outputs": [
        {
          "name": "",
          "type": "string",
          "internalType": "string"
        }
      ],
      "stateMutability": "view"
    },
    {
      "type": "function",
      "name": "targetOf",
      "inputs": [
        {
          "name": "",
          "type": "address",
          "internalType": "address"
        }
      ],
      "outputs": [
        {
          "name": "",
          "type": "address",
          "internalType": "address"
        }
      ],
      "stateMutability": "view"
    },
    {
      "type": "function",
      "name": "totalAssets",
      "inputs": [],
      "outputs": [
        {
          "name": "",
          "type": "uint256",
          "internalType": "uint256"
        }
      ],
      "stateMutability": "view"
    },
    {
      "type": "function",
      "name": "totalDebt",
      "inputs": [],
      "outputs": [
        {
          "name": "",
          "type": "uint256",
          "internalType": "uint256"
        }
      ],
      "stateMutability": "view"
    },
    {
      "type": "function",
      "name": "totalPreciseAssets",
      "inputs": [],
      "outputs": [
        {
          "name": "",
          "type": "uint256",
          "internalType": "uint256"
        }
      ],
      "stateMutability": "view"
    },
    {
      "type": "function",
      "name": "totalSupply",
      "inputs": [],
      "outputs": [
        {
          "name": "",
          "type": "uint256",
          "internalType": "uint256"
        }
      ],
      "stateMutability": "view"
    },
    {
      "type": "function",
      "name": "totalYieldBalance",
      "inputs": [],
      "outputs": [
        {
          "name": "",
          "type": "uint256",
          "internalType": "uint256"
        }
      ],
      "stateMutability": "view"
    },
    {
      "type": "function",
      "name": "transfer",
      "inputs": [
        {
          "name": "to",
          "type": "address",
          "internalType": "address"
        },
        {
          "name": "amount",
          "type": "uint256",
          "internalType": "uint256"
        }
      ],
      "outputs": [
        {
          "name": "",
          "type": "bool",
          "internalType": "bool"
        }
      ],
      "stateMutability": "nonpayable"
    },
    {
      "type": "function",
      "name": "transferFrom",
      "inputs": [
        {
          "name": "from",
          "type": "address",
          "internalType": "address"
        },
        {
          "name": "to",
          "type": "address",
          "internalType": "address"
        },
        {
          "name": "amount",
          "type": "uint256",
          "internalType": "uint256"
        }
      ],
      "outputs": [
        {
          "name": "",
          "type": "bool",
          "internalType": "bool"
        }
      ],
      "stateMutability": "nonpayable"
    },
    {
      "type": "function",
      "name": "transferOwnership",
      "inputs": [
        {
          "name": "_newOwner",
          "type": "address",
          "internalType": "address"
        }
      ],
      "outputs": [],
      "stateMutability": "nonpayable"
    },
    {
      "type": "function",
      "name": "transferTokensOut",
      "inputs": [
        {
          "name": "",
          "type": "address",
          "internalType": "address"
        },
        {
          "name": "_receiver",
          "type": "address",
          "internalType": "address"
        },
        {
          "name": "_tokenOut",
          "type": "address",
          "internalType": "address"
        },
        {
          "name": "_amountOut",
          "type": "uint256",
          "internalType": "uint256"
        }
      ],
      "outputs": [
        {
          "name": "",
          "type": "bytes",
          "internalType": "bytes"
        }
      ],
      "stateMutability": "nonpayable"
    },
    {
      "type": "function",
      "name": "twabController",
      "inputs": [],
      "outputs": [
        {
          "name": "",
          "type": "address",
          "internalType": "contract TwabController"
        }
      ],
      "stateMutability": "view"
    },
    {
      "type": "function",
      "name": "verifyTokensIn",
      "inputs": [
        {
          "name": "_tokenIn",
          "type": "address",
          "internalType": "address"
        },
        {
          "name": "_amountIn",
          "type": "uint256",
          "internalType": "uint256"
        },
        {
          "name": "",
          "type": "bytes",
          "internalType": "bytes"
        }
      ],
      "outputs": [],
      "stateMutability": "nonpayable"
    },
    {
      "type": "function",
      "name": "withdraw",
      "inputs": [
        {
          "name": "_assets",
          "type": "uint256",
          "internalType": "uint256"
        },
        {
          "name": "_receiver",
          "type": "address",
          "internalType": "address"
        },
        {
          "name": "_owner",
          "type": "address",
          "internalType": "address"
        },
        {
          "name": "_maxShares",
          "type": "uint256",
          "internalType": "uint256"
        }
      ],
      "outputs": [
        {
          "name": "",
          "type": "uint256",
          "internalType": "uint256"
        }
      ],
      "stateMutability": "nonpayable"
    },
    {
      "type": "function",
      "name": "withdraw",
      "inputs": [
        {
          "name": "_assets",
          "type": "uint256",
          "internalType": "uint256"
        },
        {
          "name": "_receiver",
          "type": "address",
          "internalType": "address"
        },
        {
          "name": "_owner",
          "type": "address",
          "internalType": "address"
        }
      ],
      "outputs": [
        {
          "name": "",
          "type": "uint256",
          "internalType": "uint256"
        }
      ],
      "stateMutability": "nonpayable"
    },
    {
      "type": "function",
      "name": "yieldBuffer",
      "inputs": [],
      "outputs": [
        {
          "name": "",
          "type": "uint256",
          "internalType": "uint256"
        }
      ],
      "stateMutability": "view"
    },
    {
      "type": "function",
      "name": "yieldFeeBalance",
      "inputs": [],
      "outputs": [
        {
          "name": "",
          "type": "uint256",
          "internalType": "uint256"
        }
      ],
      "stateMutability": "view"
    },
    {
      "type": "function",
      "name": "yieldFeePercentage",
      "inputs": [],
      "outputs": [
        {
          "name": "",
          "type": "uint32",
          "internalType": "uint32"
        }
      ],
      "stateMutability": "view"
    },
    {
      "type": "function",
      "name": "yieldFeeRecipient",
      "inputs": [],
      "outputs": [
        {
          "name": "",
          "type": "address",
          "internalType": "address"
        }
      ],
      "stateMutability": "view"
    },
    {
      "type": "function",
      "name": "yieldVault",
      "inputs": [],
      "outputs": [
        {
          "name": "",
          "type": "address",
          "internalType": "contract IERC4626"
        }
      ],
      "stateMutability": "view"
    },
    {
      "type": "event",
      "name": "Approval",
      "inputs": [
        {
          "name": "owner",
          "type": "address",
          "indexed": true,
          "internalType": "address"
        },
        {
          "name": "spender",
          "type": "address",
          "indexed": true,
          "internalType": "address"
        },
        {
          "name": "value",
          "type": "uint256",
          "indexed": false,
          "internalType": "uint256"
        }
      ],
      "anonymous": false
    },
    {
      "type": "event",
      "name": "ClaimYieldFeeShares",
      "inputs": [
        {
          "name": "recipient",
          "type": "address",
          "indexed": true,
          "internalType": "address"
        },
        {
          "name": "shares",
          "type": "uint256",
          "indexed": false,
          "internalType": "uint256"
        }
      ],
      "anonymous": false
    },
    {
      "type": "event",
      "name": "ClaimerSet",
      "inputs": [
        {
          "name": "claimer",
          "type": "address",
          "indexed": true,
          "internalType": "address"
        }
      ],
      "anonymous": false
    },
    {
      "type": "event",
      "name": "Deposit",
      "inputs": [
        {
          "name": "sender",
          "type": "address",
          "indexed": true,
          "internalType": "address"
        },
        {
          "name": "owner",
          "type": "address",
          "indexed": true,
          "internalType": "address"
        },
        {
          "name": "assets",
          "type": "uint256",
          "indexed": false,
          "internalType": "uint256"
        },
        {
          "name": "shares",
          "type": "uint256",
          "indexed": false,
          "internalType": "uint256"
        }
      ],
      "anonymous": false
    },
    {
      "type": "event",
      "name": "EIP712DomainChanged",
      "inputs": [],
      "anonymous": false
    },
    {
      "type": "event",
      "name": "LiquidationPairSet",
      "inputs": [
        {
          "name": "tokenOut",
          "type": "address",
          "indexed": true,
          "internalType": "address"
        },
        {
          "name": "liquidationPair",
          "type": "address",
          "indexed": true,
          "internalType": "address"
        }
      ],
      "anonymous": false
    },
    {
      "type": "event",
      "name": "OwnershipOffered",
      "inputs": [
        {
          "name": "pendingOwner",
          "type": "address",
          "indexed": true,
          "internalType": "address"
        }
      ],
      "anonymous": false
    },
    {
      "type": "event",
      "name": "OwnershipTransferred",
      "inputs": [
        {
          "name": "previousOwner",
          "type": "address",
          "indexed": true,
          "internalType": "address"
        },
        {
          "name": "newOwner",
          "type": "address",
          "indexed": true,
          "internalType": "address"
        }
      ],
      "anonymous": false
    },
    {
      "type": "event",
      "name": "SetHooks",
      "inputs": [
        {
          "name": "account",
          "type": "address",
          "indexed": true,
          "internalType": "address"
        },
        {
          "name": "hooks",
          "type": "tuple",
          "indexed": false,
          "internalType": "struct PrizeHooks",
          "components": [
            {
              "name": "useBeforeClaimPrize",
              "type": "bool",
              "internalType": "bool"
            },
            {
              "name": "useAfterClaimPrize",
              "type": "bool",
              "internalType": "bool"
            },
            {
              "name": "implementation",
              "type": "address",
              "internalType": "contract IPrizeHooks"
            }
          ]
        }
      ],
      "anonymous": false
    },
    {
      "type": "event",
      "name": "Transfer",
      "inputs": [
        {
          "name": "from",
          "type": "address",
          "indexed": true,
          "internalType": "address"
        },
        {
          "name": "to",
          "type": "address",
          "indexed": true,
          "internalType": "address"
        },
        {
          "name": "value",
          "type": "uint256",
          "indexed": false,
          "internalType": "uint256"
        }
      ],
      "anonymous": false
    },
    {
      "type": "event",
      "name": "TransferYieldOut",
      "inputs": [
        {
          "name": "liquidationPair",
          "type": "address",
          "indexed": true,
          "internalType": "address"
        },
        {
          "name": "tokenOut",
          "type": "address",
          "indexed": true,
          "internalType": "address"
        },
        {
          "name": "recipient",
          "type": "address",
          "indexed": true,
          "internalType": "address"
        },
        {
          "name": "amountOut",
          "type": "uint256",
          "indexed": false,
          "internalType": "uint256"
        },
        {
          "name": "yieldFee",
          "type": "uint256",
          "indexed": false,
          "internalType": "uint256"
        }
      ],
      "anonymous": false
    },
    {
      "type": "event",
      "name": "Withdraw",
      "inputs": [
        {
          "name": "sender",
          "type": "address",
          "indexed": true,
          "internalType": "address"
        },
        {
          "name": "receiver",
          "type": "address",
          "indexed": true,
          "internalType": "address"
        },
        {
          "name": "owner",
          "type": "address",
          "indexed": true,
          "internalType": "address"
        },
        {
          "name": "assets",
          "type": "uint256",
          "indexed": false,
          "internalType": "uint256"
        },
        {
          "name": "shares",
          "type": "uint256",
          "indexed": false,
          "internalType": "uint256"
        }
      ],
      "anonymous": false
    },
    {
      "type": "event",
      "name": "YieldFeePercentageSet",
      "inputs": [
        {
          "name": "yieldFeePercentage",
          "type": "uint256",
          "indexed": false,
          "internalType": "uint256"
        }
      ],
      "anonymous": false
    },
    {
      "type": "event",
      "name": "YieldFeeRecipientSet",
      "inputs": [
        {
          "name": "yieldFeeRecipient",
          "type": "address",
          "indexed": true,
          "internalType": "address"
        }
      ],
      "anonymous": false
    },
    {
      "type": "error",
      "name": "BurnZeroShares",
      "inputs": []
    },
    {
      "type": "error",
      "name": "CallerNotClaimer",
      "inputs": [
        {
          "name": "caller",
          "type": "address",
          "internalType": "address"
        },
        {
          "name": "claimer",
          "type": "address",
          "internalType": "address"
        }
      ]
    },
    {
      "type": "error",
      "name": "CallerNotLP",
      "inputs": [
        {
          "name": "caller",
          "type": "address",
          "internalType": "address"
        },
        {
          "name": "liquidationPair",
          "type": "address",
          "internalType": "address"
        }
      ]
    },
    {
      "type": "error",
      "name": "CallerNotYieldFeeRecipient",
      "inputs": [
        {
          "name": "caller",
          "type": "address",
          "internalType": "address"
        },
        {
          "name": "yieldFeeRecipient",
          "type": "address",
          "internalType": "address"
        }
      ]
    },
    {
      "type": "error",
      "name": "ClaimRecipientZeroAddress",
      "inputs": []
    },
    {
      "type": "error",
      "name": "ClaimerZeroAddress",
      "inputs": []
    },
    {
      "type": "error",
      "name": "DepositZeroAssets",
      "inputs": []
    },
    {
      "type": "error",
      "name": "FailedToGetAssetDecimals",
      "inputs": [
        {
          "name": "asset",
          "type": "address",
          "internalType": "address"
        }
      ]
    },
    {
      "type": "error",
      "name": "InvalidShortString",
      "inputs": []
    },
    {
      "type": "error",
      "name": "LPZeroAddress",
      "inputs": []
    },
    {
      "type": "error",
      "name": "LiquidationAmountOutZero",
      "inputs": []
    },
    {
      "type": "error",
      "name": "LiquidationExceedsAvailable",
      "inputs": [
        {
          "name": "totalToWithdraw",
          "type": "uint256",
          "internalType": "uint256"
        },
        {
          "name": "availableYield",
          "type": "uint256",
          "internalType": "uint256"
        }
      ]
    },
    {
      "type": "error",
      "name": "LiquidationTokenInNotPrizeToken",
      "inputs": [
        {
          "name": "tokenIn",
          "type": "address",
          "internalType": "address"
        },
        {
          "name": "prizeToken",
          "type": "address",
          "internalType": "address"
        }
      ]
    },
    {
      "type": "error",
      "name": "LiquidationTokenOutNotSupported",
      "inputs": [
        {
          "name": "tokenOut",
          "type": "address",
          "internalType": "address"
        }
      ]
    },
    {
      "type": "error",
      "name": "LossyDeposit",
      "inputs": [
        {
          "name": "totalAssets",
          "type": "uint256",
          "internalType": "uint256"
        },
        {
          "name": "totalSupply",
          "type": "uint256",
          "internalType": "uint256"
        }
      ]
    },
    {
      "type": "error",
      "name": "MaxSharesExceeded",
      "inputs": [
        {
          "name": "shares",
          "type": "uint256",
          "internalType": "uint256"
        },
        {
          "name": "maxShares",
          "type": "uint256",
          "internalType": "uint256"
        }
      ]
    },
    {
      "type": "error",
      "name": "MinAssetsNotReached",
      "inputs": [
        {
          "name": "assets",
          "type": "uint256",
          "internalType": "uint256"
        },
        {
          "name": "minAssets",
          "type": "uint256",
          "internalType": "uint256"
        }
      ]
    },
    {
      "type": "error",
      "name": "MintLimitExceeded",
      "inputs": [
        {
          "name": "excess",
          "type": "uint256",
          "internalType": "uint256"
        }
      ]
    },
    {
      "type": "error",
      "name": "MintZeroShares",
      "inputs": []
    },
    {
      "type": "error",
      "name": "OwnerZeroAddress",
      "inputs": []
    },
    {
      "type": "error",
      "name": "PermitCallerNotOwner",
      "inputs": [
        {
          "name": "caller",
          "type": "address",
          "internalType": "address"
        },
        {
          "name": "owner",
          "type": "address",
          "internalType": "address"
        }
      ]
    },
    {
      "type": "error",
      "name": "PrizePoolZeroAddress",
      "inputs": []
    },
    {
      "type": "error",
      "name": "ReturnDataOverLimit",
      "inputs": [
        {
          "name": "returnDataSize",
          "type": "uint256",
          "internalType": "uint256"
        },
        {
          "name": "hookDataLimit",
          "type": "uint256",
          "internalType": "uint256"
        }
      ]
    },
    {
      "type": "error",
      "name": "SharesExceedsYieldFeeBalance",
      "inputs": [
        {
          "name": "shares",
          "type": "uint256",
          "internalType": "uint256"
        },
        {
          "name": "yieldFeeBalance",
          "type": "uint256",
          "internalType": "uint256"
        }
      ]
    },
    {
      "type": "error",
      "name": "StringTooLong",
      "inputs": [
        {
          "name": "str",
          "type": "string",
          "internalType": "string"
        }
      ]
    },
    {
      "type": "error",
      "name": "TwabControllerZeroAddress",
      "inputs": []
    },
    {
      "type": "error",
      "name": "WithdrawZeroAssets",
      "inputs": []
    },
    {
      "type": "error",
      "name": "YieldFeePercentageExceedsMax",
      "inputs": [
        {
          "name": "yieldFeePercentage",
          "type": "uint256",
          "internalType": "uint256"
        },
        {
          "name": "maxYieldFeePercentage",
          "type": "uint256",
          "internalType": "uint256"
        }
      ]
    },
    {
      "type": "error",
      "name": "YieldVaultZeroAddress",
      "inputs": []
    },
    {
      "type": "error",
      "name": "ZeroTotalAssets",
      "inputs": []
    }
  ],
  "bytecode": {
    "object": "0x61022060405234801562000011575f80fd5b50604051620093f6380380620093f6833981810160405281019062000037919062000d9a565b8086868b8b8a73ffffffffffffffffffffffffffffffffffffffff1663b0812d7b6040518163ffffffff1660e01b8152600401602060405180830381865afa15801562000086573d5f803e3d5ffd5b505050506040513d601f19601f82011682018060405250810190620000ac919062000ef3565b82806040518060400160405280600181526020017f310000000000000000000000000000000000000000000000000000000000000081525085858160039081620000f7919062001151565b50806004908162000109919062001151565b505050620001226005836200057360201b90919060201c565b6101208181525050620001406006826200057360201b90919060201c565b6101408181525050818051906020012060e08181525050808051906020012061010081815250504660a081815250506200017f620005c860201b60201c565b608081815250503073ffffffffffffffffffffffffffffffffffffffff1660c08173ffffffffffffffffffffffffffffffffffffffff16815250505050508073ffffffffffffffffffffffffffffffffffffffff165f73ffffffffffffffffffffffffffffffffffffffff160362000223576040517f337302ae00000000000000000000000000000000000000000000000000000000815260040160405180910390fd5b8073ffffffffffffffffffffffffffffffffffffffff166101608173ffffffffffffffffffffffffffffffffffffffff16815250505050505f73ffffffffffffffffffffffffffffffffffffffff168273ffffffffffffffffffffffffffffffffffffffff1603620002c1576040517f1761cbcc00000000000000000000000000000000000000000000000000000000815260040160405180910390fd5b8173ffffffffffffffffffffffffffffffffffffffff166101808173ffffffffffffffffffffffffffffffffffffffff168152505062000307816200062460201b60201c565b50506200031a816200071060201b60201c565b505f73ffffffffffffffffffffffffffffffffffffffff168773ffffffffffffffffffffffffffffffffffffffff160362000381576040517f07877e8500000000000000000000000000000000000000000000000000000000815260040160405180910390fd5b5f73ffffffffffffffffffffffffffffffffffffffff168173ffffffffffffffffffffffffffffffffffffffff1603620003e7576040517f12c44af200000000000000000000000000000000000000000000000000000000815260040160405180910390fd5b5f8773ffffffffffffffffffffffffffffffffffffffff166338d52e0f6040518163ffffffff1660e01b8152600401602060405180830381865afa15801562000432573d5f803e3d5ffd5b505050506040513d601f19601f8201168201806040525081019062000458919062001235565b90505f806200046d83620007d360201b60201c565b9150915081156200048d578060ff166102008160ff1681525050620004cc565b826040517ff5008769000000000000000000000000000000000000000000000000000000008152600401620004c3919062001276565b60405180910390fd5b8273ffffffffffffffffffffffffffffffffffffffff166101e08173ffffffffffffffffffffffffffffffffffffffff16815250508973ffffffffffffffffffffffffffffffffffffffff166101c08173ffffffffffffffffffffffffffffffffffffffff1681525050846101a0818152505062000550876200090660201b60201c565b62000561866200098c60201b60201c565b5050505050505050505050506200152d565b5f6020835110156200059857620005908362000a4760201b60201c565b9050620005c2565b82620005aa8362000ab160201b60201c565b5f019081620005ba919062001151565b5060ff5f1b90505b92915050565b5f7f8b73c3c69bb8fe3d512ecc4cf759cc79239f7b179b0ffacaa9a75d522b39400f60e05161010051463060405160200162000609959493929190620012bc565b60405160208183030381529060405280519060200120905090565b5f73ffffffffffffffffffffffffffffffffffffffff168173ffffffffffffffffffffffffffffffffffffffff16036200068a576040517f9b3011c200000000000000000000000000000000000000000000000000000000815260040160405180910390fd5b80600a5f6101000a81548173ffffffffffffffffffffffffffffffffffffffff021916908373ffffffffffffffffffffffffffffffffffffffff1602179055508073ffffffffffffffffffffffffffffffffffffffff167fa04eca05f1c4f5674beaad80f345070124aa2192abced410b9b227c0c04e755a60405160405180910390a250565b5f600b5f9054906101000a900473ffffffffffffffffffffffffffffffffffffffff16905081600b5f6101000a81548173ffffffffffffffffffffffffffffffffffffffff021916908373ffffffffffffffffffffffffffffffffffffffff1602179055508173ffffffffffffffffffffffffffffffffffffffff168173ffffffffffffffffffffffffffffffffffffffff167f8be0079c531659141344cd1fd0a4f28419497f9722a3daafe3b4186f6b6457e060405160405180910390a35050565b5f805f808473ffffffffffffffffffffffffffffffffffffffff1663313ce56760e01b604051602401604051602081830303815290604052907bffffffffffffffffffffffffffffffffffffffffffffffffffffffff19166020820180517bffffffffffffffffffffffffffffffffffffffffffffffffffffffff838183161783525050505060405162000868919062001361565b5f60405180830381855afa9150503d805f8114620008a2576040519150601f19603f3d011682016040523d82523d5f602084013e620008a7565b606091505b5091509150818015620008bc57506020815110155b15620008f8575f81806020019051810190620008d9919062001379565b905060ff80168111620008f6576001819450945050505062000901565b505b5f809350935050505b915091565b80600d5f6101000a81548173ffffffffffffffffffffffffffffffffffffffff021916908373ffffffffffffffffffffffffffffffffffffffff1602179055508073ffffffffffffffffffffffffffffffffffffffff167f5d55a9f17ebec95846f4d400ad862a51f9564a7973f6622d3c99a34feb6a0aec60405160405180910390a250565b6335a4e90063ffffffff168163ffffffff161115620009ea57806335a4e9006040517f7bcc613b000000000000000000000000000000000000000000000000000000008152600401620009e1929190620013e1565b60405180910390fd5b80600c60146101000a81548163ffffffff021916908363ffffffff1602179055507fefb99600b8c2baadc10ee4fe77c625b379acb4c29fbb0b90a5f17652d7de03418160405162000a3c91906200140c565b60405180910390a150565b5f80829050601f8151111562000a9657826040517f305a27a900000000000000000000000000000000000000000000000000000000815260040162000a8d919062001477565b60405180910390fd5b80518162000aa490620014be565b5f1c175f1b915050919050565b5f819050919050565b5f604051905090565b5f80fd5b5f80fd5b5f80fd5b5f80fd5b5f601f19601f8301169050919050565b7f4e487b71000000000000000000000000000000000000000000000000000000005f52604160045260245ffd5b62000b1b8262000ad3565b810181811067ffffffffffffffff8211171562000b3d5762000b3c62000ae3565b5b80604052505050565b5f62000b5162000aba565b905062000b5f828262000b10565b919050565b5f67ffffffffffffffff82111562000b815762000b8062000ae3565b5b62000b8c8262000ad3565b9050602081019050919050565b5f5b8381101562000bb857808201518184015260208101905062000b9b565b5f8484015250505050565b5f62000bd962000bd38462000b64565b62000b46565b90508281526020810184848401111562000bf85762000bf762000acf565b5b62000c0584828562000b99565b509392505050565b5f82601f83011262000c245762000c2362000acb565b5b815162000c3684826020860162000bc3565b91505092915050565b5f73ffffffffffffffffffffffffffffffffffffffff82169050919050565b5f62000c6a8262000c3f565b9050919050565b5f62000c7d8262000c5e565b9050919050565b62000c8f8162000c71565b811462000c9a575f80fd5b50565b5f8151905062000cad8162000c84565b92915050565b5f62000cbf8262000c5e565b9050919050565b62000cd18162000cb3565b811462000cdc575f80fd5b50565b5f8151905062000cef8162000cc6565b92915050565b62000d008162000c5e565b811462000d0b575f80fd5b50565b5f8151905062000d1e8162000cf5565b92915050565b5f63ffffffff82169050919050565b62000d3e8162000d24565b811462000d49575f80fd5b50565b5f8151905062000d5c8162000d33565b92915050565b5f819050919050565b62000d768162000d62565b811462000d81575f80fd5b50565b5f8151905062000d948162000d6b565b92915050565b5f805f805f805f805f6101208a8c03121562000dbb5762000dba62000ac3565b5b5f8a015167ffffffffffffffff81111562000ddb5762000dda62000ac7565b5b62000de98c828d0162000c0d565b99505060208a015167ffffffffffffffff81111562000e0d5762000e0c62000ac7565b5b62000e1b8c828d0162000c0d565b985050604062000e2e8c828d0162000c9d565b975050606062000e418c828d0162000cdf565b965050608062000e548c828d0162000d0e565b95505060a062000e678c828d0162000d0e565b94505060c062000e7a8c828d0162000d4c565b93505060e062000e8d8c828d0162000d84565b92505061010062000ea18c828d0162000d0e565b9150509295985092959850929598565b5f62000ebd8262000c5e565b9050919050565b62000ecf8162000eb1565b811462000eda575f80fd5b50565b5f8151905062000eed8162000ec4565b92915050565b5f6020828403121562000f0b5762000f0a62000ac3565b5b5f62000f1a8482850162000edd565b91505092915050565b5f81519050919050565b7f4e487b71000000000000000000000000000000000000000000000000000000005f52602260045260245ffd5b5f600282049050600182168062000f7257607f821691505b60208210810362000f885762000f8762000f2d565b5b50919050565b5f819050815f5260205f209050919050565b5f6020601f8301049050919050565b5f82821b905092915050565b5f6008830262000fec7fffffffffffffffffffffffffffffffffffffffffffffffffffffffffffffffff8262000faf565b62000ff8868362000faf565b95508019841693508086168417925050509392505050565b5f819050919050565b5f62001039620010336200102d8462000d62565b62001010565b62000d62565b9050919050565b5f819050919050565b620010548362001019565b6200106c620010638262001040565b84845462000fbb565b825550505050565b5f90565b6200108262001074565b6200108f81848462001049565b505050565b5b81811015620010b657620010aa5f8262001078565b60018101905062001095565b5050565b601f8211156200110557620010cf8162000f8e565b620010da8462000fa0565b81016020851015620010ea578190505b62001102620010f98562000fa0565b83018262001094565b50505b505050565b5f82821c905092915050565b5f620011275f19846008026200110a565b1980831691505092915050565b5f62001141838362001116565b9150826002028217905092915050565b6200115c8262000f23565b67ffffffffffffffff81111562001178576200117762000ae3565b5b62001184825462000f5a565b62001191828285620010ba565b5f60209050601f831160018114620011c7575f8415620011b2578287015190505b620011be858262001134565b8655506200122d565b601f198416620011d78662000f8e565b5f5b828110156200120057848901518255600182019150602085019450602081019050620011d9565b868310156200122057848901516200121c601f89168262001116565b8355505b6001600288020188555050505b505050505050565b5f602082840312156200124d576200124c62000ac3565b5b5f6200125c8482850162000d0e565b91505092915050565b620012708162000c5e565b82525050565b5f6020820190506200128b5f83018462001265565b92915050565b5f819050919050565b620012a58162001291565b82525050565b620012b68162000d62565b82525050565b5f60a082019050620012d15f8301886200129a565b620012e060208301876200129a565b620012ef60408301866200129a565b620012fe6060830185620012ab565b6200130d608083018462001265565b9695505050505050565b5f81519050919050565b5f81905092915050565b5f620013378262001317565b62001343818562001321565b93506200135581856020860162000b99565b80840191505092915050565b5f6200136e82846200132b565b915081905092915050565b5f6020828403121562001391576200139062000ac3565b5b5f620013a08482850162000d84565b91505092915050565b5f620013c9620013c3620013bd8462000d24565b62001010565b62000d62565b9050919050565b620013db81620013a9565b82525050565b5f604082019050620013f65f830185620013d0565b620014056020830184620013d0565b9392505050565b5f602082019050620014215f830184620013d0565b92915050565b5f82825260208201905092915050565b5f620014438262000f23565b6200144f818562001427565b93506200146181856020860162000b99565b6200146c8162000ad3565b840191505092915050565b5f6020820190508181035f83015262001491818462001437565b905092915050565b5f819050602082019050919050565b5f620014b5825162001291565b80915050919050565b5f620014ca8262001317565b82620014d68462001499565b9050620014e381620014a8565b925060208210156200152657620015217fffffffffffffffffffffffffffffffffffffffffffffffffffffffffffffffff8360200360080262000faf565b831692505b5050919050565b60805160a05160c05160e05161010051610120516101405161016051610180516101a0516101c0516101e05161020051617d23620016d35f395f6119f701525f8181610e450152818161123101528181611bd701528181611ca801528181611e2201528181612189015281816122280152818161270901528181612cf501528181612d48015281816132c90152818161355401528181614299015281816142e1015281816143a0015281816146f6015261491601525f8181610edd01528181610f1901528181611d4301528181611eba01528181611ef601528181612c1f0152818161437e015281816143e701528181614481015281816147990152818161483e01528181614b660152614ba201525f818161116e0152818161133b01528181611c5e0152613c7901525f81816117ec015281816123ab015281816124f501528181613085015261318601525f8181611193015281816123d401528181612c6501528181613d6201528181613f07015261547e01525f61293401525f61290001525f61519001525f61516f01525f61400101525f61405701525f6140800152617d235ff3fe608060405234801561000f575f80fd5b5060043610610410575f3560e01c80638da5cb5b1161021e578063c8576e611161012e578063de03f408116100b6578063e63a391f11610085578063e63a391f14610d9c578063edb8eb8014610dba578063ef8b30f714610dd8578063f2fde38b14610e08578063fc7b9c1814610e2457610410565b8063de03f40814610d14578063e16777c114610d44578063e30c397814610d62578063e4e243ac14610d8057610410565b8063d379be23116100fd578063d379be2314610c5c578063d4122abf14610c7a578063d505accf14610c98578063d905777e14610cb4578063dd62ed3e14610ce457610410565b8063c8576e6114610bd6578063cdfb583214610bf2578063ce96cb7714610c0e578063d30ae1b414610c3e57610410565b8063a9059cbb116101b1578063b460af9411610180578063b460af9414610afa578063ba08765214610b2a578063c63d75b614610b5a578063c6e6f59214610b8a578063c78c72c114610bba57610410565b8063a9059cbb14610a4c578063b0812d7b14610a7c578063b0fcf62614610a9a578063b3d7f6b914610aca57610410565b80639f40a7b3116101ed5780639f40a7b31461099e578063a318c1a4146109ce578063a457c2d7146109fe578063a7f8a5e214610a2e57610410565b80638da5cb5b1461091457806394bf804d1461093257806395d89b41146109625780639a1adf9a1461098057610410565b806338d52e0f11610324578063649f2394116102ac578063715018a61161027b578063715018a614610868578063719ce73e146108725780637cc99d3f146108905780637ecebe00146108c057806384b0196e146108f057610410565b8063649f2394146107ba5780636e553f65146107d8578063700f04ef1461080857806370a082311461083857610410565b80634244aa9b116102f35780634244aa9b146107165780634cdad506146107345780634e71e0c81461076457806350921b231461076e57806363003b161461079e57610410565b806338d52e0f1461067a57806339509351146106985780634006522b146106c8578063402d267d146106e657610410565b80631b571924116103a757806325fa66e01161037657806325fa66e0146105d65780632895cace146105f2578063313ce56714610622578063353d5a18146106405780633644e5151461065c57610410565b80631b5719241461053a5780631caa73cb1461056a578063237fd1081461058857806323b872dd146105a657610410565b80630a28a477116103e35780630a28a477146104b05780630d1e5255146104e057806313dc6c5d146104fe57806318160ddd1461051c57610410565b806301e1d1141461041457806306fdde031461043257806307a2d13a14610450578063095ea7b314610480575b5f80fd5b61041c610e42565b6040516104299190615bdd565b60405180910390f35b61043a611019565b6040516104479190615c80565b60405180910390f35b61046a60048036038101906104659190615cdb565b6110a9565b6040516104779190615bdd565b60405180910390f35b61049a60048036038101906104959190615d60565b6110cb565b6040516104a79190615db8565b60405180910390f35b6104ca60048036038101906104c59190615cdb565b6110ed565b6040516104d79190615bdd565b60405180910390f35b6104e861114e565b6040516104f59190615bdd565b60405180910390f35b61050661116c565b6040516105139190615bdd565b60405180910390f35b610524611190565b6040516105319190615bdd565b60405180910390f35b610554600480360381019061054f9190615dd1565b61122e565b6040516105619190615db8565b60405180910390f35b610572611314565b60405161057f9190615e2d565b60405180910390f35b61059061131c565b60405161059d9190615bdd565b60405180910390f35b6105c060048036038101906105bb9190615e46565b611376565b6040516105cd9190615db8565b60405180910390f35b6105f060048036038101906105eb9190615e96565b6113a4565b005b61060c60048036038101906106079190615f62565b61151b565b6040516106199190615bdd565b60405180910390f35b61062a6119f4565b6040516106379190615fe8565b60405180910390f35b61065a60048036038101906106559190615cdb565b611a1b565b005b610664611bc6565b6040516106719190616019565b60405180910390f35b610682611bd4565b60405161068f9190616041565b60405180910390f35b6106b260048036038101906106ad9190615d60565b611bfb565b6040516106bf9190615db8565b60405180910390f35b6106d0611c31565b6040516106dd9190616077565b60405180910390f35b61070060048036038101906106fb9190615e96565b611c38565b60405161070d9190615bdd565b60405180910390f35b61071e611e1f565b60405161072b9190615bdd565b60405180910390f35b61074e60048036038101906107499190615cdb565b611ff6565b60405161075b9190615bdd565b60405180910390f35b61076c612018565b005b610788600480360381019061078391906160ba565b612113565b6040516107959190615bdd565b60405180910390f35b6107b860048036038101906107b39190615e96565b6122df565b005b6107c2612360565b6040516107cf9190616041565b60405180910390f35b6107f260048036038101906107ed9190616143565b612385565b6040516107ff9190615bdd565b60405180910390f35b610822600480360381019061081d9190615e96565b6123a8565b60405161082f9190616041565b60405180910390f35b610852600480360381019061084d9190615e96565b6123d1565b60405161085f9190615bdd565b60405180910390f35b610870612473565b005b61087a6124f3565b60405161088791906161dc565b60405180910390f35b6108aa60048036038101906108a591906161f5565b612517565b6040516108b791906162ab565b60405180910390f35b6108da60048036038101906108d59190615e96565b6128a3565b6040516108e79190615bdd565b60405180910390f35b6108f86128f0565b60405161090b97969594939291906163bc565b60405180910390f35b61091c6129ed565b6040516109299190616041565b60405180910390f35b61094c60048036038101906109479190616143565b612a15565b6040516109599190615bdd565b60405180910390f35b61096a612a38565b6040516109779190615c80565b60405180910390f35b610988612ac8565b6040516109959190615bdd565b60405180910390f35b6109b860048036038101906109b3919061643e565b612ace565b6040516109c59190615bdd565b60405180910390f35b6109e860048036038101906109e3919061643e565b612b3b565b6040516109f59190615bdd565b60405180910390f35b610a186004803603810190610a139190615d60565b612ba8565b604051610a259190615db8565b60405180910390f35b610a36612c1d565b604051610a4391906164c2565b60405180910390f35b610a666004803603810190610a619190615d60565b612c41565b604051610a739190615db8565b60405180910390f35b610a84612c63565b604051610a9191906164fb565b60405180910390f35b610ab46004803603810190610aaf9190615e96565b612c87565b604051610ac19190615bdd565b60405180910390f35b610ae46004803603810190610adf9190615cdb565b612eaa565b604051610af19190615bdd565b60405180910390f35b610b146004803603810190610b0f9190616514565b612eb3565b604051610b219190615bdd565b60405180910390f35b610b446004803603810190610b3f9190616514565b612ed8565b604051610b519190615bdd565b60405180910390f35b610b746004803603810190610b6f9190615e96565b612efd565b604051610b819190615bdd565b60405180910390f35b610ba46004803603810190610b9f9190615cdb565b612f0e565b604051610bb19190615bdd565b60405180910390f35b610bd46004803603810190610bcf9190616586565b612f30565b005b610bf06004803603810190610beb9190616612565b612fce565b005b610c0c6004803603810190610c079190615e96565b613227565b005b610c286004803603810190610c239190615e96565b6132a8565b604051610c359190615bdd565b60405180910390f35b610c466133ac565b604051610c53919061669f565b60405180910390f35b610c646133b1565b604051610c719190616041565b60405180910390f35b610c826133d6565b604051610c8f9190615bdd565b60405180910390f35b610cb26004803603810190610cad91906166b8565b6133f4565b005b610cce6004803603810190610cc99190615e96565b613533565b604051610cdb9190615bdd565b60405180910390f35b610cfe6004803603810190610cf99190615dd1565b613652565b604051610d0b9190615bdd565b60405180910390f35b610d2e6004803603810190610d299190615e96565b6136d4565b604051610d3b91906167c4565b60405180910390f35b610d4c6137b3565b604051610d599190615e2d565b60405180910390f35b610d6a6137c9565b604051610d779190616041565b60405180910390f35b610d9a6004803603810190610d9591906167dd565b6137f1565b005b610da4613872565b604051610db19190615e2d565b60405180910390f35b610dc261387a565b604051610dcf9190616041565b60405180910390f35b610df26004803603810190610ded9190615cdb565b61389f565b604051610dff9190615bdd565b60405180910390f35b610e226004803603810190610e1d9190615e96565b6138a8565b005b610e2c613a11565b604051610e399190615bdd565b60405180910390f35b5f7f000000000000000000000000000000000000000000000000000000000000000073ffffffffffffffffffffffffffffffffffffffff166370a08231306040518263ffffffff1660e01b8152600401610e9c9190616041565b602060405180830381865afa158015610eb7573d5f803e3d5ffd5b505050506040513d601f19601f82011682018060405250810190610edb919061681c565b7f000000000000000000000000000000000000000000000000000000000000000073ffffffffffffffffffffffffffffffffffffffff166307a2d13a7f000000000000000000000000000000000000000000000000000000000000000073ffffffffffffffffffffffffffffffffffffffff166370a08231306040518263ffffffff1660e01b8152600401610f709190616041565b602060405180830381865afa158015610f8b573d5f803e3d5ffd5b505050506040513d601f19601f82011682018060405250810190610faf919061681c565b6040518263ffffffff1660e01b8152600401610fcb9190615bdd565b602060405180830381865afa158015610fe6573d5f803e3d5ffd5b505050506040513d601f19601f8201168201806040525081019061100a919061681c565b6110149190616874565b905090565b606060038054611028906168d4565b80601f0160208091040260200160405190810160405280929190818152602001828054611054906168d4565b801561109f5780601f106110765761010080835404028352916020019161109f565b820191905f5260205f20905b81548152906001019060200180831161108257829003601f168201915b5050505050905090565b5f6110c4826110b6610e42565b6110be613a11565b5f613a2c565b9050919050565b5f806110d5613a5e565b90506110e2818585613a65565b600191505092915050565b5f806110f7611e1f565b90505f8103611132576040517ff0bd6f1b00000000000000000000000000000000000000000000000000000000815260040160405180910390fd5b611146838261113f613a11565b6001613c28565b915050919050565b5f61116761115a611e1f565b611162613a11565b613c68565b905090565b7f000000000000000000000000000000000000000000000000000000000000000081565b5f7f000000000000000000000000000000000000000000000000000000000000000073ffffffffffffffffffffffffffffffffffffffff1663e4dc2aa4306040518263ffffffff1660e01b81526004016111ea9190616041565b602060405180830381865afa158015611205573d5f803e3d5ffd5b505050506040513d601f19601f82011682018060405250810190611229919061681c565b905090565b5f7f000000000000000000000000000000000000000000000000000000000000000073ffffffffffffffffffffffffffffffffffffffff168373ffffffffffffffffffffffffffffffffffffffff1614806112b457503073ffffffffffffffffffffffffffffffffffffffff168373ffffffffffffffffffffffffffffffffffffffff16145b801561130c5750600f5f9054906101000a900473ffffffffffffffffffffffffffffffffffffffff1673ffffffffffffffffffffffffffffffffffffffff168273ffffffffffffffffffffffffffffffffffffffff16145b905092915050565b6335a4e90081565b5f80611336611329611e1f565b611331613a11565b613cb9565b90505f7f0000000000000000000000000000000000000000000000000000000000000000905080821061136d578092505050611373565b81925050505b90565b5f80611380613a5e565b905061138d858285613cd5565b611398858585613d60565b60019150509392505050565b3373ffffffffffffffffffffffffffffffffffffffff166113c36129ed565b73ffffffffffffffffffffffffffffffffffffffff1614611419576040517f08c379a00000000000000000000000000000000000000000000000000000000081526004016114109061694e565b60405180910390fd5b5f73ffffffffffffffffffffffffffffffffffffffff168173ffffffffffffffffffffffffffffffffffffffff160361147e576040517f158b63ee00000000000000000000000000000000000000000000000000000000815260040160405180910390fd5b80600f5f6101000a81548173ffffffffffffffffffffffffffffffffffffffff021916908373ffffffffffffffffffffffffffffffffffffffff1602179055508073ffffffffffffffffffffffffffffffffffffffff163073ffffffffffffffffffffffffffffffffffffffff167fb540015bf51edcbfd9e43df5316486615bf954f7b4c6cc0304eb3757f1601f9560405160405180910390a350565b5f600a5f9054906101000a900473ffffffffffffffffffffffffffffffffffffffff1673ffffffffffffffffffffffffffffffffffffffff163373ffffffffffffffffffffffffffffffffffffffff16146115d05733600a5f9054906101000a900473ffffffffffffffffffffffffffffffffffffffff166040517ffe96472e0000000000000000000000000000000000000000000000000000000081526004016115c792919061696c565b60405180910390fd5b5f606060095f8973ffffffffffffffffffffffffffffffffffffffff1673ffffffffffffffffffffffffffffffffffffffff1681526020019081526020015f205f015f9054906101000a900460ff1615611780575f8061170c60095f8c73ffffffffffffffffffffffffffffffffffffffff1673ffffffffffffffffffffffffffffffffffffffff1681526020019081526020015f205f0160029054906101000a900473ffffffffffffffffffffffffffffffffffffffff1663b4db727f60e01b8c8c8c8c8c6040516024016116aa9594939291906169a2565b604051602081830303815290604052907bffffffffffffffffffffffffffffffffffffffffffffffffffffffff19166020820180517bffffffffffffffffffffffffffffffffffffffffffffffffffffffff8381831617835250505050613e5c565b91509150608061ffff1681111561175d578060806040517f756d9e29000000000000000000000000000000000000000000000000000000008152600401611754929190616a23565b60405180910390fd5b818060200190518101906117719190616b9f565b80945081955050505050611784565b8791505b5f73ffffffffffffffffffffffffffffffffffffffff168273ffffffffffffffffffffffffffffffffffffffff16036117e9576040517fe1c2596f00000000000000000000000000000000000000000000000000000000815260040160405180910390fd5b5f7f000000000000000000000000000000000000000000000000000000000000000073ffffffffffffffffffffffffffffffffffffffff1663479cdd7c8a8a8a878b8b6040518763ffffffff1660e01b815260040161184d96959493929190616bf9565b6020604051808303815f875af1158015611869573d5f803e3d5ffd5b505050506040513d601f19601f8201168201806040525081019061188d919061681c565b905060095f8a73ffffffffffffffffffffffffffffffffffffffff1673ffffffffffffffffffffffffffffffffffffffff1681526020019081526020015f205f0160019054906101000a900460ff16156119e5576119e260095f8b73ffffffffffffffffffffffffffffffffffffffff1673ffffffffffffffffffffffffffffffffffffffff1681526020019081526020015f205f0160029054906101000a900473ffffffffffffffffffffffffffffffffffffffff1663d44c6da360e01b8b8b8b8b6bffffffffffffffffffffffff16876119699190616c58565b898960405160240161198096959493929190616c8b565b604051602081830303815290604052907bffffffffffffffffffffffffffffffffffffffffffffffffffffffff19166020820180517bffffffffffffffffffffffffffffffffffffffffffffffffffffffff8381831617835250505050613e5c565b50505b80935050505095945050505050565b5f7f0000000000000000000000000000000000000000000000000000000000000000905090565b600d5f9054906101000a900473ffffffffffffffffffffffffffffffffffffffff1673ffffffffffffffffffffffffffffffffffffffff163373ffffffffffffffffffffffffffffffffffffffff1614611acf5733600d5f9054906101000a900473ffffffffffffffffffffffffffffffffffffffff166040517f1cd3a1b6000000000000000000000000000000000000000000000000000000008152600401611ac692919061696c565b60405180910390fd5b5f8103611b08576040517fb31accb700000000000000000000000000000000000000000000000000000000815260040160405180910390fd5b600e54811115611b535780600e546040517f13b5e524000000000000000000000000000000000000000000000000000000008152600401611b4a929190616cf1565b60405180910390fd5b80600e5f828254611b649190616c58565b92505081905550611b753382613f05565b3373ffffffffffffffffffffffffffffffffffffffff167f9b51aebdd88b3f321397bdf9848415ce15dedd1783c775b93b8036c6b0af0f5682604051611bbb9190615bdd565b60405180910390a250565b5f611bcf613ffe565b905090565b5f7f0000000000000000000000000000000000000000000000000000000000000000905090565b5f80611c05613a5e565b9050611c26818585611c178589613652565b611c219190616874565b613a65565b600191505092915050565b620249f081565b5f80611c42613a11565b90505f80611c4e6140b4565b91509150811580611c95575060027f0000000000000000000000000000000000000000000000000000000000000000611c879190616d45565b83611c929190616874565b81105b15611ca5575f9350505050611e1a565b5f7f000000000000000000000000000000000000000000000000000000000000000073ffffffffffffffffffffffffffffffffffffffff166370a08231306040518263ffffffff1660e01b8152600401611cff9190616041565b602060405180830381865afa158015611d1a573d5f803e3d5ffd5b505050506040513d601f19601f82011682018060405250810190611d3e919061681c565b90505f7f000000000000000000000000000000000000000000000000000000000000000073ffffffffffffffffffffffffffffffffffffffff1663402d267d306040518263ffffffff1660e01b8152600401611d9a9190616041565b602060405180830381865afa158015611db5573d5f803e3d5ffd5b505050506040513d601f19601f82011682018060405250810190611dd9919061681c565b9050808210611def575f95505050505050611e1a565b5f611df98661413a565b90505f8383039050808210611e0e5780611e10565b815b9750505050505050505b919050565b5f7f000000000000000000000000000000000000000000000000000000000000000073ffffffffffffffffffffffffffffffffffffffff166370a08231306040518263ffffffff1660e01b8152600401611e799190616041565b602060405180830381865afa158015611e94573d5f803e3d5ffd5b505050506040513d601f19601f82011682018060405250810190611eb8919061681c565b7f000000000000000000000000000000000000000000000000000000000000000073ffffffffffffffffffffffffffffffffffffffff16634cdad5067f000000000000000000000000000000000000000000000000000000000000000073ffffffffffffffffffffffffffffffffffffffff166370a08231306040518263ffffffff1660e01b8152600401611f4d9190616041565b602060405180830381865afa158015611f68573d5f803e3d5ffd5b505050506040513d601f19601f82011682018060405250810190611f8c919061681c565b6040518263ffffffff1660e01b8152600401611fa89190615bdd565b602060405180830381865afa158015611fc3573d5f803e3d5ffd5b505050506040513d601f19601f82011682018060405250810190611fe7919061681c565b611ff19190616874565b905090565b5f61201182612003611e1f565b61200b613a11565b5f613a2c565b9050919050565b600c5f9054906101000a900473ffffffffffffffffffffffffffffffffffffffff1673ffffffffffffffffffffffffffffffffffffffff163373ffffffffffffffffffffffffffffffffffffffff16146120a7576040517f08c379a000000000000000000000000000000000000000000000000000000000815260040161209e90616dbf565b60405180910390fd5b6120d1600c5f9054906101000a900473ffffffffffffffffffffffffffffffffffffffff1661415c565b5f600c5f6101000a81548173ffffffffffffffffffffffffffffffffffffffff021916908373ffffffffffffffffffffffffffffffffffffffff160217905550565b5f3373ffffffffffffffffffffffffffffffffffffffff168673ffffffffffffffffffffffffffffffffffffffff16146121865733866040517f58fe888500000000000000000000000000000000000000000000000000000000815260040161217d92919061696c565b60405180910390fd5b867f000000000000000000000000000000000000000000000000000000000000000073ffffffffffffffffffffffffffffffffffffffff1663dd62ed3e88306040518363ffffffff1660e01b81526004016121e292919061696c565b602060405180830381865afa1580156121fd573d5f803e3d5ffd5b505050506040513d601f19601f82011682018060405250810190612221919061681c565b146122b9577f000000000000000000000000000000000000000000000000000000000000000073ffffffffffffffffffffffffffffffffffffffff1663d505accf87308a898989896040518863ffffffff1660e01b815260040161228b9796959493929190616ddd565b5f604051808303815f87803b1580156122a2575f80fd5b505af11580156122b4573d5f803e3d5ffd5b505050505b5f6122c38861389f565b90506122d187888a8461421f565b809150509695505050505050565b3373ffffffffffffffffffffffffffffffffffffffff166122fe6129ed565b73ffffffffffffffffffffffffffffffffffffffff1614612354576040517f08c379a000000000000000000000000000000000000000000000000000000000815260040161234b9061694e565b60405180910390fd5b61235d81614615565b50565b600f5f9054906101000a900473ffffffffffffffffffffffffffffffffffffffff1681565b5f806123908461389f565b905061239e3384868461421f565b8091505092915050565b5f7f00000000000000000000000000000000000000000000000000000000000000009050919050565b5f7f000000000000000000000000000000000000000000000000000000000000000073ffffffffffffffffffffffffffffffffffffffff1663f7888aec30846040518363ffffffff1660e01b815260040161242d92919061696c565b602060405180830381865afa158015612448573d5f803e3d5ffd5b505050506040513d601f19601f8201168201806040525081019061246c919061681c565b9050919050565b3373ffffffffffffffffffffffffffffffffffffffff166124926129ed565b73ffffffffffffffffffffffffffffffffffffffff16146124e8576040517f08c379a00000000000000000000000000000000000000000000000000000000081526004016124df9061694e565b60405180910390fd5b6124f15f61415c565b565b7f000000000000000000000000000000000000000000000000000000000000000081565b6060600f5f9054906101000a900473ffffffffffffffffffffffffffffffffffffffff1673ffffffffffffffffffffffffffffffffffffffff163373ffffffffffffffffffffffffffffffffffffffff16146125cd5733600f5f9054906101000a900473ffffffffffffffffffffffffffffffffffffffff166040517f2e281dfe0000000000000000000000000000000000000000000000000000000081526004016125c492919061696c565b60405180910390fd5b5f8203612606576040517f8ea108ca00000000000000000000000000000000000000000000000000000000815260040160405180910390fd5b5f61260f613a11565b90505f61262361261d611e1f565b83613c68565b90505f600c60149054906101000a900463ffffffff1690505f808263ffffffff161461268d578582633b9aca0061265a9190616e4a565b63ffffffff16633b9aca0063ffffffff16886126769190616e81565b6126809190616d45565b61268a9190616c58565b90505b82818761269a9190616874565b11156126ea5780866126ac9190616874565b836040517fe85037760000000000000000000000000000000000000000000000000000000081526004016126e1929190616cf1565b60405180910390fd5b5f8111156127075780600e546127009190616874565b600e819055505b7f000000000000000000000000000000000000000000000000000000000000000073ffffffffffffffffffffffffffffffffffffffff168773ffffffffffffffffffffffffffffffffffffffff160361277357612764848261469b565b61276e88876146f3565b612808565b3073ffffffffffffffffffffffffffffffffffffffff168773ffffffffffffffffffffffffffffffffffffffff16036127ca576127bb8482886127b69190616874565b61469b565b6127c58887613f05565b612807565b866040517f978521e00000000000000000000000000000000000000000000000000000000081526004016127fe9190616041565b60405180910390fd5b5b8773ffffffffffffffffffffffffffffffffffffffff168773ffffffffffffffffffffffffffffffffffffffff163373ffffffffffffffffffffffffffffffffffffffff167f64d8a6bd56c2c610cd5d2ed87ba4bde3659df2650c7ad8aabde397decf94e07d898560405161287e929190616cf1565b60405180910390a460405180602001604052805f815250945050505050949350505050565b5f6128e960075f8473ffffffffffffffffffffffffffffffffffffffff1673ffffffffffffffffffffffffffffffffffffffff1681526020019081526020015f20614960565b9050919050565b5f6060805f805f606061292d60057f000000000000000000000000000000000000000000000000000000000000000061496c90919063ffffffff16565b61296160067f000000000000000000000000000000000000000000000000000000000000000061496c90919063ffffffff16565b46305f801b5f67ffffffffffffffff8111156129805761297f616a89565b5b6040519080825280602002602001820160405280156129ae5781602001602082028036833780820191505090505b507f0f00000000000000000000000000000000000000000000000000000000000000959493929190965096509650965096509650965090919293949596565b5f600b5f9054906101000a900473ffffffffffffffffffffffffffffffffffffffff16905090565b5f80612a2084612eaa565b9050612a2e3384838761421f565b8091505092915050565b606060048054612a47906168d4565b80601f0160208091040260200160405190810160405280929190818152602001828054612a73906168d4565b8015612abe5780601f10612a9557610100808354040283529160200191612abe565b820191905f5260205f20905b815481529060010190602001808311612aa157829003601f168201915b5050505050905090565b600e5481565b5f80612ad986611ff6565b905082811015612b225780836040517f09af2810000000000000000000000000000000000000000000000000000000008152600401612b19929190616cf1565b60405180910390fd5b612b2f3386868985614a19565b80915050949350505050565b5f80612b46866110ed565b905082811115612b8f5780836040517f654df34d000000000000000000000000000000000000000000000000000000008152600401612b86929190616cf1565b60405180910390fd5b612b9c338686848a614a19565b80915050949350505050565b5f80612bb2613a5e565b90505f612bbf8286613652565b905083811015612c04576040517f08c379a0000000000000000000000000000000000000000000000000000000008152600401612bfb90616f32565b60405180910390fd5b612c118286868403613a65565b60019250505092915050565b7f000000000000000000000000000000000000000000000000000000000000000081565b5f80612c4b613a5e565b9050612c58818585613d60565b600191505092915050565b7f000000000000000000000000000000000000000000000000000000000000000081565b5f80612c91613a11565b90505f600c60149054906101000a900463ffffffff1663ffffffff1690505f3073ffffffffffffffffffffffffffffffffffffffff168573ffffffffffffffffffffffffffffffffffffffff1603612cf357612cec8361413a565b9050612e42565b7f000000000000000000000000000000000000000000000000000000000000000073ffffffffffffffffffffffffffffffffffffffff168573ffffffffffffffffffffffffffffffffffffffff1603612e36577f000000000000000000000000000000000000000000000000000000000000000073ffffffffffffffffffffffffffffffffffffffff166370a08231306040518263ffffffff1660e01b8152600401612d9f9190616041565b602060405180830381865afa158015612dba573d5f803e3d5ffd5b505050506040513d601f19601f82011682018060405250810190612dde919061681c565b612de6614b63565b612df09190616874565b90505f8214612e31575f612e21633b9aca0063ffffffff1684612e128761413a565b614ca29092919063ffffffff16565b905081811015612e2f578091505b505b612e41565b5f9350505050612ea5565b5b5f612e54612e4e611e1f565b85613c68565b90505f82821015612e655781612e67565b825b9050612e9d84633b9aca0063ffffffff16612e829190616c58565b633b9aca0063ffffffff1683614ca29092919063ffffffff16565b955050505050505b919050565b5f819050919050565b5f80612ebe856110ed565b9050612ecd3385858489614a19565b809150509392505050565b5f80612ee385611ff6565b9050612ef23385858885614a19565b809150509392505050565b5f612f0782611c38565b9050919050565b5f612f2982612f1b610e42565b612f23613a11565b5f613c28565b9050919050565b8060095f3373ffffffffffffffffffffffffffffffffffffffff1673ffffffffffffffffffffffffffffffffffffffff1681526020019081526020015f208181612f7a9190617167565b9050503373ffffffffffffffffffffffffffffffffffffffff167f5eaf51436f308830fc57b00bb6843675b383bce9b2c669e1b9ce60de8bbb9e8e82604051612fc39190617221565b60405180910390a250565b600f5f9054906101000a900473ffffffffffffffffffffffffffffffffffffffff1673ffffffffffffffffffffffffffffffffffffffff163373ffffffffffffffffffffffffffffffffffffffff16146130825733600f5f9054906101000a900473ffffffffffffffffffffffffffffffffffffffff166040517f2e281dfe00000000000000000000000000000000000000000000000000000000815260040161307992919061696c565b60405180910390fd5b5f7f000000000000000000000000000000000000000000000000000000000000000073ffffffffffffffffffffffffffffffffffffffff1663d0ef024a6040518163ffffffff1660e01b8152600401602060405180830381865afa1580156130ec573d5f803e3d5ffd5b505050506040513d601f19601f820116820180604052508101906131109190617275565b90508073ffffffffffffffffffffffffffffffffffffffff168573ffffffffffffffffffffffffffffffffffffffff16146131845784816040517f301d830400000000000000000000000000000000000000000000000000000000815260040161317b92919061696c565b60405180910390fd5b7f000000000000000000000000000000000000000000000000000000000000000073ffffffffffffffffffffffffffffffffffffffff1663eedfb45030866040518363ffffffff1660e01b81526004016131df9291906172a0565b6020604051808303815f875af11580156131fb573d5f803e3d5ffd5b505050506040513d601f19601f8201168201806040525081019061321f919061681c565b505050505050565b3373ffffffffffffffffffffffffffffffffffffffff166132466129ed565b73ffffffffffffffffffffffffffffffffffffffff161461329c576040517f08c379a00000000000000000000000000000000000000000000000000000000081526004016132939061694e565b60405180910390fd5b6132a581614dac565b50565b5f805f6132b36140b4565b91509150816132c6575f925050506133a7565b5f7f000000000000000000000000000000000000000000000000000000000000000073ffffffffffffffffffffffffffffffffffffffff166370a08231306040518263ffffffff1660e01b81526004016133209190616041565b602060405180830381865afa15801561333b573d5f803e3d5ffd5b505050506040513d601f19601f8201168201806040525081019061335f919061681c565b613367614b63565b6133719190616874565b90505f61338f613380876123d1565b84613389613a11565b5f613a2c565b905081811061339e57816133a0565b805b9450505050505b919050565b608081565b600a5f9054906101000a900473ffffffffffffffffffffffffffffffffffffffff1681565b5f6133ef6133e2611e1f565b6133ea613a11565b613cb9565b905090565b83421115613437576040517f08c379a000000000000000000000000000000000000000000000000000000000815260040161342e90617311565b60405180910390fd5b5f7f6e71edae12b1b97f4d1f60370fef10105fa2faae0126114a169c64845d6126c98888886134658c614e97565b8960405160200161347b9695949392919061732f565b6040516020818303038152906040528051906020012090505f61349d82614ef2565b90505f6134ac82878787614f0b565b90508973ffffffffffffffffffffffffffffffffffffffff168173ffffffffffffffffffffffffffffffffffffffff161461351c576040517f08c379a0000000000000000000000000000000000000000000000000000000008152600401613513906173d8565b60405180910390fd5b6135278a8a8a613a65565b50505050505050505050565b5f805f61353e6140b4565b9150915081613551575f9250505061364d565b5f7f000000000000000000000000000000000000000000000000000000000000000073ffffffffffffffffffffffffffffffffffffffff166370a08231306040518263ffffffff1660e01b81526004016135ab9190616041565b602060405180830381865afa1580156135c6573d5f803e3d5ffd5b505050506040513d601f19601f820116820180604052508101906135ea919061681c565b6135f2614b63565b6135fc9190616874565b90505f613608866123d1565b905081811115613645575f6136278385613620613a11565b6001613c28565b9050818110156136375780613639565b815b9550505050505061364d565b809450505050505b919050565b5f60015f8473ffffffffffffffffffffffffffffffffffffffff1673ffffffffffffffffffffffffffffffffffffffff1681526020019081526020015f205f8373ffffffffffffffffffffffffffffffffffffffff1673ffffffffffffffffffffffffffffffffffffffff1681526020019081526020015f2054905092915050565b6136dc615b8d565b60095f8373ffffffffffffffffffffffffffffffffffffffff1673ffffffffffffffffffffffffffffffffffffffff1681526020019081526020015f206040518060600160405290815f82015f9054906101000a900460ff161515151581526020015f820160019054906101000a900460ff161515151581526020015f820160029054906101000a900473ffffffffffffffffffffffffffffffffffffffff1673ffffffffffffffffffffffffffffffffffffffff1673ffffffffffffffffffffffffffffffffffffffff16815250509050919050565b600c60149054906101000a900463ffffffff1681565b5f600c5f9054906101000a900473ffffffffffffffffffffffffffffffffffffffff16905090565b3373ffffffffffffffffffffffffffffffffffffffff166138106129ed565b73ffffffffffffffffffffffffffffffffffffffff1614613866576040517f08c379a000000000000000000000000000000000000000000000000000000000815260040161385d9061694e565b60405180910390fd5b61386f81614f34565b50565b633b9aca0081565b600d5f9054906101000a900473ffffffffffffffffffffffffffffffffffffffff1681565b5f819050919050565b3373ffffffffffffffffffffffffffffffffffffffff166138c76129ed565b73ffffffffffffffffffffffffffffffffffffffff161461391d576040517f08c379a00000000000000000000000000000000000000000000000000000000081526004016139149061694e565b60405180910390fd5b5f73ffffffffffffffffffffffffffffffffffffffff168173ffffffffffffffffffffffffffffffffffffffff160361398b576040517f08c379a000000000000000000000000000000000000000000000000000000000815260040161398290617466565b60405180910390fd5b80600c5f6101000a81548173ffffffffffffffffffffffffffffffffffffffff021916908373ffffffffffffffffffffffffffffffffffffffff1602179055508073ffffffffffffffffffffffffffffffffffffffff167f239a2ddded15777fa246aed5f7e1a9bc69a39d4eb4a397034d1d85766cca7d4c60405160405180910390a250565b5f600e54613a1d611190565b613a279190616874565b905090565b5f828410613a3c57849050613a56565b613a5384848488614fea909392919063ffffffff16565b90505b949350505050565b5f33905090565b5f73ffffffffffffffffffffffffffffffffffffffff168373ffffffffffffffffffffffffffffffffffffffff1603613ad3576040517f08c379a0000000000000000000000000000000000000000000000000000000008152600401613aca906174f4565b60405180910390fd5b5f73ffffffffffffffffffffffffffffffffffffffff168273ffffffffffffffffffffffffffffffffffffffff1603613b41576040517f08c379a0000000000000000000000000000000000000000000000000000000008152600401613b3890617582565b60405180910390fd5b8060015f8573ffffffffffffffffffffffffffffffffffffffff1673ffffffffffffffffffffffffffffffffffffffff1681526020019081526020015f205f8473ffffffffffffffffffffffffffffffffffffffff1673ffffffffffffffffffffffffffffffffffffffff1681526020019081526020015f20819055508173ffffffffffffffffffffffffffffffffffffffff168373ffffffffffffffffffffffffffffffffffffffff167f8c5be1e5ebec7d5bd14f71427d1e84f3dd0314c0f7b2291e5b200ac8c7c3b92583604051613c1b9190615bdd565b60405180910390a3505050565b5f828410613c3857849050613c60565b5f8414613c5b57613c5683858488614fea909392919063ffffffff16565b613c5d565b5f5b90505b949350505050565b5f80613c748484613cb9565b90505f7f00000000000000000000000000000000000000000000000000000000000000009050808210613cad5780820392505050613cb3565b5f925050505b92915050565b5f828210613cc9575f9050613ccf565b81830390505b92915050565b5f613ce08484613652565b90507fffffffffffffffffffffffffffffffffffffffffffffffffffffffffffffffff8114613d5a5781811015613d4c576040517f08c379a0000000000000000000000000000000000000000000000000000000008152600401613d43906175ea565b60405180910390fd5b613d598484848403613a65565b5b50505050565b7f000000000000000000000000000000000000000000000000000000000000000073ffffffffffffffffffffffffffffffffffffffff1663c661667d8484613da78561505e565b6040518463ffffffff1660e01b8152600401613dc593929190617608565b5f604051808303815f87803b158015613ddc575f80fd5b505af1158015613dee573d5f803e3d5ffd5b505050508173ffffffffffffffffffffffffffffffffffffffff168373ffffffffffffffffffffffffffffffffffffffff167fddf252ad1be2c89b69c2b068fc378daa952ba7f163c4a11628f55a4df523b3ef83604051613e4f9190615bdd565b60405180910390a3505050565b60605f80613e98620249f062ffffff165f6080878973ffffffffffffffffffffffffffffffffffffffff166150b890949392919063ffffffff16565b80945081925050503d915080613efd57608061ffff16821115613ef5578160806040517f756d9e29000000000000000000000000000000000000000000000000000000008152600401613eec929190616a23565b60405180910390fd5b825183602001fd5b509250929050565b7f000000000000000000000000000000000000000000000000000000000000000073ffffffffffffffffffffffffffffffffffffffff16631b025a4083613f4b8461505e565b6040518363ffffffff1660e01b8152600401613f6892919061763d565b5f604051808303815f87803b158015613f7f575f80fd5b505af1158015613f91573d5f803e3d5ffd5b505050508173ffffffffffffffffffffffffffffffffffffffff165f73ffffffffffffffffffffffffffffffffffffffff167fddf252ad1be2c89b69c2b068fc378daa952ba7f163c4a11628f55a4df523b3ef83604051613ff29190615bdd565b60405180910390a35050565b5f7f000000000000000000000000000000000000000000000000000000000000000073ffffffffffffffffffffffffffffffffffffffff163073ffffffffffffffffffffffffffffffffffffffff1614801561407957507f000000000000000000000000000000000000000000000000000000000000000046145b156140a6577f000000000000000000000000000000000000000000000000000000000000000090506140b1565b6140ae61514b565b90505b90565b5f803073ffffffffffffffffffffffffffffffffffffffff16634244aa9b6040518163ffffffff1660e01b8152600401602060405180830381865afa92505050801561411e57506040513d601f19601f8201168201806040525081019061411b919061681c565b60015b61412d575f91505f9050614136565b60019250809150505b9091565b5f816bffffffffffffffffffffffff80166141559190616c58565b9050919050565b5f600b5f9054906101000a900473ffffffffffffffffffffffffffffffffffffffff16905081600b5f6101000a81548173ffffffffffffffffffffffffffffffffffffffff021916908373ffffffffffffffffffffffffffffffffffffffff1602179055508173ffffffffffffffffffffffffffffffffffffffff168173ffffffffffffffffffffffffffffffffffffffff167f8be0079c531659141344cd1fd0a4f28419497f9722a3daafe3b4186f6b6457e060405160405180910390a35050565b5f8103614258576040517fb31accb700000000000000000000000000000000000000000000000000000000815260040160405180910390fd5b5f8203614291576040517ff0f4d07b00000000000000000000000000000000000000000000000000000000815260040160405180910390fd5b6142de8430847f000000000000000000000000000000000000000000000000000000000000000073ffffffffffffffffffffffffffffffffffffffff166151e0909392919063ffffffff16565b5f7f000000000000000000000000000000000000000000000000000000000000000073ffffffffffffffffffffffffffffffffffffffff166370a08231306040518263ffffffff1660e01b81526004016143389190616041565b602060405180830381865afa158015614353573d5f803e3d5ffd5b505050506040513d601f19601f82011682018060405250810190614377919061681c565b90506143e47f0000000000000000000000000000000000000000000000000000000000000000827f000000000000000000000000000000000000000000000000000000000000000073ffffffffffffffffffffffffffffffffffffffff166152699092919063ffffffff16565b5f7f000000000000000000000000000000000000000000000000000000000000000073ffffffffffffffffffffffffffffffffffffffff1663ef8b30f7836040518263ffffffff1660e01b815260040161443e9190615bdd565b602060405180830381865afa158015614459573d5f803e3d5ffd5b505050506040513d601f19601f8201168201806040525081019061447d919061681c565b90507f000000000000000000000000000000000000000000000000000000000000000073ffffffffffffffffffffffffffffffffffffffff166394bf804d82306040518363ffffffff1660e01b81526004016144da929190617664565b6020604051808303815f875af11580156144f6573d5f803e3d5ffd5b505050506040513d601f19601f8201168201806040525081019061451a919061681c565b505f614524613a11565b9050614530818561469b565b838161453c9190616874565b614544611e1f565b101561459b57614552611e1f565b848261455e9190616874565b6040517f2b8b305a000000000000000000000000000000000000000000000000000000008152600401614592929190616cf1565b60405180910390fd5b6145a58685613f05565b8573ffffffffffffffffffffffffffffffffffffffff168773ffffffffffffffffffffffffffffffffffffffff167fdcbc1c05240f31ff3ad067ef1ee35ce4997762752e3a095284754544f4c709d78787604051614604929190616cf1565b60405180910390a350505050505050565b80600d5f6101000a81548173ffffffffffffffffffffffffffffffffffffffff021916908373ffffffffffffffffffffffffffffffffffffffff1602179055508073ffffffffffffffffffffffffffffffffffffffff167f5d55a9f17ebec95846f4d400ad862a51f9564a7973f6622d3c99a34feb6a0aec60405160405180910390a250565b5f6146a58361413a565b9050808211156146ee578082036040517ffc0623860000000000000000000000000000000000000000000000000000000081526004016146e59190615bdd565b60405180910390fd5b505050565b5f7f000000000000000000000000000000000000000000000000000000000000000073ffffffffffffffffffffffffffffffffffffffff166370a08231306040518263ffffffff1660e01b815260040161474d9190616041565b602060405180830381865afa158015614768573d5f803e3d5ffd5b505050506040513d601f19601f8201168201806040525081019061478c919061681c565b9050808211156148dc575f7f000000000000000000000000000000000000000000000000000000000000000073ffffffffffffffffffffffffffffffffffffffff16630a28a47783856147df9190616c58565b6040518263ffffffff1660e01b81526004016147fb9190615bdd565b602060405180830381865afa158015614816573d5f803e3d5ffd5b505050506040513d601f19601f8201168201806040525081019061483a919061681c565b90507f000000000000000000000000000000000000000000000000000000000000000073ffffffffffffffffffffffffffffffffffffffff1663ba0876528230306040518463ffffffff1660e01b81526004016148999392919061768b565b6020604051808303815f875af11580156148b5573d5f803e3d5ffd5b505050506040513d601f19601f820116820180604052508101906148d9919061681c565b50505b3073ffffffffffffffffffffffffffffffffffffffff168373ffffffffffffffffffffffffffffffffffffffff161461495b5761495a83837f000000000000000000000000000000000000000000000000000000000000000073ffffffffffffffffffffffffffffffffffffffff166153849092919063ffffffff16565b5b505050565b5f815f01549050919050565b606060ff5f1b8314614988576149818361540a565b9050614a13565b818054614994906168d4565b80601f01602080910402602001604051908101604052809291908181526020018280546149c0906168d4565b8015614a0b5780601f106149e257610100808354040283529160200191614a0b565b820191905f5260205f20905b8154815290600101906020018083116149ee57829003601f168201915b505050505090505b92915050565b5f8103614a52576040517ff3c41a2b00000000000000000000000000000000000000000000000000000000815260040160405180910390fd5b5f8203614a8b576040517f5ee78d8600000000000000000000000000000000000000000000000000000000815260040160405180910390fd5b8273ffffffffffffffffffffffffffffffffffffffff168573ffffffffffffffffffffffffffffffffffffffff1614614aca57614ac9838684613cd5565b5b614ad4838361547c565b614ade84826146f3565b8273ffffffffffffffffffffffffffffffffffffffff168473ffffffffffffffffffffffffffffffffffffffff168673ffffffffffffffffffffffffffffffffffffffff167ffbde797d201c681b91056529119e0b02407c7bb96a4a2c75c01fc9667232c8db8486604051614b54929190616cf1565b60405180910390a45050505050565b5f7f000000000000000000000000000000000000000000000000000000000000000073ffffffffffffffffffffffffffffffffffffffff16634cdad5067f000000000000000000000000000000000000000000000000000000000000000073ffffffffffffffffffffffffffffffffffffffff1663d905777e306040518263ffffffff1660e01b8152600401614bf99190616041565b602060405180830381865afa158015614c14573d5f803e3d5ffd5b505050506040513d601f19601f82011682018060405250810190614c38919061681c565b6040518263ffffffff1660e01b8152600401614c549190615bdd565b602060405180830381865afa925050508015614c8e57506040513d601f19601f82011682018060405250810190614c8b919061681c565b60015b614c9a575f9050614c9f565b809150505b90565b5f805f80198587098587029250828110838203039150505f8103614cda57838281614cd057614ccf616d18565b5b0492505050614da5565b808411614d1c576040517f08c379a0000000000000000000000000000000000000000000000000000000008152600401614d139061770a565b60405180910390fd5b5f8486880990508281118203915080830392505f60018619018616905080860495508084049350600181825f0304019050808302841793505f600287600302189050808702600203810290508087026002038102905080870260020381029050808702600203810290508087026002038102905080870260020381029050808502955050505050505b9392505050565b5f73ffffffffffffffffffffffffffffffffffffffff168173ffffffffffffffffffffffffffffffffffffffff1603614e11576040517f9b3011c200000000000000000000000000000000000000000000000000000000815260040160405180910390fd5b80600a5f6101000a81548173ffffffffffffffffffffffffffffffffffffffff021916908373ffffffffffffffffffffffffffffffffffffffff1602179055508073ffffffffffffffffffffffffffffffffffffffff167fa04eca05f1c4f5674beaad80f345070124aa2192abced410b9b227c0c04e755a60405160405180910390a250565b5f8060075f8473ffffffffffffffffffffffffffffffffffffffff1673ffffffffffffffffffffffffffffffffffffffff1681526020019081526020015f209050614ee181614960565b9150614eec81615575565b50919050565b5f614f04614efe613ffe565b83615589565b9050919050565b5f805f614f1a878787876155c9565b91509150614f27816156a1565b8192505050949350505050565b6335a4e90063ffffffff168163ffffffff161115614f8f57806335a4e9006040517f7bcc613b000000000000000000000000000000000000000000000000000000008152600401614f86929190617758565b60405180910390fd5b80600c60146101000a81548163ffffffff021916908363ffffffff1602179055507fefb99600b8c2baadc10ee4fe77c625b379acb4c29fbb0b90a5f17652d7de034181604051614fdf919061777f565b60405180910390a150565b5f80614ff7868686614ca2565b90506001600281111561500d5761500c617798565b5b8360028111156150205761501f617798565b5b14801561503d57505f848061503857615037616d18565b5b868809115b156150525760018161504f9190616874565b90505b80915050949350505050565b5f6bffffffffffffffffffffffff80168211156150b0576040517f08c379a00000000000000000000000000000000000000000000000000000000081526004016150a790617835565b60405180910390fd5b819050919050565b5f60605f805f8661ffff1667ffffffffffffffff8111156150dc576150db616a89565b5b6040519080825280601f01601f19166020018201604052801561510e5781602001600182028036833780820191505090505b5090505f808751602089018b8e8ef191503d92508683111561512e578692505b828152825f602083013e8181945094505050509550959350505050565b5f7f8b73c3c69bb8fe3d512ecc4cf759cc79239f7b179b0ffacaa9a75d522b39400f7f00000000000000000000000000000000000000000000000000000000000000007f000000000000000000000000000000000000000000000000000000000000000046306040516020016151c5959493929190617853565b60405160208183030381529060405280519060200120905090565b615263846323b872dd60e01b858585604051602401615201939291906178a4565b604051602081830303815290604052907bffffffffffffffffffffffffffffffffffffffffffffffffffffffff19166020820180517bffffffffffffffffffffffffffffffffffffffffffffffffffffffff8381831617835250505050615806565b50505050565b5f63095ea7b360e01b83836040516024016152859291906172a0565b604051602081830303815290604052907bffffffffffffffffffffffffffffffffffffffffffffffffffffffff19166020820180517bffffffffffffffffffffffffffffffffffffffffffffffffffffffff838183161783525050505090506152ee84826158cc565b61537e576153738463095ea7b360e01b855f604051602401615311929190617912565b604051602081830303815290604052907bffffffffffffffffffffffffffffffffffffffffffffffffffffffff19166020820180517bffffffffffffffffffffffffffffffffffffffffffffffffffffffff8381831617835250505050615806565b61537d8482615806565b5b50505050565b6154058363a9059cbb60e01b84846040516024016153a39291906172a0565b604051602081830303815290604052907bffffffffffffffffffffffffffffffffffffffffffffffffffffffff19166020820180517bffffffffffffffffffffffffffffffffffffffffffffffffffffffff8381831617835250505050615806565b505050565b60605f6154168361597a565b90505f602067ffffffffffffffff81111561543457615433616a89565b5b6040519080825280601f01601f1916602001820160405280156154665781602001600182028036833780820191505090505b5090508181528360208201528092505050919050565b7f000000000000000000000000000000000000000000000000000000000000000073ffffffffffffffffffffffffffffffffffffffff16638df2c8e6836154c28461505e565b6040518363ffffffff1660e01b81526004016154df92919061763d565b5f604051808303815f87803b1580156154f6575f80fd5b505af1158015615508573d5f803e3d5ffd5b505050505f73ffffffffffffffffffffffffffffffffffffffff168273ffffffffffffffffffffffffffffffffffffffff167fddf252ad1be2c89b69c2b068fc378daa952ba7f163c4a11628f55a4df523b3ef836040516155699190615bdd565b60405180910390a35050565b6001815f015f828254019250508190555050565b5f6040517f190100000000000000000000000000000000000000000000000000000000000081528360028201528260228201526042812091505092915050565b5f807f7fffffffffffffffffffffffffffffff5d576e7357a4501ddfe92f46681b20a0835f1c1115615601575f600391509150615698565b5f6001878787876040515f81526020016040526040516156249493929190617939565b6020604051602081039080840390855afa158015615644573d5f803e3d5ffd5b5050506020604051035190505f73ffffffffffffffffffffffffffffffffffffffff168173ffffffffffffffffffffffffffffffffffffffff1603615690575f60019250925050615698565b805f92509250505b94509492505050565b5f60048111156156b4576156b3617798565b5b8160048111156156c7576156c6617798565b5b031561580357600160048111156156e1576156e0617798565b5b8160048111156156f4576156f3617798565b5b03615734576040517f08c379a000000000000000000000000000000000000000000000000000000000815260040161572b906179c6565b60405180910390fd5b6002600481111561574857615747617798565b5b81600481111561575b5761575a617798565b5b0361579b576040517f08c379a000000000000000000000000000000000000000000000000000000000815260040161579290617a2e565b60405180910390fd5b600360048111156157af576157ae617798565b5b8160048111156157c2576157c1617798565b5b03615802576040517f08c379a00000000000000000000000000000000000000000000000000000000081526004016157f990617abc565b60405180910390fd5b5b50565b5f615867826040518060400160405280602081526020017f5361666545524332303a206c6f772d6c6576656c2063616c6c206661696c65648152508573ffffffffffffffffffffffffffffffffffffffff166159c89092919063ffffffff16565b90505f815114806158885750808060200190518101906158879190617aee565b5b6158c7576040517f08c379a00000000000000000000000000000000000000000000000000000000081526004016158be90617b89565b60405180910390fd5b505050565b5f805f8473ffffffffffffffffffffffffffffffffffffffff16846040516158f49190617be1565b5f604051808303815f865af19150503d805f811461592d576040519150601f19603f3d011682016040523d82523d5f602084013e615932565b606091505b509150915081801561595f57505f8151148061595e57508080602001905181019061595d9190617aee565b5b5b8015615970575061596f856159df565b5b9250505092915050565b5f8060ff835f1c169050601f8111156159bf576040517fb3512b0c00000000000000000000000000000000000000000000000000000000815260040160405180910390fd5b80915050919050565b60606159d684845f85615a01565b90509392505050565b5f808273ffffffffffffffffffffffffffffffffffffffff163b119050919050565b606082471015615a46576040517f08c379a0000000000000000000000000000000000000000000000000000000008152600401615a3d90617c67565b60405180910390fd5b5f808673ffffffffffffffffffffffffffffffffffffffff168587604051615a6e9190617be1565b5f6040518083038185875af1925050503d805f8114615aa8576040519150601f19603f3d011682016040523d82523d5f602084013e615aad565b606091505b5091509150615abe87838387615aca565b92505050949350505050565b60608315615b2b575f835103615b2357615ae3856159df565b615b22576040517f08c379a0000000000000000000000000000000000000000000000000000000008152600401615b1990617ccf565b60405180910390fd5b5b829050615b36565b615b358383615b3e565b5b949350505050565b5f82511115615b505781518083602001fd5b806040517f08c379a0000000000000000000000000000000000000000000000000000000008152600401615b849190615c80565b60405180910390fd5b60405180606001604052805f151581526020015f151581526020015f73ffffffffffffffffffffffffffffffffffffffff1681525090565b5f819050919050565b615bd781615bc5565b82525050565b5f602082019050615bf05f830184615bce565b92915050565b5f81519050919050565b5f82825260208201905092915050565b5f5b83811015615c2d578082015181840152602081019050615c12565b5f8484015250505050565b5f601f19601f8301169050919050565b5f615c5282615bf6565b615c5c8185615c00565b9350615c6c818560208601615c10565b615c7581615c38565b840191505092915050565b5f6020820190508181035f830152615c988184615c48565b905092915050565b5f604051905090565b5f80fd5b5f80fd5b615cba81615bc5565b8114615cc4575f80fd5b50565b5f81359050615cd581615cb1565b92915050565b5f60208284031215615cf057615cef615ca9565b5b5f615cfd84828501615cc7565b91505092915050565b5f73ffffffffffffffffffffffffffffffffffffffff82169050919050565b5f615d2f82615d06565b9050919050565b615d3f81615d25565b8114615d49575f80fd5b50565b5f81359050615d5a81615d36565b92915050565b5f8060408385031215615d7657615d75615ca9565b5b5f615d8385828601615d4c565b9250506020615d9485828601615cc7565b9150509250929050565b5f8115159050919050565b615db281615d9e565b82525050565b5f602082019050615dcb5f830184615da9565b92915050565b5f8060408385031215615de757615de6615ca9565b5b5f615df485828601615d4c565b9250506020615e0585828601615d4c565b9150509250929050565b5f63ffffffff82169050919050565b615e2781615e0f565b82525050565b5f602082019050615e405f830184615e1e565b92915050565b5f805f60608486031215615e5d57615e5c615ca9565b5b5f615e6a86828701615d4c565b9350506020615e7b86828701615d4c565b9250506040615e8c86828701615cc7565b9150509250925092565b5f60208284031215615eab57615eaa615ca9565b5b5f615eb884828501615d4c565b91505092915050565b5f60ff82169050919050565b615ed681615ec1565b8114615ee0575f80fd5b50565b5f81359050615ef181615ecd565b92915050565b615f0081615e0f565b8114615f0a575f80fd5b50565b5f81359050615f1b81615ef7565b92915050565b5f6bffffffffffffffffffffffff82169050919050565b615f4181615f21565b8114615f4b575f80fd5b50565b5f81359050615f5c81615f38565b92915050565b5f805f805f60a08688031215615f7b57615f7a615ca9565b5b5f615f8888828901615d4c565b9550506020615f9988828901615ee3565b9450506040615faa88828901615f0d565b9350506060615fbb88828901615f4e565b9250506080615fcc88828901615d4c565b9150509295509295909350565b615fe281615ec1565b82525050565b5f602082019050615ffb5f830184615fd9565b92915050565b5f819050919050565b61601381616001565b82525050565b5f60208201905061602c5f83018461600a565b92915050565b61603b81615d25565b82525050565b5f6020820190506160545f830184616032565b92915050565b5f62ffffff82169050919050565b6160718161605a565b82525050565b5f60208201905061608a5f830184616068565b92915050565b61609981616001565b81146160a3575f80fd5b50565b5f813590506160b481616090565b92915050565b5f805f805f8060c087890312156160d4576160d3615ca9565b5b5f6160e189828a01615cc7565b96505060206160f289828a01615d4c565b955050604061610389828a01615cc7565b945050606061611489828a01615ee3565b935050608061612589828a016160a6565b92505060a061613689828a016160a6565b9150509295509295509295565b5f806040838503121561615957616158615ca9565b5b5f61616685828601615cc7565b925050602061617785828601615d4c565b9150509250929050565b5f819050919050565b5f6161a461619f61619a84615d06565b616181565b615d06565b9050919050565b5f6161b58261618a565b9050919050565b5f6161c6826161ab565b9050919050565b6161d6816161bc565b82525050565b5f6020820190506161ef5f8301846161cd565b92915050565b5f805f806080858703121561620d5761620c615ca9565b5b5f61621a87828801615d4c565b945050602061622b87828801615d4c565b935050604061623c87828801615d4c565b925050606061624d87828801615cc7565b91505092959194509250565b5f81519050919050565b5f82825260208201905092915050565b5f61627d82616259565b6162878185616263565b9350616297818560208601615c10565b6162a081615c38565b840191505092915050565b5f6020820190508181035f8301526162c38184616273565b905092915050565b5f7fff0000000000000000000000000000000000000000000000000000000000000082169050919050565b6162ff816162cb565b82525050565b5f81519050919050565b5f82825260208201905092915050565b5f819050602082019050919050565b61633781615bc5565b82525050565b5f616348838361632e565b60208301905092915050565b5f602082019050919050565b5f61636a82616305565b616374818561630f565b935061637f8361631f565b805f5b838110156163af578151616396888261633d565b97506163a183616354565b925050600181019050616382565b5085935050505092915050565b5f60e0820190506163cf5f83018a6162f6565b81810360208301526163e18189615c48565b905081810360408301526163f58188615c48565b90506164046060830187615bce565b6164116080830186616032565b61641e60a083018561600a565b81810360c08301526164308184616360565b905098975050505050505050565b5f805f806080858703121561645657616455615ca9565b5b5f61646387828801615cc7565b945050602061647487828801615d4c565b935050604061648587828801615d4c565b925050606061649687828801615cc7565b91505092959194509250565b5f6164ac826161ab565b9050919050565b6164bc816164a2565b82525050565b5f6020820190506164d55f8301846164b3565b92915050565b5f6164e5826161ab565b9050919050565b6164f5816164db565b82525050565b5f60208201905061650e5f8301846164ec565b92915050565b5f805f6060848603121561652b5761652a615ca9565b5b5f61653886828701615cc7565b935050602061654986828701615d4c565b925050604061655a86828701615d4c565b9150509250925092565b5f80fd5b5f6060828403121561657d5761657c616564565b5b81905092915050565b5f6060828403121561659b5761659a615ca9565b5b5f6165a884828501616568565b91505092915050565b5f80fd5b5f80fd5b5f80fd5b5f8083601f8401126165d2576165d16165b1565b5b8235905067ffffffffffffffff8111156165ef576165ee6165b5565b5b60208301915083600182028301111561660b5761660a6165b9565b5b9250929050565b5f805f806060858703121561662a57616629615ca9565b5b5f61663787828801615d4c565b945050602061664887828801615cc7565b935050604085013567ffffffffffffffff81111561666957616668615cad565b5b616675878288016165bd565b925092505092959194509250565b5f61ffff82169050919050565b61669981616683565b82525050565b5f6020820190506166b25f830184616690565b92915050565b5f805f805f805f60e0888a0312156166d3576166d2615ca9565b5b5f6166e08a828b01615d4c565b97505060206166f18a828b01615d4c565b96505060406167028a828b01615cc7565b95505060606167138a828b01615cc7565b94505060806167248a828b01615ee3565b93505060a06167358a828b016160a6565b92505060c06167468a828b016160a6565b91505092959891949750929550565b61675e81615d9e565b82525050565b5f61676e826161ab565b9050919050565b61677e81616764565b82525050565b606082015f8201516167985f850182616755565b5060208201516167ab6020850182616755565b5060408201516167be6040850182616775565b50505050565b5f6060820190506167d75f830184616784565b92915050565b5f602082840312156167f2576167f1615ca9565b5b5f6167ff84828501615f0d565b91505092915050565b5f8151905061681681615cb1565b92915050565b5f6020828403121561683157616830615ca9565b5b5f61683e84828501616808565b91505092915050565b7f4e487b71000000000000000000000000000000000000000000000000000000005f52601160045260245ffd5b5f61687e82615bc5565b915061688983615bc5565b92508282019050808211156168a1576168a0616847565b5b92915050565b7f4e487b71000000000000000000000000000000000000000000000000000000005f52602260045260245ffd5b5f60028204905060018216806168eb57607f821691505b6020821081036168fe576168fd6168a7565b5b50919050565b7f4f776e61626c652f63616c6c65722d6e6f742d6f776e657200000000000000005f82015250565b5f616938601883615c00565b915061694382616904565b602082019050919050565b5f6020820190508181035f8301526169658161692c565b9050919050565b5f60408201905061697f5f830185616032565b61698c6020830184616032565b9392505050565b61699c81615f21565b82525050565b5f60a0820190506169b55f830188616032565b6169c26020830187615fd9565b6169cf6040830186615e1e565b6169dc6060830185616993565b6169e96080830184616032565b9695505050505050565b5f616a0d616a08616a0384616683565b616181565b615bc5565b9050919050565b616a1d816169f3565b82525050565b5f604082019050616a365f830185615bce565b616a436020830184616a14565b9392505050565b5f616a5482615d06565b9050919050565b616a6481616a4a565b8114616a6e575f80fd5b50565b5f81519050616a7f81616a5b565b92915050565b5f80fd5b7f4e487b71000000000000000000000000000000000000000000000000000000005f52604160045260245ffd5b616abf82615c38565b810181811067ffffffffffffffff82111715616ade57616add616a89565b5b80604052505050565b5f616af0615ca0565b9050616afc8282616ab6565b919050565b5f67ffffffffffffffff821115616b1b57616b1a616a89565b5b616b2482615c38565b9050602081019050919050565b5f616b43616b3e84616b01565b616ae7565b905082815260208101848484011115616b5f57616b5e616a85565b5b616b6a848285615c10565b509392505050565b5f82601f830112616b8657616b856165b1565b5b8151616b96848260208601616b31565b91505092915050565b5f8060408385031215616bb557616bb4615ca9565b5b5f616bc285828601616a71565b925050602083015167ffffffffffffffff811115616be357616be2615cad565b5b616bef85828601616b72565b9150509250929050565b5f60c082019050616c0c5f830189616032565b616c196020830188615fd9565b616c266040830187615e1e565b616c336060830186616032565b616c406080830185616993565b616c4d60a0830184616032565b979650505050505050565b5f616c6282615bc5565b9150616c6d83615bc5565b9250828203905081811115616c8557616c84616847565b5b92915050565b5f60c082019050616c9e5f830189616032565b616cab6020830188615fd9565b616cb86040830187615e1e565b616cc56060830186615bce565b616cd26080830185616032565b81810360a0830152616ce48184616273565b9050979650505050505050565b5f604082019050616d045f830185615bce565b616d116020830184615bce565b9392505050565b7f4e487b71000000000000000000000000000000000000000000000000000000005f52601260045260245ffd5b5f616d4f82615bc5565b9150616d5a83615bc5565b925082616d6a57616d69616d18565b5b828204905092915050565b7f4f776e61626c652f63616c6c65722d6e6f742d70656e64696e674f776e6572005f82015250565b5f616da9601f83615c00565b9150616db482616d75565b602082019050919050565b5f6020820190508181035f830152616dd681616d9d565b9050919050565b5f60e082019050616df05f83018a616032565b616dfd6020830189616032565b616e0a6040830188615bce565b616e176060830187615bce565b616e246080830186615fd9565b616e3160a083018561600a565b616e3e60c083018461600a565b98975050505050505050565b5f616e5482615e0f565b9150616e5f83615e0f565b9250828203905063ffffffff811115616e7b57616e7a616847565b5b92915050565b5f616e8b82615bc5565b9150616e9683615bc5565b9250828202616ea481615bc5565b91508282048414831517616ebb57616eba616847565b5b5092915050565b7f45524332303a2064656372656173656420616c6c6f77616e63652062656c6f775f8201527f207a65726f000000000000000000000000000000000000000000000000000000602082015250565b5f616f1c602583615c00565b9150616f2782616ec2565b604082019050919050565b5f6020820190508181035f830152616f4981616f10565b9050919050565b616f5981615d9e565b8114616f63575f80fd5b50565b5f8135616f7281616f50565b80915050919050565b5f815f1b9050919050565b5f60ff616f9284616f7b565b9350801983169250808416831791505092915050565b5f616fb282615d9e565b9050919050565b5f819050919050565b616fcb82616fa8565b616fde616fd782616fb9565b8354616f86565b8255505050565b5f8160081b9050919050565b5f61ff00616ffe84616fe5565b9350801983169250808416831791505092915050565b61701d82616fa8565b61703061702982616fb9565b8354616ff1565b8255505050565b5f61704182615d25565b9050919050565b61705181617037565b811461705b575f80fd5b50565b5f813561706a81617048565b80915050919050565b5f8160101b9050919050565b5f75ffffffffffffffffffffffffffffffffffffffff00006170a084617073565b9350801983169250808416831791505092915050565b5f6170c08261618a565b9050919050565b5f6170d1826170b6565b9050919050565b5f819050919050565b6170ea826170c7565b6170fd6170f6826170d8565b835461707f565b8255505050565b5f81015f83018061711481616f66565b90506171208184616fc2565b5050505f8101602083018061713481616f66565b90506171408184617014565b5050505f810160408301806171548161705e565b905061716081846170e1565b5050505050565b6171718282617104565b5050565b5f8135905061718381616f50565b92915050565b5f6171976020840184617175565b905092915050565b5f813590506171ad81617048565b92915050565b5f6171c1602084018461719f565b905092915050565b606082016171d95f830183617189565b6171e55f850182616755565b506171f36020830183617189565b6172006020850182616755565b5061720e60408301836171b3565b61721b6040850182616775565b50505050565b5f6060820190506172345f8301846171c9565b92915050565b5f61724482615d25565b9050919050565b6172548161723a565b811461725e575f80fd5b50565b5f8151905061726f8161724b565b92915050565b5f6020828403121561728a57617289615ca9565b5b5f61729784828501617261565b91505092915050565b5f6040820190506172b35f830185616032565b6172c06020830184615bce565b9392505050565b7f45524332305065726d69743a206578706972656420646561646c696e650000005f82015250565b5f6172fb601d83615c00565b9150617306826172c7565b602082019050919050565b5f6020820190508181035f830152617328816172ef565b9050919050565b5f60c0820190506173425f83018961600a565b61734f6020830188616032565b61735c6040830187616032565b6173696060830186615bce565b6173766080830185615bce565b61738360a0830184615bce565b979650505050505050565b7f45524332305065726d69743a20696e76616c6964207369676e617475726500005f82015250565b5f6173c2601e83615c00565b91506173cd8261738e565b602082019050919050565b5f6020820190508181035f8301526173ef816173b6565b9050919050565b7f4f776e61626c652f70656e64696e674f776e65722d6e6f742d7a65726f2d61645f8201527f6472657373000000000000000000000000000000000000000000000000000000602082015250565b5f617450602583615c00565b915061745b826173f6565b604082019050919050565b5f6020820190508181035f83015261747d81617444565b9050919050565b7f45524332303a20617070726f76652066726f6d20746865207a65726f206164645f8201527f7265737300000000000000000000000000000000000000000000000000000000602082015250565b5f6174de602483615c00565b91506174e982617484565b604082019050919050565b5f6020820190508181035f83015261750b816174d2565b9050919050565b7f45524332303a20617070726f766520746f20746865207a65726f2061646472655f8201527f7373000000000000000000000000000000000000000000000000000000000000602082015250565b5f61756c602283615c00565b915061757782617512565b604082019050919050565b5f6020820190508181035f83015261759981617560565b9050919050565b7f45524332303a20696e73756666696369656e7420616c6c6f77616e63650000005f82015250565b5f6175d4601d83615c00565b91506175df826175a0565b602082019050919050565b5f6020820190508181035f830152617601816175c8565b9050919050565b5f60608201905061761b5f830186616032565b6176286020830185616032565b6176356040830184616993565b949350505050565b5f6040820190506176505f830185616032565b61765d6020830184616993565b9392505050565b5f6040820190506176775f830185615bce565b6176846020830184616032565b9392505050565b5f60608201905061769e5f830186615bce565b6176ab6020830185616032565b6176b86040830184616032565b949350505050565b7f4d6174683a206d756c446976206f766572666c6f7700000000000000000000005f82015250565b5f6176f4601583615c00565b91506176ff826176c0565b602082019050919050565b5f6020820190508181035f830152617721816176e8565b9050919050565b5f61774261773d61773884615e0f565b616181565b615bc5565b9050919050565b61775281617728565b82525050565b5f60408201905061776b5f830185617749565b6177786020830184617749565b9392505050565b5f6020820190506177925f830184617749565b92915050565b7f4e487b71000000000000000000000000000000000000000000000000000000005f52602160045260245ffd5b7f53616665436173743a2076616c756520646f65736e27742066697420696e20395f8201527f3620626974730000000000000000000000000000000000000000000000000000602082015250565b5f61781f602683615c00565b915061782a826177c5565b604082019050919050565b5f6020820190508181035f83015261784c81617813565b9050919050565b5f60a0820190506178665f83018861600a565b617873602083018761600a565b617880604083018661600a565b61788d6060830185615bce565b61789a6080830184616032565b9695505050505050565b5f6060820190506178b75f830186616032565b6178c46020830185616032565b6178d16040830184615bce565b949350505050565b5f819050919050565b5f6178fc6178f76178f2846178d9565b616181565b615ec1565b9050919050565b61790c816178e2565b82525050565b5f6040820190506179255f830185616032565b6179326020830184617903565b9392505050565b5f60808201905061794c5f83018761600a565b6179596020830186615fd9565b617966604083018561600a565b617973606083018461600a565b95945050505050565b7f45434453413a20696e76616c6964207369676e617475726500000000000000005f82015250565b5f6179b0601883615c00565b91506179bb8261797c565b602082019050919050565b5f6020820190508181035f8301526179dd816179a4565b9050919050565b7f45434453413a20696e76616c6964207369676e6174757265206c656e677468005f82015250565b5f617a18601f83615c00565b9150617a23826179e4565b602082019050919050565b5f6020820190508181035f830152617a4581617a0c565b9050919050565b7f45434453413a20696e76616c6964207369676e6174757265202773272076616c5f8201527f7565000000000000000000000000000000000000000000000000000000000000602082015250565b5f617aa6602283615c00565b9150617ab182617a4c565b604082019050919050565b5f6020820190508181035f830152617ad381617a9a565b9050919050565b5f81519050617ae881616f50565b92915050565b5f60208284031215617b0357617b02615ca9565b5b5f617b1084828501617ada565b91505092915050565b7f5361666545524332303a204552433230206f7065726174696f6e20646964206e5f8201527f6f74207375636365656400000000000000000000000000000000000000000000602082015250565b5f617b73602a83615c00565b9150617b7e82617b19565b604082019050919050565b5f6020820190508181035f830152617ba081617b67565b9050919050565b5f81905092915050565b5f617bbb82616259565b617bc58185617ba7565b9350617bd5818560208601615c10565b80840191505092915050565b5f617bec8284617bb1565b915081905092915050565b7f416464726573733a20696e73756666696369656e742062616c616e636520666f5f8201527f722063616c6c0000000000000000000000000000000000000000000000000000602082015250565b5f617c51602683615c00565b9150617c5c82617bf7565b604082019050919050565b5f6020820190508181035f830152617c7e81617c45565b9050919050565b7f416464726573733a2063616c6c20746f206e6f6e2d636f6e74726163740000005f82015250565b5f617cb9601d83615c00565b9150617cc482617c85565b602082019050919050565b5f6020820190508181035f830152617ce681617cad565b905091905056fea2646970667358221220aeeef80df46355121be69cd4fc4ec62cc7ce49a6fabb24fa64a45c3c022e6d9964736f6c63430008180033",
    "linkReferences": {}
  },
  "methodIdentifiers": {
    "DOMAIN_SEPARATOR()": "3644e515",
    "FEE_PRECISION()": "e63a391f",
    "HOOK_GAS()": "4006522b",
    "HOOK_RETURN_DATA_LIMIT()": "d30ae1b4",
    "MAX_YIELD_FEE()": "1caa73cb",
    "allowance(address,address)": "dd62ed3e",
    "approve(address,uint256)": "095ea7b3",
    "asset()": "38d52e0f",
    "availableYieldBalance()": "0d1e5255",
    "balanceOf(address)": "70a08231",
    "claimOwnership()": "4e71e0c8",
    "claimPrize(address,uint8,uint32,uint96,address)": "2895cace",
    "claimYieldFeeShares(uint256)": "353d5a18",
    "claimer()": "d379be23",
    "convertToAssets(uint256)": "07a2d13a",
    "convertToShares(uint256)": "c6e6f592",
    "currentYieldBuffer()": "237fd108",
    "decimals()": "313ce567",
    "decreaseAllowance(address,uint256)": "a457c2d7",
    "deposit(uint256,address)": "6e553f65",
    "depositWithPermit(uint256,address,uint256,uint8,bytes32,bytes32)": "50921b23",
    "eip712Domain()": "84b0196e",
    "getHooks(address)": "de03f408",
    "increaseAllowance(address,uint256)": "39509351",
    "isLiquidationPair(address,address)": "1b571924",
    "liquidatableBalanceOf(address)": "b0fcf626",
    "liquidationPair()": "649f2394",
    "maxDeposit(address)": "402d267d",
    "maxMint(address)": "c63d75b6",
    "maxRedeem(address)": "d905777e",
    "maxWithdraw(address)": "ce96cb77",
    "mint(uint256,address)": "94bf804d",
    "name()": "06fdde03",
    "nonces(address)": "7ecebe00",
    "owner()": "8da5cb5b",
    "pendingOwner()": "e30c3978",
    "permit(address,address,uint256,uint256,uint8,bytes32,bytes32)": "d505accf",
    "previewDeposit(uint256)": "ef8b30f7",
    "previewMint(uint256)": "b3d7f6b9",
    "previewRedeem(uint256)": "4cdad506",
    "previewWithdraw(uint256)": "0a28a477",
    "prizePool()": "719ce73e",
    "redeem(uint256,address,address)": "ba087652",
    "redeem(uint256,address,address,uint256)": "9f40a7b3",
    "renounceOwnership()": "715018a6",
    "setClaimer(address)": "cdfb5832",
    "setHooks((bool,bool,address))": "c78c72c1",
    "setLiquidationPair(address)": "25fa66e0",
    "setYieldFeePercentage(uint32)": "e4e243ac",
    "setYieldFeeRecipient(address)": "63003b16",
    "symbol()": "95d89b41",
    "targetOf(address)": "700f04ef",
    "totalAssets()": "01e1d114",
    "totalDebt()": "fc7b9c18",
    "totalPreciseAssets()": "4244aa9b",
    "totalSupply()": "18160ddd",
    "totalYieldBalance()": "d4122abf",
    "transfer(address,uint256)": "a9059cbb",
    "transferFrom(address,address,uint256)": "23b872dd",
    "transferOwnership(address)": "f2fde38b",
    "transferTokensOut(address,address,address,uint256)": "7cc99d3f",
    "twabController()": "b0812d7b",
    "verifyTokensIn(address,uint256,bytes)": "c8576e61",
    "withdraw(uint256,address,address)": "b460af94",
    "withdraw(uint256,address,address,uint256)": "a318c1a4",
    "yieldBuffer()": "13dc6c5d",
    "yieldFeeBalance()": "9a1adf9a",
    "yieldFeePercentage()": "e16777c1",
    "yieldFeeRecipient()": "edb8eb80",
    "yieldVault()": "a7f8a5e2"
  },
  "id": 155
}